{
  "_format": "hh-sol-artifact-1",
  "contractName": "Inviting",
  "sourceName": "contracts/pool/Inviting.sol",
  "abi": [
    {
      "inputs": [],
      "stateMutability": "nonpayable",
      "type": "constructor"
    },
    {
      "anonymous": false,
      "inputs": [
        {
          "indexed": true,
          "internalType": "address",
          "name": "user",
          "type": "address"
        },
        {
          "indexed": false,
          "internalType": "address",
          "name": "inviter",
          "type": "address"
        }
      ],
      "name": "BindInviter",
      "type": "event"
    },
    {
      "anonymous": false,
      "inputs": [
        {
          "indexed": true,
          "internalType": "bytes32",
          "name": "role",
          "type": "bytes32"
        },
        {
          "indexed": true,
          "internalType": "bytes32",
          "name": "previousAdminRole",
          "type": "bytes32"
        },
        {
          "indexed": true,
          "internalType": "bytes32",
          "name": "newAdminRole",
          "type": "bytes32"
        }
      ],
      "name": "RoleAdminChanged",
      "type": "event"
    },
    {
      "anonymous": false,
      "inputs": [
        {
          "indexed": true,
          "internalType": "bytes32",
          "name": "role",
          "type": "bytes32"
        },
        {
          "indexed": true,
          "internalType": "address",
          "name": "account",
          "type": "address"
        },
        {
          "indexed": true,
          "internalType": "address",
          "name": "sender",
          "type": "address"
        }
      ],
      "name": "RoleGranted",
      "type": "event"
    },
    {
      "anonymous": false,
      "inputs": [
        {
          "indexed": true,
          "internalType": "bytes32",
          "name": "role",
          "type": "bytes32"
        },
        {
          "indexed": true,
          "internalType": "address",
          "name": "account",
          "type": "address"
        },
        {
          "indexed": true,
          "internalType": "address",
          "name": "sender",
          "type": "address"
        }
      ],
      "name": "RoleRevoked",
      "type": "event"
    },
    {
      "inputs": [],
      "name": "DEFAULT_ADMIN_ROLE",
      "outputs": [
        {
          "internalType": "bytes32",
          "name": "",
          "type": "bytes32"
        }
      ],
      "stateMutability": "view",
      "type": "function"
    },
    {
      "inputs": [],
      "name": "MANAGER_ROLE",
      "outputs": [
        {
          "internalType": "bytes32",
          "name": "",
          "type": "bytes32"
        }
      ],
      "stateMutability": "view",
      "type": "function"
    },
    {
      "inputs": [
        {
          "internalType": "bytes32",
          "name": "role",
          "type": "bytes32"
        }
      ],
      "name": "getRoleAdmin",
      "outputs": [
        {
          "internalType": "bytes32",
          "name": "",
          "type": "bytes32"
        }
      ],
      "stateMutability": "view",
      "type": "function"
    },
    {
      "inputs": [
        {
          "internalType": "bytes32",
          "name": "role",
          "type": "bytes32"
        },
        {
          "internalType": "uint256",
          "name": "index",
          "type": "uint256"
        }
      ],
      "name": "getRoleMember",
      "outputs": [
        {
          "internalType": "address",
          "name": "",
          "type": "address"
        }
      ],
      "stateMutability": "view",
      "type": "function"
    },
    {
      "inputs": [
        {
          "internalType": "bytes32",
          "name": "role",
          "type": "bytes32"
        }
      ],
      "name": "getRoleMemberCount",
      "outputs": [
        {
          "internalType": "uint256",
          "name": "",
          "type": "uint256"
        }
      ],
      "stateMutability": "view",
      "type": "function"
    },
    {
      "inputs": [
        {
          "internalType": "bytes32",
          "name": "role",
          "type": "bytes32"
        },
        {
          "internalType": "address",
          "name": "account",
          "type": "address"
        }
      ],
      "name": "grantRole",
      "outputs": [],
      "stateMutability": "nonpayable",
      "type": "function"
    },
    {
      "inputs": [
        {
          "internalType": "bytes32",
          "name": "role",
          "type": "bytes32"
        },
        {
          "internalType": "address",
          "name": "account",
          "type": "address"
        }
      ],
      "name": "hasRole",
      "outputs": [
        {
          "internalType": "bool",
          "name": "",
          "type": "bool"
        }
      ],
      "stateMutability": "view",
      "type": "function"
    },
    {
      "inputs": [
        {
          "internalType": "address",
          "name": "user",
          "type": "address"
        },
        {
          "internalType": "address",
          "name": "inviter",
          "type": "address"
        }
      ],
      "name": "managerBindInviter",
      "outputs": [
        {
          "internalType": "address",
          "name": "",
          "type": "address"
        }
      ],
      "stateMutability": "nonpayable",
      "type": "function"
    },
    {
      "inputs": [
        {
          "internalType": "bytes32",
          "name": "role",
          "type": "bytes32"
        },
        {
          "internalType": "address",
          "name": "account",
          "type": "address"
        }
      ],
      "name": "renounceRole",
      "outputs": [],
      "stateMutability": "nonpayable",
      "type": "function"
    },
    {
      "inputs": [
        {
          "internalType": "bytes32",
          "name": "role",
          "type": "bytes32"
        },
        {
          "internalType": "address",
          "name": "account",
          "type": "address"
        }
      ],
      "name": "revokeRole",
      "outputs": [],
      "stateMutability": "nonpayable",
      "type": "function"
    },
    {
      "inputs": [
        {
          "internalType": "bytes4",
          "name": "interfaceId",
          "type": "bytes4"
        }
      ],
      "name": "supportsInterface",
      "outputs": [
        {
          "internalType": "bool",
          "name": "",
          "type": "bool"
        }
      ],
      "stateMutability": "view",
      "type": "function"
    },
    {
      "inputs": [
        {
          "internalType": "address",
          "name": "",
          "type": "address"
        }
      ],
      "name": "userInviter",
      "outputs": [
        {
          "internalType": "address",
          "name": "",
          "type": "address"
        }
      ],
      "stateMutability": "view",
      "type": "function"
    }
  ],
  "bytecode": "0x60806040523480156200001157600080fd5b50620000276000801b336200002d60201b60201c565b620002c3565b6200003f82826200004360201b60201c565b5050565b6200005a82826200008b60201b620008281760201c565b6200008681600160008581526020019081526020016000206200017c60201b620009081790919060201c565b505050565b6200009d8282620001b460201b60201c565b6200017857600160008084815260200190815260200160002060000160008373ffffffffffffffffffffffffffffffffffffffff1673ffffffffffffffffffffffffffffffffffffffff16815260200190815260200160002060006101000a81548160ff0219169083151502179055506200011d6200021e60201b60201c565b73ffffffffffffffffffffffffffffffffffffffff168173ffffffffffffffffffffffffffffffffffffffff16837f2f8788117e7eff1d82e926ec794901d17c78024a50270940304540a733656f0d60405160405180910390a45b5050565b6000620001ac836000018373ffffffffffffffffffffffffffffffffffffffff1660001b6200022660201b60201c565b905092915050565b600080600084815260200190815260200160002060000160008373ffffffffffffffffffffffffffffffffffffffff1673ffffffffffffffffffffffffffffffffffffffff16815260200190815260200160002060009054906101000a900460ff16905092915050565b600033905090565b60006200023a8383620002a060201b60201c565b620002955782600001829080600181540180825580915050600190039060005260206000200160009091909190915055826000018054905083600101600084815260200190815260200160002081905550600190506200029a565b600090505b92915050565b600080836001016000848152602001908152602001600020541415905092915050565b61187180620002d36000396000f3fe608060405234801561001057600080fd5b50600436106100b45760003560e01c8063911098d511610071578063911098d5146101b157806391d14854146101e1578063a217fddf14610211578063ca15c8731461022f578063d547741f1461025f578063ec87621c1461027b576100b4565b806301ffc9a7146100b9578063248a9ca3146100e95780632f2ff15d1461011957806330e8518f1461013557806336568abe146101655780639010d07c14610181575b600080fd5b6100d360048036038101906100ce91906110e5565b610299565b6040516100e0919061112d565b60405180910390f35b61010360048036038101906100fe919061117e565b610313565b60405161011091906111ba565b60405180910390f35b610133600480360381019061012e9190611233565b610332565b005b61014f600480360381019061014a9190611273565b61035b565b60405161015c91906112c2565b60405180910390f35b61017f600480360381019061017a9190611233565b610661565b005b61019b60048036038101906101969190611313565b6106e4565b6040516101a891906112c2565b60405180910390f35b6101cb60048036038101906101c69190611353565b610713565b6040516101d891906112c2565b60405180910390f35b6101fb60048036038101906101f69190611233565b610746565b604051610208919061112d565b60405180910390f35b6102196107b0565b60405161022691906111ba565b60405180910390f35b6102496004803603810190610244919061117e565b6107b7565b604051610256919061138f565b60405180910390f35b61027960048036038101906102749190611233565b6107db565b005b610283610804565b60405161029091906111ba565b60405180910390f35b60007f5a05180f000000000000000000000000000000000000000000000000000000007bffffffffffffffffffffffffffffffffffffffffffffffffffffffff1916827bffffffffffffffffffffffffffffffffffffffffffffffffffffffff1916148061030c575061030b82610938565b5b9050919050565b6000806000838152602001908152602001600020600101549050919050565b61033b82610313565b61034c816103476109b2565b6109ba565b6103568383610a57565b505050565b60007f241ecf16d79d0f8dbfb92cbc07fe17840425976cf0667f022fe9877caa831b0861038f8161038a6109b2565b6109ba565b600073ffffffffffffffffffffffffffffffffffffffff168373ffffffffffffffffffffffffffffffffffffffff16141580156103f857508373ffffffffffffffffffffffffffffffffffffffff168373ffffffffffffffffffffffffffffffffffffffff1614155b801561048f5750600073ffffffffffffffffffffffffffffffffffffffff16600260008673ffffffffffffffffffffffffffffffffffffffff1673ffffffffffffffffffffffffffffffffffffffff16815260200190815260200160002060009054906101000a900473ffffffffffffffffffffffffffffffffffffffff1673ffffffffffffffffffffffffffffffffffffffff16145b801561052657508373ffffffffffffffffffffffffffffffffffffffff16600260008573ffffffffffffffffffffffffffffffffffffffff1673ffffffffffffffffffffffffffffffffffffffff16815260200190815260200160002060009054906101000a900473ffffffffffffffffffffffffffffffffffffffff1673ffffffffffffffffffffffffffffffffffffffff1614155b156105f85782600260008673ffffffffffffffffffffffffffffffffffffffff1673ffffffffffffffffffffffffffffffffffffffff16815260200190815260200160002060006101000a81548173ffffffffffffffffffffffffffffffffffffffff021916908373ffffffffffffffffffffffffffffffffffffffff1602179055508373ffffffffffffffffffffffffffffffffffffffff167faedcbe757d0af5671d08686487d4ddf9c86e82687daf8fd291edfe54b7e9707c846040516105ef91906112c2565b60405180910390a25b600260008573ffffffffffffffffffffffffffffffffffffffff1673ffffffffffffffffffffffffffffffffffffffff16815260200190815260200160002060009054906101000a900473ffffffffffffffffffffffffffffffffffffffff1691505092915050565b6106696109b2565b73ffffffffffffffffffffffffffffffffffffffff168173ffffffffffffffffffffffffffffffffffffffff16146106d6576040517f08c379a00000000000000000000000000000000000000000000000000000000081526004016106cd9061142d565b60405180910390fd5b6106e08282610a8b565b5050565b600061070b8260016000868152602001908152602001600020610abf90919063ffffffff16565b905092915050565b60026020528060005260406000206000915054906101000a900473ffffffffffffffffffffffffffffffffffffffff1681565b600080600084815260200190815260200160002060000160008373ffffffffffffffffffffffffffffffffffffffff1673ffffffffffffffffffffffffffffffffffffffff16815260200190815260200160002060009054906101000a900460ff16905092915050565b6000801b81565b60006107d460016000848152602001908152602001600020610ad9565b9050919050565b6107e482610313565b6107f5816107f06109b2565b6109ba565b6107ff8383610a8b565b505050565b7f241ecf16d79d0f8dbfb92cbc07fe17840425976cf0667f022fe9877caa831b0881565b6108328282610746565b61090457600160008084815260200190815260200160002060000160008373ffffffffffffffffffffffffffffffffffffffff1673ffffffffffffffffffffffffffffffffffffffff16815260200190815260200160002060006101000a81548160ff0219169083151502179055506108a96109b2565b73ffffffffffffffffffffffffffffffffffffffff168173ffffffffffffffffffffffffffffffffffffffff16837f2f8788117e7eff1d82e926ec794901d17c78024a50270940304540a733656f0d60405160405180910390a45b5050565b6000610930836000018373ffffffffffffffffffffffffffffffffffffffff1660001b610aee565b905092915050565b60007f7965db0b000000000000000000000000000000000000000000000000000000007bffffffffffffffffffffffffffffffffffffffffffffffffffffffff1916827bffffffffffffffffffffffffffffffffffffffffffffffffffffffff191614806109ab57506109aa82610b5e565b5b9050919050565b600033905090565b6109c48282610746565b610a53576109e98173ffffffffffffffffffffffffffffffffffffffff166014610bc8565b6109f78360001c6020610bc8565b604051602001610a0892919061155f565b6040516020818303038152906040526040517f08c379a0000000000000000000000000000000000000000000000000000000008152600401610a4a91906115e3565b60405180910390fd5b5050565b610a618282610828565b610a86816001600085815260200190815260200160002061090890919063ffffffff16565b505050565b610a958282610e04565b610aba8160016000858152602001908152602001600020610ee590919063ffffffff16565b505050565b6000610ace8360000183610f15565b60001c905092915050565b6000610ae782600001610f40565b9050919050565b6000610afa8383610f51565b610b53578260000182908060018154018082558091505060019003906000526020600020016000909190919091505582600001805490508360010160008481526020019081526020016000208190555060019050610b58565b600090505b92915050565b60007f01ffc9a7000000000000000000000000000000000000000000000000000000007bffffffffffffffffffffffffffffffffffffffffffffffffffffffff1916827bffffffffffffffffffffffffffffffffffffffffffffffffffffffff1916149050919050565b606060006002836002610bdb9190611634565b610be5919061168e565b67ffffffffffffffff811115610bfe57610bfd6116e4565b5b6040519080825280601f01601f191660200182016040528015610c305781602001600182028036833780820191505090505b5090507f300000000000000000000000000000000000000000000000000000000000000081600081518110610c6857610c67611713565b5b60200101907effffffffffffffffffffffffffffffffffffffffffffffffffffffffffffff1916908160001a9053507f780000000000000000000000000000000000000000000000000000000000000081600181518110610ccc57610ccb611713565b5b60200101907effffffffffffffffffffffffffffffffffffffffffffffffffffffffffffff1916908160001a90535060006001846002610d0c9190611634565b610d16919061168e565b90505b6001811115610db6577f3031323334353637383961626364656600000000000000000000000000000000600f861660108110610d5857610d57611713565b5b1a60f81b828281518110610d6f57610d6e611713565b5b60200101907effffffffffffffffffffffffffffffffffffffffffffffffffffffffffffff1916908160001a905350600485901c945080610daf90611742565b9050610d19565b5060008414610dfa576040517f08c379a0000000000000000000000000000000000000000000000000000000008152600401610df1906117b8565b60405180910390fd5b8091505092915050565b610e0e8282610746565b15610ee157600080600084815260200190815260200160002060000160008373ffffffffffffffffffffffffffffffffffffffff1673ffffffffffffffffffffffffffffffffffffffff16815260200190815260200160002060006101000a81548160ff021916908315150217905550610e866109b2565b73ffffffffffffffffffffffffffffffffffffffff168173ffffffffffffffffffffffffffffffffffffffff16837ff6391f5c32d9c69d2a47ea670b442974b53935d1edc7fd64eb21e047a839171b60405160405180910390a45b5050565b6000610f0d836000018373ffffffffffffffffffffffffffffffffffffffff1660001b610f74565b905092915050565b6000826000018281548110610f2d57610f2c611713565b5b9060005260206000200154905092915050565b600081600001805490509050919050565b600080836001016000848152602001908152602001600020541415905092915050565b6000808360010160008481526020019081526020016000205490506000811461107c576000600182610fa691906117d8565b9050600060018660000180549050610fbe91906117d8565b905081811461102d576000866000018281548110610fdf57610fde611713565b5b906000526020600020015490508087600001848154811061100357611002611713565b5b90600052602060002001819055508387600101600083815260200190815260200160002081905550505b856000018054806110415761104061180c565b5b600190038181906000526020600020016000905590558560010160008681526020019081526020016000206000905560019350505050611082565b60009150505b92915050565b600080fd5b60007fffffffff0000000000000000000000000000000000000000000000000000000082169050919050565b6110c28161108d565b81146110cd57600080fd5b50565b6000813590506110df816110b9565b92915050565b6000602082840312156110fb576110fa611088565b5b6000611109848285016110d0565b91505092915050565b60008115159050919050565b61112781611112565b82525050565b6000602082019050611142600083018461111e565b92915050565b6000819050919050565b61115b81611148565b811461116657600080fd5b50565b60008135905061117881611152565b92915050565b60006020828403121561119457611193611088565b5b60006111a284828501611169565b91505092915050565b6111b481611148565b82525050565b60006020820190506111cf60008301846111ab565b92915050565b600073ffffffffffffffffffffffffffffffffffffffff82169050919050565b6000611200826111d5565b9050919050565b611210816111f5565b811461121b57600080fd5b50565b60008135905061122d81611207565b92915050565b6000806040838503121561124a57611249611088565b5b600061125885828601611169565b92505060206112698582860161121e565b9150509250929050565b6000806040838503121561128a57611289611088565b5b60006112988582860161121e565b92505060206112a98582860161121e565b9150509250929050565b6112bc816111f5565b82525050565b60006020820190506112d760008301846112b3565b92915050565b6000819050919050565b6112f0816112dd565b81146112fb57600080fd5b50565b60008135905061130d816112e7565b92915050565b6000806040838503121561132a57611329611088565b5b600061133885828601611169565b9250506020611349858286016112fe565b9150509250929050565b60006020828403121561136957611368611088565b5b60006113778482850161121e565b91505092915050565b611389816112dd565b82525050565b60006020820190506113a46000830184611380565b92915050565b600082825260208201905092915050565b7f416363657373436f6e74726f6c3a2063616e206f6e6c792072656e6f756e636560008201527f20726f6c657320666f722073656c660000000000000000000000000000000000602082015250565b6000611417602f836113aa565b9150611422826113bb565b604082019050919050565b600060208201905081810360008301526114468161140a565b9050919050565b600081905092915050565b7f416363657373436f6e74726f6c3a206163636f756e7420000000000000000000600082015250565b600061148e60178361144d565b915061149982611458565b601782019050919050565b600081519050919050565b60005b838110156114cd5780820151818401526020810190506114b2565b838111156114dc576000848401525b50505050565b60006114ed826114a4565b6114f7818561144d565b93506115078185602086016114af565b80840191505092915050565b7f206973206d697373696e6720726f6c6520000000000000000000000000000000600082015250565b600061154960118361144d565b915061155482611513565b601182019050919050565b600061156a82611481565b915061157682856114e2565b91506115818261153c565b915061158d82846114e2565b91508190509392505050565b6000601f19601f8301169050919050565b60006115b5826114a4565b6115bf81856113aa565b93506115cf8185602086016114af565b6115d881611599565b840191505092915050565b600060208201905081810360008301526115fd81846115aa565b905092915050565b7f4e487b7100000000000000000000000000000000000000000000000000000000600052601160045260246000fd5b600061163f826112dd565b915061164a836112dd565b9250817fffffffffffffffffffffffffffffffffffffffffffffffffffffffffffffffff048311821515161561168357611682611605565b5b828202905092915050565b6000611699826112dd565b91506116a4836112dd565b9250827fffffffffffffffffffffffffffffffffffffffffffffffffffffffffffffffff038211156116d9576116d8611605565b5b828201905092915050565b7f4e487b7100000000000000000000000000000000000000000000000000000000600052604160045260246000fd5b7f4e487b7100000000000000000000000000000000000000000000000000000000600052603260045260246000fd5b600061174d826112dd565b9150600082141561176157611760611605565b5b600182039050919050565b7f537472696e67733a20686578206c656e67746820696e73756666696369656e74600082015250565b60006117a26020836113aa565b91506117ad8261176c565b602082019050919050565b600060208201905081810360008301526117d181611795565b9050919050565b60006117e3826112dd565b91506117ee836112dd565b92508282101561180157611800611605565b5b828203905092915050565b7f4e487b7100000000000000000000000000000000000000000000000000000000600052603160045260246000fdfea2646970667358221220373fb3ae328e4a4f04930f1e9bf712ffaf236f5ddb33514c1c1456151275067b64736f6c634300080c0033",
  "linkReferences": {},
  "deployedLinkReferences": {}
}