{
  "_format": "hh-sol-artifact-1",
  "contractName": "SN",
  "sourceName": "contracts/token/SN.sol",
  "abi": [
    {
      "inputs": [
        {
          "internalType": "address",
          "name": "manager",
          "type": "address"
        }
      ],
      "stateMutability": "nonpayable",
      "type": "constructor"
    },
    {
      "anonymous": false,
      "inputs": [
        {
          "indexed": true,
          "internalType": "address",
          "name": "owner",
          "type": "address"
        },
        {
          "indexed": true,
          "internalType": "address",
          "name": "approved",
          "type": "address"
        },
        {
          "indexed": true,
          "internalType": "uint256",
          "name": "tokenId",
          "type": "uint256"
        }
      ],
      "name": "Approval",
      "type": "event"
    },
    {
      "anonymous": false,
      "inputs": [
        {
          "indexed": true,
          "internalType": "address",
          "name": "owner",
          "type": "address"
        },
        {
          "indexed": true,
          "internalType": "address",
          "name": "operator",
          "type": "address"
        },
        {
          "indexed": false,
          "internalType": "bool",
          "name": "approved",
          "type": "bool"
        }
      ],
      "name": "ApprovalForAll",
      "type": "event"
    },
    {
      "anonymous": false,
      "inputs": [
        {
          "indexed": true,
          "internalType": "bytes32",
          "name": "role",
          "type": "bytes32"
        },
        {
          "indexed": true,
          "internalType": "bytes32",
          "name": "previousAdminRole",
          "type": "bytes32"
        },
        {
          "indexed": true,
          "internalType": "bytes32",
          "name": "newAdminRole",
          "type": "bytes32"
        }
      ],
      "name": "RoleAdminChanged",
      "type": "event"
    },
    {
      "anonymous": false,
      "inputs": [
        {
          "indexed": true,
          "internalType": "bytes32",
          "name": "role",
          "type": "bytes32"
        },
        {
          "indexed": true,
          "internalType": "address",
          "name": "account",
          "type": "address"
        },
        {
          "indexed": true,
          "internalType": "address",
          "name": "sender",
          "type": "address"
        }
      ],
      "name": "RoleGranted",
      "type": "event"
    },
    {
      "anonymous": false,
      "inputs": [
        {
          "indexed": true,
          "internalType": "bytes32",
          "name": "role",
          "type": "bytes32"
        },
        {
          "indexed": true,
          "internalType": "address",
          "name": "account",
          "type": "address"
        },
        {
          "indexed": true,
          "internalType": "address",
          "name": "sender",
          "type": "address"
        }
      ],
      "name": "RoleRevoked",
      "type": "event"
    },
    {
      "anonymous": false,
      "inputs": [
        {
          "indexed": false,
          "internalType": "string",
          "name": "uri",
          "type": "string"
        }
      ],
      "name": "SetBaseURI",
      "type": "event"
    },
    {
      "anonymous": false,
      "inputs": [
        {
          "indexed": true,
          "internalType": "uint256",
          "name": "snId",
          "type": "uint256"
        },
        {
          "indexed": false,
          "internalType": "string",
          "name": "slot",
          "type": "string"
        },
        {
          "indexed": false,
          "internalType": "uint256",
          "name": "data",
          "type": "uint256"
        }
      ],
      "name": "SetData",
      "type": "event"
    },
    {
      "anonymous": false,
      "inputs": [
        {
          "indexed": true,
          "internalType": "uint256",
          "name": "snId",
          "type": "uint256"
        },
        {
          "indexed": false,
          "internalType": "string",
          "name": "slot",
          "type": "string"
        },
        {
          "indexed": false,
          "internalType": "uint256[]",
          "name": "datas",
          "type": "uint256[]"
        }
      ],
      "name": "SetDatas",
      "type": "event"
    },
    {
      "anonymous": false,
      "inputs": [
        {
          "indexed": true,
          "internalType": "address",
          "name": "to",
          "type": "address"
        },
        {
          "indexed": false,
          "internalType": "uint256",
          "name": "snId",
          "type": "uint256"
        },
        {
          "indexed": false,
          "internalType": "uint256[]",
          "name": "attr",
          "type": "uint256[]"
        }
      ],
      "name": "SpawnSn",
      "type": "event"
    },
    {
      "anonymous": false,
      "inputs": [
        {
          "indexed": true,
          "internalType": "address",
          "name": "from",
          "type": "address"
        },
        {
          "indexed": true,
          "internalType": "address",
          "name": "to",
          "type": "address"
        },
        {
          "indexed": true,
          "internalType": "uint256",
          "name": "tokenId",
          "type": "uint256"
        }
      ],
      "name": "Transfer",
      "type": "event"
    },
    {
      "inputs": [],
      "name": "DEFAULT_ADMIN_ROLE",
      "outputs": [
        {
          "internalType": "bytes32",
          "name": "",
          "type": "bytes32"
        }
      ],
      "stateMutability": "view",
      "type": "function"
    },
    {
      "inputs": [],
      "name": "MANAGER_ROLE",
      "outputs": [
        {
          "internalType": "bytes32",
          "name": "",
          "type": "bytes32"
        }
      ],
      "stateMutability": "view",
      "type": "function"
    },
    {
      "inputs": [],
      "name": "SETTER_ROLE",
      "outputs": [
        {
          "internalType": "bytes32",
          "name": "",
          "type": "bytes32"
        }
      ],
      "stateMutability": "view",
      "type": "function"
    },
    {
      "inputs": [],
      "name": "SPAWNER_ROLE",
      "outputs": [
        {
          "internalType": "bytes32",
          "name": "",
          "type": "bytes32"
        }
      ],
      "stateMutability": "view",
      "type": "function"
    },
    {
      "inputs": [
        {
          "internalType": "address",
          "name": "to",
          "type": "address"
        },
        {
          "internalType": "uint256",
          "name": "tokenId",
          "type": "uint256"
        }
      ],
      "name": "approve",
      "outputs": [],
      "stateMutability": "nonpayable",
      "type": "function"
    },
    {
      "inputs": [
        {
          "internalType": "address",
          "name": "owner",
          "type": "address"
        }
      ],
      "name": "balanceOf",
      "outputs": [
        {
          "internalType": "uint256",
          "name": "",
          "type": "uint256"
        }
      ],
      "stateMutability": "view",
      "type": "function"
    },
    {
      "inputs": [],
      "name": "baseURI",
      "outputs": [
        {
          "internalType": "string",
          "name": "",
          "type": "string"
        }
      ],
      "stateMutability": "view",
      "type": "function"
    },
    {
      "inputs": [
        {
          "internalType": "uint256",
          "name": "",
          "type": "uint256"
        },
        {
          "internalType": "string",
          "name": "",
          "type": "string"
        }
      ],
      "name": "data",
      "outputs": [
        {
          "internalType": "uint256",
          "name": "",
          "type": "uint256"
        }
      ],
      "stateMutability": "view",
      "type": "function"
    },
    {
      "inputs": [
        {
          "internalType": "uint256",
          "name": "",
          "type": "uint256"
        },
        {
          "internalType": "string",
          "name": "",
          "type": "string"
        },
        {
          "internalType": "uint256",
          "name": "",
          "type": "uint256"
        }
      ],
      "name": "datas",
      "outputs": [
        {
          "internalType": "uint256",
          "name": "",
          "type": "uint256"
        }
      ],
      "stateMutability": "view",
      "type": "function"
    },
    {
      "inputs": [
        {
          "internalType": "uint256",
          "name": "tokenId",
          "type": "uint256"
        }
      ],
      "name": "getApproved",
      "outputs": [
        {
          "internalType": "address",
          "name": "",
          "type": "address"
        }
      ],
      "stateMutability": "view",
      "type": "function"
    },
    {
      "inputs": [
        {
          "internalType": "uint256",
          "name": "snId",
          "type": "uint256"
        },
        {
          "internalType": "string",
          "name": "slot",
          "type": "string"
        }
      ],
      "name": "getDatas",
      "outputs": [
        {
          "internalType": "uint256[]",
          "name": "",
          "type": "uint256[]"
        }
      ],
      "stateMutability": "view",
      "type": "function"
    },
    {
      "inputs": [
        {
          "internalType": "uint256",
          "name": "snId",
          "type": "uint256"
        },
        {
          "internalType": "string",
          "name": "slot",
          "type": "string"
        },
        {
          "internalType": "uint256",
          "name": "base",
          "type": "uint256"
        },
        {
          "internalType": "uint256",
          "name": "range",
          "type": "uint256"
        }
      ],
      "name": "getRandomNumber",
      "outputs": [
        {
          "internalType": "uint256",
          "name": "",
          "type": "uint256"
        }
      ],
      "stateMutability": "pure",
      "type": "function"
    },
    {
      "inputs": [
        {
          "internalType": "bytes32",
          "name": "role",
          "type": "bytes32"
        }
      ],
      "name": "getRoleAdmin",
      "outputs": [
        {
          "internalType": "bytes32",
          "name": "",
          "type": "bytes32"
        }
      ],
      "stateMutability": "view",
      "type": "function"
    },
    {
      "inputs": [
        {
          "internalType": "bytes32",
          "name": "role",
          "type": "bytes32"
        },
        {
          "internalType": "uint256",
          "name": "index",
          "type": "uint256"
        }
      ],
      "name": "getRoleMember",
      "outputs": [
        {
          "internalType": "address",
          "name": "",
          "type": "address"
        }
      ],
      "stateMutability": "view",
      "type": "function"
    },
    {
      "inputs": [
        {
          "internalType": "bytes32",
          "name": "role",
          "type": "bytes32"
        }
      ],
      "name": "getRoleMemberCount",
      "outputs": [
        {
          "internalType": "uint256",
          "name": "",
          "type": "uint256"
        }
      ],
      "stateMutability": "view",
      "type": "function"
    },
    {
      "inputs": [
        {
          "internalType": "bytes32",
          "name": "role",
          "type": "bytes32"
        },
        {
          "internalType": "address",
          "name": "account",
          "type": "address"
        }
      ],
      "name": "grantRole",
      "outputs": [],
      "stateMutability": "nonpayable",
      "type": "function"
    },
    {
      "inputs": [
        {
          "internalType": "bytes32",
          "name": "role",
          "type": "bytes32"
        },
        {
          "internalType": "address",
          "name": "account",
          "type": "address"
        }
      ],
      "name": "hasRole",
      "outputs": [
        {
          "internalType": "bool",
          "name": "",
          "type": "bool"
        }
      ],
      "stateMutability": "view",
      "type": "function"
    },
    {
      "inputs": [
        {
          "internalType": "address",
          "name": "owner",
          "type": "address"
        },
        {
          "internalType": "address",
          "name": "operator",
          "type": "address"
        }
      ],
      "name": "isApprovedForAll",
      "outputs": [
        {
          "internalType": "bool",
          "name": "",
          "type": "bool"
        }
      ],
      "stateMutability": "view",
      "type": "function"
    },
    {
      "inputs": [],
      "name": "name",
      "outputs": [
        {
          "internalType": "string",
          "name": "",
          "type": "string"
        }
      ],
      "stateMutability": "view",
      "type": "function"
    },
    {
      "inputs": [
        {
          "internalType": "uint256",
          "name": "tokenId",
          "type": "uint256"
        }
      ],
      "name": "ownerOf",
      "outputs": [
        {
          "internalType": "address",
          "name": "",
          "type": "address"
        }
      ],
      "stateMutability": "view",
      "type": "function"
    },
    {
      "inputs": [
        {
          "internalType": "bytes32",
          "name": "role",
          "type": "bytes32"
        },
        {
          "internalType": "address",
          "name": "account",
          "type": "address"
        }
      ],
      "name": "renounceRole",
      "outputs": [],
      "stateMutability": "nonpayable",
      "type": "function"
    },
    {
      "inputs": [
        {
          "internalType": "bytes32",
          "name": "role",
          "type": "bytes32"
        },
        {
          "internalType": "address",
          "name": "account",
          "type": "address"
        }
      ],
      "name": "revokeRole",
      "outputs": [],
      "stateMutability": "nonpayable",
      "type": "function"
    },
    {
      "inputs": [
        {
          "internalType": "address",
          "name": "from",
          "type": "address"
        },
        {
          "internalType": "address",
          "name": "to",
          "type": "address"
        },
        {
          "internalType": "uint256",
          "name": "tokenId",
          "type": "uint256"
        }
      ],
      "name": "safeTransferFrom",
      "outputs": [],
      "stateMutability": "nonpayable",
      "type": "function"
    },
    {
      "inputs": [
        {
          "internalType": "address",
          "name": "from",
          "type": "address"
        },
        {
          "internalType": "address",
          "name": "to",
          "type": "address"
        },
        {
          "internalType": "uint256",
          "name": "tokenId",
          "type": "uint256"
        },
        {
          "internalType": "bytes",
          "name": "_data",
          "type": "bytes"
        }
      ],
      "name": "safeTransferFrom",
      "outputs": [],
      "stateMutability": "nonpayable",
      "type": "function"
    },
    {
      "inputs": [
        {
          "internalType": "address",
          "name": "from",
          "type": "address"
        },
        {
          "internalType": "address",
          "name": "to",
          "type": "address"
        },
        {
          "internalType": "uint256[]",
          "name": "tokenIds",
          "type": "uint256[]"
        }
      ],
      "name": "safeTransferFromBatch",
      "outputs": [],
      "stateMutability": "nonpayable",
      "type": "function"
    },
    {
      "inputs": [
        {
          "internalType": "address",
          "name": "operator",
          "type": "address"
        },
        {
          "internalType": "bool",
          "name": "approved",
          "type": "bool"
        }
      ],
      "name": "setApprovalForAll",
      "outputs": [],
      "stateMutability": "nonpayable",
      "type": "function"
    },
    {
      "inputs": [
        {
          "internalType": "string",
          "name": "uri",
          "type": "string"
        }
      ],
      "name": "setBaseURI",
      "outputs": [],
      "stateMutability": "nonpayable",
      "type": "function"
    },
    {
      "inputs": [
        {
          "internalType": "uint256",
          "name": "snId",
          "type": "uint256"
        },
        {
          "internalType": "string",
          "name": "slot",
          "type": "string"
        },
        {
          "internalType": "uint256",
          "name": "_data",
          "type": "uint256"
        }
      ],
      "name": "setData",
      "outputs": [],
      "stateMutability": "nonpayable",
      "type": "function"
    },
    {
      "inputs": [
        {
          "internalType": "uint256",
          "name": "snId",
          "type": "uint256"
        },
        {
          "internalType": "string",
          "name": "slot",
          "type": "string"
        },
        {
          "internalType": "uint256[]",
          "name": "_datas",
          "type": "uint256[]"
        }
      ],
      "name": "setDatas",
      "outputs": [],
      "stateMutability": "nonpayable",
      "type": "function"
    },
    {
      "inputs": [
        {
          "internalType": "uint256[]",
          "name": "attr",
          "type": "uint256[]"
        },
        {
          "internalType": "address",
          "name": "to",
          "type": "address"
        }
      ],
      "name": "spawnSn",
      "outputs": [
        {
          "internalType": "uint256",
          "name": "",
          "type": "uint256"
        }
      ],
      "stateMutability": "nonpayable",
      "type": "function"
    },
    {
      "inputs": [
        {
          "internalType": "bytes4",
          "name": "interfaceId",
          "type": "bytes4"
        }
      ],
      "name": "supportsInterface",
      "outputs": [
        {
          "internalType": "bool",
          "name": "",
          "type": "bool"
        }
      ],
      "stateMutability": "view",
      "type": "function"
    },
    {
      "inputs": [],
      "name": "symbol",
      "outputs": [
        {
          "internalType": "string",
          "name": "",
          "type": "string"
        }
      ],
      "stateMutability": "view",
      "type": "function"
    },
    {
      "inputs": [
        {
          "internalType": "uint256",
          "name": "index",
          "type": "uint256"
        }
      ],
      "name": "tokenByIndex",
      "outputs": [
        {
          "internalType": "uint256",
          "name": "",
          "type": "uint256"
        }
      ],
      "stateMutability": "view",
      "type": "function"
    },
    {
      "inputs": [
        {
          "internalType": "address",
          "name": "owner",
          "type": "address"
        },
        {
          "internalType": "uint256",
          "name": "index",
          "type": "uint256"
        }
      ],
      "name": "tokenOfOwnerByIndex",
      "outputs": [
        {
          "internalType": "uint256",
          "name": "",
          "type": "uint256"
        }
      ],
      "stateMutability": "view",
      "type": "function"
    },
    {
      "inputs": [
        {
          "internalType": "uint256",
          "name": "tokenId",
          "type": "uint256"
        }
      ],
      "name": "tokenURI",
      "outputs": [
        {
          "internalType": "string",
          "name": "",
          "type": "string"
        }
      ],
      "stateMutability": "view",
      "type": "function"
    },
    {
      "inputs": [
        {
          "internalType": "address",
          "name": "user",
          "type": "address"
        },
        {
          "internalType": "uint256",
          "name": "cursor",
          "type": "uint256"
        },
        {
          "internalType": "uint256",
          "name": "size",
          "type": "uint256"
        }
      ],
      "name": "tokensOfOwnerBySize",
      "outputs": [
        {
          "internalType": "uint256[]",
          "name": "",
          "type": "uint256[]"
        },
        {
          "internalType": "uint256",
          "name": "",
          "type": "uint256"
        }
      ],
      "stateMutability": "view",
      "type": "function"
    },
    {
      "inputs": [],
      "name": "totalSupply",
      "outputs": [
        {
          "internalType": "uint256",
          "name": "",
          "type": "uint256"
        }
      ],
      "stateMutability": "view",
      "type": "function"
    },
    {
      "inputs": [
        {
          "internalType": "address",
          "name": "from",
          "type": "address"
        },
        {
          "internalType": "address",
          "name": "to",
          "type": "address"
        },
        {
          "internalType": "uint256",
          "name": "tokenId",
          "type": "uint256"
        }
      ],
      "name": "transferFrom",
      "outputs": [],
      "stateMutability": "nonpayable",
      "type": "function"
    }
  ],
  "bytecode": "0x60806040523480156200001157600080fd5b506040516200572c3803806200572c8339818101604052810190620000379190620004d7565b6040518060400160405280601081526020017f536163726564205265616c6d204e4654000000000000000000000000000000008152506040518060400160405280600281526020017f534e0000000000000000000000000000000000000000000000000000000000008152508160009080519060200190620000bb929190620003bd565b508060019080519060200190620000d4929190620003bd565b505050620000ec6000801b336200012560201b60201c565b6200011e7f241ecf16d79d0f8dbfb92cbc07fe17840425976cf0667f022fe9877caa831b08826200012560201b60201c565b506200056e565b6200013782826200013b60201b60201c565b5050565b6200015282826200018360201b620018ca1760201c565b6200017e81600b60008581526020019081526020016000206200027560201b620019ab1790919060201c565b505050565b620001958282620002ad60201b60201c565b62000271576001600a600084815260200190815260200160002060000160008373ffffffffffffffffffffffffffffffffffffffff1673ffffffffffffffffffffffffffffffffffffffff16815260200190815260200160002060006101000a81548160ff021916908315150217905550620002166200031860201b60201c565b73ffffffffffffffffffffffffffffffffffffffff168173ffffffffffffffffffffffffffffffffffffffff16837f2f8788117e7eff1d82e926ec794901d17c78024a50270940304540a733656f0d60405160405180910390a45b5050565b6000620002a5836000018373ffffffffffffffffffffffffffffffffffffffff1660001b6200032060201b60201c565b905092915050565b6000600a600084815260200190815260200160002060000160008373ffffffffffffffffffffffffffffffffffffffff1673ffffffffffffffffffffffffffffffffffffffff16815260200190815260200160002060009054906101000a900460ff16905092915050565b600033905090565b60006200033483836200039a60201b60201c565b6200038f57826000018290806001815401808255809150506001900390600052602060002001600090919091909150558260000180549050836001016000848152602001908152602001600020819055506001905062000394565b600090505b92915050565b600080836001016000848152602001908152602001600020541415905092915050565b828054620003cb9062000538565b90600052602060002090601f016020900481019282620003ef57600085556200043b565b82601f106200040a57805160ff19168380011785556200043b565b828001600101855582156200043b579182015b828111156200043a5782518255916020019190600101906200041d565b5b5090506200044a91906200044e565b5090565b5b80821115620004695760008160009055506001016200044f565b5090565b600080fd5b600073ffffffffffffffffffffffffffffffffffffffff82169050919050565b60006200049f8262000472565b9050919050565b620004b18162000492565b8114620004bd57600080fd5b50565b600081519050620004d181620004a6565b92915050565b600060208284031215620004f057620004ef6200046d565b5b60006200050084828501620004c0565b91505092915050565b7f4e487b7100000000000000000000000000000000000000000000000000000000600052602260045260246000fd5b600060028204905060018216806200055157607f821691505b6020821081141562000568576200056762000509565b5b50919050565b6151ae806200057e6000396000f3fe608060405234801561001057600080fd5b50600436106102325760003560e01c80636c0360eb11610130578063a22cb465116100b8578063d547741f1161007c578063d547741f14610734578063e985e9c514610750578063ec87621c14610780578063f54a867e1461079e578063fd577d0b146107ba57610232565b8063a22cb46514610680578063b88d4fde1461069c578063c1200e8f146106b8578063c87b56dd146106d4578063ca15c8731461070457610232565b806391d14854116100ff57806391d14854146105c657806391fd28af146105f657806395d89b4114610626578063a2011b3f14610644578063a217fddf1461066257610232565b80636c0360eb1461051757806370a0823114610535578063854ec1af146105655780639010d07c1461059657610232565b80632bc00dac116101be57806342842e0e1161018257806342842e0e1461044f5780634f6ccce71461046b57806355f804b31461049b57806357b0c99f146104b75780636352211e146104e757610232565b80632bc00dac1461039b5780632f2ff15d146103cb5780632f745c59146103e757806336568abe1461041757806338aa38151461043357610232565b8063095ea7b311610205578063095ea7b3146102e557806318160ddd1461030157806323b872dd1461031f578063248a9ca31461033b578063251d13ba1461036b57610232565b806301ffc9a71461023757806306fdde0314610267578063081812fc14610285578063090a0eae146102b5575b600080fd5b610251600480360381019061024c9190613414565b6107d8565b60405161025e919061345c565b60405180910390f35b61026f6107ea565b60405161027c9190613510565b60405180910390f35b61029f600480360381019061029a9190613568565b61087c565b6040516102ac91906135d6565b60405180910390f35b6102cf60048036038101906102ca9190613726565b610901565b6040516102dc9190613791565b60405180910390f35b6102ff60048036038101906102fa91906137d8565b61093c565b005b610309610a54565b6040516103169190613791565b60405180910390f35b61033960048036038101906103349190613818565b610a61565b005b610355600480360381019061035091906138a1565b610ac1565b60405161036291906138dd565b60405180910390f35b610385600480360381019061038091906138f8565b610ae1565b6040516103929190613791565b60405180910390f35b6103b560048036038101906103b09190613a2f565b610b35565b6040516103c29190613791565b60405180910390f35b6103e560048036038101906103e09190613a8b565b610c1c565b005b61040160048036038101906103fc91906137d8565b610c45565b60405161040e9190613791565b60405180910390f35b610431600480360381019061042c9190613a8b565b610cea565b005b61044d60048036038101906104489190613acb565b610d6d565b005b61046960048036038101906104649190613818565b610db7565b005b61048560048036038101906104809190613568565b610dd7565b6040516104929190613791565b60405180910390f35b6104b560048036038101906104b09190613b3a565b610e48565b005b6104d160048036038101906104cc9190613726565b610ecc565b6040516104de9190613c41565b60405180910390f35b61050160048036038101906104fc9190613568565b610f54565b60405161050e91906135d6565b60405180910390f35b61051f611006565b60405161052c9190613510565b60405180910390f35b61054f600480360381019061054a9190613c63565b611094565b60405161055c9190613791565b60405180910390f35b61057f600480360381019061057a9190613c90565b61114c565b60405161058d929190613ce3565b60405180910390f35b6105b060048036038101906105ab9190613d13565b611241565b6040516105bd91906135d6565b60405180910390f35b6105e060048036038101906105db9190613a8b565b611270565b6040516105ed919061345c565b60405180910390f35b610610600480360381019061060b9190613d53565b6112db565b60405161061d9190613791565b60405180910390f35b61062e61132e565b60405161063b9190613510565b60405180910390f35b61064c6113c0565b60405161065991906138dd565b60405180910390f35b61066a6113e4565b60405161067791906138dd565b60405180910390f35b61069a60048036038101906106959190613e02565b6113eb565b005b6106b660048036038101906106b19190613ee3565b611401565b005b6106d260048036038101906106cd9190613f66565b611463565b005b6106ee60048036038101906106e99190613568565b611519565b6040516106fb9190613510565b60405180910390f35b61071e600480360381019061071991906138a1565b6116fb565b60405161072b9190613791565b60405180910390f35b61074e60048036038101906107499190613a8b565b61171f565b005b61076a60048036038101906107659190613ff1565b611748565b604051610777919061345c565b60405180910390f35b6107886117dc565b60405161079591906138dd565b60405180910390f35b6107b860048036038101906107b391906138f8565b611800565b005b6107c26118a6565b6040516107cf91906138dd565b60405180910390f35b60006107e3826119db565b9050919050565b6060600080546107f990614060565b80601f016020809104026020016040519081016040528092919081815260200182805461082590614060565b80156108725780601f1061084757610100808354040283529160200191610872565b820191906000526020600020905b81548152906001019060200180831161085557829003601f168201915b5050505050905090565b600061088782611a55565b6108c6576040517f08c379a00000000000000000000000000000000000000000000000000000000081526004016108bd90614104565b60405180910390fd5b6004600083815260200190815260200160002060009054906101000a900473ffffffffffffffffffffffffffffffffffffffff169050919050565b600d60205281600052604060002081805160208101820180518482526020830160208501208183528095505050505050600091509150505481565b600061094782610f54565b90508073ffffffffffffffffffffffffffffffffffffffff168373ffffffffffffffffffffffffffffffffffffffff1614156109b8576040517f08c379a00000000000000000000000000000000000000000000000000000000081526004016109af90614196565b60405180910390fd5b8073ffffffffffffffffffffffffffffffffffffffff166109d7611ac1565b73ffffffffffffffffffffffffffffffffffffffff161480610a065750610a0581610a00611ac1565b611748565b5b610a45576040517f08c379a0000000000000000000000000000000000000000000000000000000008152600401610a3c90614228565b60405180910390fd5b610a4f8383611ac9565b505050565b6000600880549050905090565b610a72610a6c611ac1565b82611b82565b610ab1576040517f08c379a0000000000000000000000000000000000000000000000000000000008152600401610aa8906142ba565b60405180910390fd5b610abc838383611c60565b505050565b6000600a6000838152602001908152602001600020600101549050919050565b600e602052826000526040600020828051602081018201805184825260208301602085012081835280955050505050508181548110610b1f57600080fd5b9060005260206000200160009250925050505481565b60007f6cd0800d4f4ba3dc6faecb926dc1f046e4172cd4d0318c3b8740bdce16fe8d52610b6981610b64611ac1565b611ec7565b6000610b73610a54565b905084600e6000838152602001908152602001600020604051610b9590614331565b90815260200160405180910390209080519060200190610bb69291906132b8565b50610bc18482611f64565b8373ffffffffffffffffffffffffffffffffffffffff167fe7d3c51dde4688ae8d2c25fb427110a0f6e6d00528d77943b398662e3072d9428287604051610c09929190614346565b60405180910390a2809250505092915050565b610c2582610ac1565b610c3681610c31611ac1565b611ec7565b610c408383611f82565b505050565b6000610c5083611094565b8210610c91576040517f08c379a0000000000000000000000000000000000000000000000000000000008152600401610c88906143e8565b60405180910390fd5b600660008473ffffffffffffffffffffffffffffffffffffffff1673ffffffffffffffffffffffffffffffffffffffff168152602001908152602001600020600083815260200190815260200160002054905092915050565b610cf2611ac1565b73ffffffffffffffffffffffffffffffffffffffff168173ffffffffffffffffffffffffffffffffffffffff1614610d5f576040517f08c379a0000000000000000000000000000000000000000000000000000000008152600401610d569061447a565b60405180910390fd5b610d698282611fb6565b5050565b60005b8151811015610db157610d9e8484848481518110610d9157610d9061449a565b5b6020026020010151610db7565b8080610da9906144f8565b915050610d70565b50505050565b610dd283838360405180602001604052806000815250611401565b505050565b6000610de1610a54565b8210610e22576040517f08c379a0000000000000000000000000000000000000000000000000000000008152600401610e19906145b3565b60405180910390fd5b60088281548110610e3657610e3561449a565b5b90600052602060002001549050919050565b7f241ecf16d79d0f8dbfb92cbc07fe17840425976cf0667f022fe9877caa831b08610e7a81610e75611ac1565b611ec7565b81600c9080519060200190610e90929190613305565b507f23c8c9488efebfd474e85a7956de6f39b17c7ab88502d42a623db2d8e382bbaa82604051610ec09190613510565b60405180910390a15050565b6060600e600084815260200190815260200160002082604051610eef9190614604565b9081526020016040518091039020805480602002602001604051908101604052809291908181526020018280548015610f4757602002820191906000526020600020905b815481526020019060010190808311610f33575b5050505050905092915050565b6000806002600084815260200190815260200160002060009054906101000a900473ffffffffffffffffffffffffffffffffffffffff169050600073ffffffffffffffffffffffffffffffffffffffff168173ffffffffffffffffffffffffffffffffffffffff161415610ffd576040517f08c379a0000000000000000000000000000000000000000000000000000000008152600401610ff49061468d565b60405180910390fd5b80915050919050565b600c805461101390614060565b80601f016020809104026020016040519081016040528092919081815260200182805461103f90614060565b801561108c5780601f106110615761010080835404028352916020019161108c565b820191906000526020600020905b81548152906001019060200180831161106f57829003601f168201915b505050505081565b60008073ffffffffffffffffffffffffffffffffffffffff168273ffffffffffffffffffffffffffffffffffffffff161415611105576040517f08c379a00000000000000000000000000000000000000000000000000000000081526004016110fc9061471f565b60405180910390fd5b600360008373ffffffffffffffffffffffffffffffffffffffff1673ffffffffffffffffffffffffffffffffffffffff168152602001908152602001600020549050919050565b60606000808390508461115e87611094565b611168919061473f565b811115611186578461117987611094565b611183919061473f565b90505b60008167ffffffffffffffff8111156111a2576111a16135fb565b5b6040519080825280602002602001820160405280156111d05781602001602082028036833780820191505090505b50905060005b82811015611225576111f38882896111ee9190614773565b610c45565b8282815181106112065761120561449a565b5b602002602001018181525050808061121d906144f8565b9150506111d6565b508082876112339190614773565b935093505050935093915050565b600061126882600b6000868152602001908152602001600020611fea90919063ffffffff16565b905092915050565b6000600a600084815260200190815260200160002060000160008373ffffffffffffffffffffffffffffffffffffffff1673ffffffffffffffffffffffffffffffffffffffff16815260200190815260200160002060009054906101000a900460ff16905092915050565b60008085856040516020016112f19291906147ea565b6040516020818303038152906040528051906020012060001c905082816113189190614841565b846113239190614773565b915050949350505050565b60606001805461133d90614060565b80601f016020809104026020016040519081016040528092919081815260200182805461136990614060565b80156113b65780601f1061138b576101008083540402835291602001916113b6565b820191906000526020600020905b81548152906001019060200180831161139957829003601f168201915b5050505050905090565b7f61c92169ef077349011ff0b1383c894d86c5f0b41d986366b58a6cf31e93beda81565b6000801b81565b6113fd6113f6611ac1565b8383612004565b5050565b61141261140c611ac1565b83611b82565b611451576040517f08c379a0000000000000000000000000000000000000000000000000000000008152600401611448906142ba565b60405180910390fd5b61145d84848484612171565b50505050565b7f61c92169ef077349011ff0b1383c894d86c5f0b41d986366b58a6cf31e93beda61149581611490611ac1565b611ec7565b81600e6000868152602001908152602001600020846040516114b79190614604565b908152602001604051809103902090805190602001906114d89291906132b8565b50837faf34a1a89164056fa5ddfee9bdd7384e79b0f27a493cc80c478d9068ea15c612848460405161150b929190614872565b60405180910390a250505050565b606061152482611a55565b611563576040517f08c379a000000000000000000000000000000000000000000000000000000000815260040161155a9061491b565b60405180910390fd5b6000600e600084815260200190815260200160002060405161158490614331565b90815260200160405180910390208054806020026020016040519081016040528092919081815260200182805480156115dc57602002820191906000526020600020905b8154815260200190600101908083116115c8575b505050505090506000600c80546115f290614060565b90501161160e57604051806020016040528060008152506116f3565b600c611619846121cd565b61163d836000815181106116305761162f61449a565b5b60200260200101516121cd565b611661846001815181106116545761165361449a565b5b60200260200101516121cd565b611685856002815181106116785761167761449a565b5b60200260200101516121cd565b6116a98660038151811061169c5761169b61449a565b5b60200260200101516121cd565b6116cd876004815181106116c0576116bf61449a565b5b60200260200101516121cd565b6040516020016116e39796959493929190614a1b565b6040516020818303038152906040525b915050919050565b6000611718600b600084815260200190815260200160002061232e565b9050919050565b61172882610ac1565b61173981611734611ac1565b611ec7565b6117438383611fb6565b505050565b6000600560008473ffffffffffffffffffffffffffffffffffffffff1673ffffffffffffffffffffffffffffffffffffffff16815260200190815260200160002060008373ffffffffffffffffffffffffffffffffffffffff1673ffffffffffffffffffffffffffffffffffffffff16815260200190815260200160002060009054906101000a900460ff16905092915050565b7f241ecf16d79d0f8dbfb92cbc07fe17840425976cf0667f022fe9877caa831b0881565b7f61c92169ef077349011ff0b1383c894d86c5f0b41d986366b58a6cf31e93beda6118328161182d611ac1565b611ec7565b81600d6000868152602001908152602001600020846040516118549190614604565b908152602001604051809103902081905550837feac7fa0927090dca3b0cce570fa0e4b428cbd28ba251bcd0d9d33d629a2936be8484604051611898929190614ab7565b60405180910390a250505050565b7f6cd0800d4f4ba3dc6faecb926dc1f046e4172cd4d0318c3b8740bdce16fe8d5281565b6118d48282611270565b6119a7576001600a600084815260200190815260200160002060000160008373ffffffffffffffffffffffffffffffffffffffff1673ffffffffffffffffffffffffffffffffffffffff16815260200190815260200160002060006101000a81548160ff02191690831515021790555061194c611ac1565b73ffffffffffffffffffffffffffffffffffffffff168173ffffffffffffffffffffffffffffffffffffffff16837f2f8788117e7eff1d82e926ec794901d17c78024a50270940304540a733656f0d60405160405180910390a45b5050565b60006119d3836000018373ffffffffffffffffffffffffffffffffffffffff1660001b612343565b905092915050565b60007f5a05180f000000000000000000000000000000000000000000000000000000007bffffffffffffffffffffffffffffffffffffffffffffffffffffffff1916827bffffffffffffffffffffffffffffffffffffffffffffffffffffffff19161480611a4e5750611a4d826123b3565b5b9050919050565b60008073ffffffffffffffffffffffffffffffffffffffff166002600084815260200190815260200160002060009054906101000a900473ffffffffffffffffffffffffffffffffffffffff1673ffffffffffffffffffffffffffffffffffffffff1614159050919050565b600033905090565b816004600083815260200190815260200160002060006101000a81548173ffffffffffffffffffffffffffffffffffffffff021916908373ffffffffffffffffffffffffffffffffffffffff160217905550808273ffffffffffffffffffffffffffffffffffffffff16611b3c83610f54565b73ffffffffffffffffffffffffffffffffffffffff167f8c5be1e5ebec7d5bd14f71427d1e84f3dd0314c0f7b2291e5b200ac8c7c3b92560405160405180910390a45050565b6000611b8d82611a55565b611bcc576040517f08c379a0000000000000000000000000000000000000000000000000000000008152600401611bc390614b59565b60405180910390fd5b6000611bd783610f54565b90508073ffffffffffffffffffffffffffffffffffffffff168473ffffffffffffffffffffffffffffffffffffffff161480611c4657508373ffffffffffffffffffffffffffffffffffffffff16611c2e8461087c565b73ffffffffffffffffffffffffffffffffffffffff16145b80611c575750611c568185611748565b5b91505092915050565b8273ffffffffffffffffffffffffffffffffffffffff16611c8082610f54565b73ffffffffffffffffffffffffffffffffffffffff1614611cd6576040517f08c379a0000000000000000000000000000000000000000000000000000000008152600401611ccd90614beb565b60405180910390fd5b600073ffffffffffffffffffffffffffffffffffffffff168273ffffffffffffffffffffffffffffffffffffffff161415611d46576040517f08c379a0000000000000000000000000000000000000000000000000000000008152600401611d3d90614c7d565b60405180910390fd5b611d5183838361242d565b611d5c600082611ac9565b6001600360008573ffffffffffffffffffffffffffffffffffffffff1673ffffffffffffffffffffffffffffffffffffffff1681526020019081526020016000206000828254611dac919061473f565b925050819055506001600360008473ffffffffffffffffffffffffffffffffffffffff1673ffffffffffffffffffffffffffffffffffffffff1681526020019081526020016000206000828254611e039190614773565b92505081905550816002600083815260200190815260200160002060006101000a81548173ffffffffffffffffffffffffffffffffffffffff021916908373ffffffffffffffffffffffffffffffffffffffff160217905550808273ffffffffffffffffffffffffffffffffffffffff168473ffffffffffffffffffffffffffffffffffffffff167fddf252ad1be2c89b69c2b068fc378daa952ba7f163c4a11628f55a4df523b3ef60405160405180910390a4611ec2838383612541565b505050565b611ed18282611270565b611f6057611ef68173ffffffffffffffffffffffffffffffffffffffff166014612546565b611f048360001c6020612546565b604051602001611f15929190614d35565b6040516020818303038152906040526040517f08c379a0000000000000000000000000000000000000000000000000000000008152600401611f579190613510565b60405180910390fd5b5050565b611f7e828260405180602001604052806000815250612782565b5050565b611f8c82826118ca565b611fb181600b60008581526020019081526020016000206119ab90919063ffffffff16565b505050565b611fc082826127dd565b611fe581600b60008581526020019081526020016000206128bf90919063ffffffff16565b505050565b6000611ff983600001836128ef565b60001c905092915050565b8173ffffffffffffffffffffffffffffffffffffffff168373ffffffffffffffffffffffffffffffffffffffff161415612073576040517f08c379a000000000000000000000000000000000000000000000000000000000815260040161206a90614dbb565b60405180910390fd5b80600560008573ffffffffffffffffffffffffffffffffffffffff1673ffffffffffffffffffffffffffffffffffffffff16815260200190815260200160002060008473ffffffffffffffffffffffffffffffffffffffff1673ffffffffffffffffffffffffffffffffffffffff16815260200190815260200160002060006101000a81548160ff0219169083151502179055508173ffffffffffffffffffffffffffffffffffffffff168373ffffffffffffffffffffffffffffffffffffffff167f17307eab39ab6107e8899845ad3d59bd9653f200f220920489ca2b5937696c3183604051612164919061345c565b60405180910390a3505050565b61217c848484611c60565b6121888484848461291a565b6121c7576040517f08c379a00000000000000000000000000000000000000000000000000000000081526004016121be90614e4d565b60405180910390fd5b50505050565b60606000821415612215576040518060400160405280600181526020017f30000000000000000000000000000000000000000000000000000000000000008152509050612329565b600082905060005b60008214612247578080612230906144f8565b915050600a826122409190614e6d565b915061221d565b60008167ffffffffffffffff811115612263576122626135fb565b5b6040519080825280601f01601f1916602001820160405280156122955781602001600182028036833780820191505090505b5090505b60008514612322576001826122ae919061473f565b9150600a856122bd9190614841565b60306122c99190614773565b60f81b8183815181106122df576122de61449a565b5b60200101907effffffffffffffffffffffffffffffffffffffffffffffffffffffffffffff1916908160001a905350600a8561231b9190614e6d565b9450612299565b8093505050505b919050565b600061233c82600001612aa2565b9050919050565b600061234f8383612ab3565b6123a85782600001829080600181540180825580915050600190039060005260206000200160009091909190915055826000018054905083600101600084815260200190815260200160002081905550600190506123ad565b600090505b92915050565b60007f7965db0b000000000000000000000000000000000000000000000000000000007bffffffffffffffffffffffffffffffffffffffffffffffffffffffff1916827bffffffffffffffffffffffffffffffffffffffffffffffffffffffff19161480612426575061242582612ad6565b5b9050919050565b612438838383612b50565b600073ffffffffffffffffffffffffffffffffffffffff168373ffffffffffffffffffffffffffffffffffffffff16141561247b5761247681612b55565b6124ba565b8173ffffffffffffffffffffffffffffffffffffffff168373ffffffffffffffffffffffffffffffffffffffff16146124b9576124b88382612b9e565b5b5b600073ffffffffffffffffffffffffffffffffffffffff168273ffffffffffffffffffffffffffffffffffffffff1614156124fd576124f881612d0b565b61253c565b8273ffffffffffffffffffffffffffffffffffffffff168273ffffffffffffffffffffffffffffffffffffffff161461253b5761253a8282612ddc565b5b5b505050565b505050565b6060600060028360026125599190614e9e565b6125639190614773565b67ffffffffffffffff81111561257c5761257b6135fb565b5b6040519080825280601f01601f1916602001820160405280156125ae5781602001600182028036833780820191505090505b5090507f3000000000000000000000000000000000000000000000000000000000000000816000815181106125e6576125e561449a565b5b60200101907effffffffffffffffffffffffffffffffffffffffffffffffffffffffffffff1916908160001a9053507f78000000000000000000000000000000000000000000000000000000000000008160018151811061264a5761264961449a565b5b60200101907effffffffffffffffffffffffffffffffffffffffffffffffffffffffffffff1916908160001a9053506000600184600261268a9190614e9e565b6126949190614773565b90505b6001811115612734577f3031323334353637383961626364656600000000000000000000000000000000600f8616601081106126d6576126d561449a565b5b1a60f81b8282815181106126ed576126ec61449a565b5b60200101907effffffffffffffffffffffffffffffffffffffffffffffffffffffffffffff1916908160001a905350600485901c94508061272d90614ef8565b9050612697565b5060008414612778576040517f08c379a000000000000000000000000000000000000000000000000000000000815260040161276f90614f6e565b60405180910390fd5b8091505092915050565b61278c8383612e5b565b612799600084848461291a565b6127d8576040517f08c379a00000000000000000000000000000000000000000000000000000000081526004016127cf90614e4d565b60405180910390fd5b505050565b6127e78282611270565b156128bb576000600a600084815260200190815260200160002060000160008373ffffffffffffffffffffffffffffffffffffffff1673ffffffffffffffffffffffffffffffffffffffff16815260200190815260200160002060006101000a81548160ff021916908315150217905550612860611ac1565b73ffffffffffffffffffffffffffffffffffffffff168173ffffffffffffffffffffffffffffffffffffffff16837ff6391f5c32d9c69d2a47ea670b442974b53935d1edc7fd64eb21e047a839171b60405160405180910390a45b5050565b60006128e7836000018373ffffffffffffffffffffffffffffffffffffffff1660001b613035565b905092915050565b60008260000182815481106129075761290661449a565b5b9060005260206000200154905092915050565b600061293b8473ffffffffffffffffffffffffffffffffffffffff16613149565b15612a95578373ffffffffffffffffffffffffffffffffffffffff1663150b7a02612964611ac1565b8786866040518563ffffffff1660e01b81526004016129869493929190614fe3565b6020604051808303816000875af19250505080156129c257506040513d601f19601f820116820180604052508101906129bf9190615044565b60015b612a45573d80600081146129f2576040519150601f19603f3d011682016040523d82523d6000602084013e6129f7565b606091505b50600081511415612a3d576040517f08c379a0000000000000000000000000000000000000000000000000000000008152600401612a3490614e4d565b60405180910390fd5b805181602001fd5b63150b7a0260e01b7bffffffffffffffffffffffffffffffffffffffffffffffffffffffff1916817bffffffffffffffffffffffffffffffffffffffffffffffffffffffff191614915050612a9a565b600190505b949350505050565b600081600001805490509050919050565b600080836001016000848152602001908152602001600020541415905092915050565b60007f780e9d63000000000000000000000000000000000000000000000000000000007bffffffffffffffffffffffffffffffffffffffffffffffffffffffff1916827bffffffffffffffffffffffffffffffffffffffffffffffffffffffff19161480612b495750612b488261316c565b5b9050919050565b505050565b6008805490506009600083815260200190815260200160002081905550600881908060018154018082558091505060019003906000526020600020016000909190919091505550565b60006001612bab84611094565b612bb5919061473f565b9050600060076000848152602001908152602001600020549050818114612c9a576000600660008673ffffffffffffffffffffffffffffffffffffffff1673ffffffffffffffffffffffffffffffffffffffff168152602001908152602001600020600084815260200190815260200160002054905080600660008773ffffffffffffffffffffffffffffffffffffffff1673ffffffffffffffffffffffffffffffffffffffff168152602001908152602001600020600084815260200190815260200160002081905550816007600083815260200190815260200160002081905550505b6007600084815260200190815260200160002060009055600660008573ffffffffffffffffffffffffffffffffffffffff1673ffffffffffffffffffffffffffffffffffffffff16815260200190815260200160002060008381526020019081526020016000206000905550505050565b60006001600880549050612d1f919061473f565b9050600060096000848152602001908152602001600020549050600060088381548110612d4f57612d4e61449a565b5b906000526020600020015490508060088381548110612d7157612d7061449a565b5b906000526020600020018190555081600960008381526020019081526020016000208190555060096000858152602001908152602001600020600090556008805480612dc057612dbf615071565b5b6001900381819060005260206000200160009055905550505050565b6000612de783611094565b905081600660008573ffffffffffffffffffffffffffffffffffffffff1673ffffffffffffffffffffffffffffffffffffffff168152602001908152602001600020600083815260200190815260200160002081905550806007600084815260200190815260200160002081905550505050565b600073ffffffffffffffffffffffffffffffffffffffff168273ffffffffffffffffffffffffffffffffffffffff161415612ecb576040517f08c379a0000000000000000000000000000000000000000000000000000000008152600401612ec2906150ec565b60405180910390fd5b612ed481611a55565b15612f14576040517f08c379a0000000000000000000000000000000000000000000000000000000008152600401612f0b90615158565b60405180910390fd5b612f206000838361242d565b6001600360008473ffffffffffffffffffffffffffffffffffffffff1673ffffffffffffffffffffffffffffffffffffffff1681526020019081526020016000206000828254612f709190614773565b92505081905550816002600083815260200190815260200160002060006101000a81548173ffffffffffffffffffffffffffffffffffffffff021916908373ffffffffffffffffffffffffffffffffffffffff160217905550808273ffffffffffffffffffffffffffffffffffffffff16600073ffffffffffffffffffffffffffffffffffffffff167fddf252ad1be2c89b69c2b068fc378daa952ba7f163c4a11628f55a4df523b3ef60405160405180910390a461303160008383612541565b5050565b6000808360010160008481526020019081526020016000205490506000811461313d576000600182613067919061473f565b905060006001866000018054905061307f919061473f565b90508181146130ee5760008660000182815481106130a05761309f61449a565b5b90600052602060002001549050808760000184815481106130c4576130c361449a565b5b90600052602060002001819055508387600101600083815260200190815260200160002081905550505b8560000180548061310257613101615071565b5b600190038181906000526020600020016000905590558560010160008681526020019081526020016000206000905560019350505050613143565b60009150505b92915050565b6000808273ffffffffffffffffffffffffffffffffffffffff163b119050919050565b60007f80ac58cd000000000000000000000000000000000000000000000000000000007bffffffffffffffffffffffffffffffffffffffffffffffffffffffff1916827bffffffffffffffffffffffffffffffffffffffffffffffffffffffff1916148061323757507f5b5e139f000000000000000000000000000000000000000000000000000000007bffffffffffffffffffffffffffffffffffffffffffffffffffffffff1916827bffffffffffffffffffffffffffffffffffffffffffffffffffffffff1916145b8061324757506132468261324e565b5b9050919050565b60007f01ffc9a7000000000000000000000000000000000000000000000000000000007bffffffffffffffffffffffffffffffffffffffffffffffffffffffff1916827bffffffffffffffffffffffffffffffffffffffffffffffffffffffff1916149050919050565b8280548282559060005260206000209081019282156132f4579160200282015b828111156132f35782518255916020019190600101906132d8565b5b509050613301919061338b565b5090565b82805461331190614060565b90600052602060002090601f016020900481019282613333576000855561337a565b82601f1061334c57805160ff191683800117855561337a565b8280016001018555821561337a579182015b8281111561337957825182559160200191906001019061335e565b5b509050613387919061338b565b5090565b5b808211156133a457600081600090555060010161338c565b5090565b6000604051905090565b600080fd5b600080fd5b60007fffffffff0000000000000000000000000000000000000000000000000000000082169050919050565b6133f1816133bc565b81146133fc57600080fd5b50565b60008135905061340e816133e8565b92915050565b60006020828403121561342a576134296133b2565b5b6000613438848285016133ff565b91505092915050565b60008115159050919050565b61345681613441565b82525050565b6000602082019050613471600083018461344d565b92915050565b600081519050919050565b600082825260208201905092915050565b60005b838110156134b1578082015181840152602081019050613496565b838111156134c0576000848401525b50505050565b6000601f19601f8301169050919050565b60006134e282613477565b6134ec8185613482565b93506134fc818560208601613493565b613505816134c6565b840191505092915050565b6000602082019050818103600083015261352a81846134d7565b905092915050565b6000819050919050565b61354581613532565b811461355057600080fd5b50565b6000813590506135628161353c565b92915050565b60006020828403121561357e5761357d6133b2565b5b600061358c84828501613553565b91505092915050565b600073ffffffffffffffffffffffffffffffffffffffff82169050919050565b60006135c082613595565b9050919050565b6135d0816135b5565b82525050565b60006020820190506135eb60008301846135c7565b92915050565b600080fd5b600080fd5b7f4e487b7100000000000000000000000000000000000000000000000000000000600052604160045260246000fd5b613633826134c6565b810181811067ffffffffffffffff82111715613652576136516135fb565b5b80604052505050565b60006136656133a8565b9050613671828261362a565b919050565b600067ffffffffffffffff821115613691576136906135fb565b5b61369a826134c6565b9050602081019050919050565b82818337600083830152505050565b60006136c96136c484613676565b61365b565b9050828152602081018484840111156136e5576136e46135f6565b5b6136f08482856136a7565b509392505050565b600082601f83011261370d5761370c6135f1565b5b813561371d8482602086016136b6565b91505092915050565b6000806040838503121561373d5761373c6133b2565b5b600061374b85828601613553565b925050602083013567ffffffffffffffff81111561376c5761376b6133b7565b5b613778858286016136f8565b9150509250929050565b61378b81613532565b82525050565b60006020820190506137a66000830184613782565b92915050565b6137b5816135b5565b81146137c057600080fd5b50565b6000813590506137d2816137ac565b92915050565b600080604083850312156137ef576137ee6133b2565b5b60006137fd858286016137c3565b925050602061380e85828601613553565b9150509250929050565b600080600060608486031215613831576138306133b2565b5b600061383f868287016137c3565b9350506020613850868287016137c3565b925050604061386186828701613553565b9150509250925092565b6000819050919050565b61387e8161386b565b811461388957600080fd5b50565b60008135905061389b81613875565b92915050565b6000602082840312156138b7576138b66133b2565b5b60006138c58482850161388c565b91505092915050565b6138d78161386b565b82525050565b60006020820190506138f260008301846138ce565b92915050565b600080600060608486031215613911576139106133b2565b5b600061391f86828701613553565b935050602084013567ffffffffffffffff8111156139405761393f6133b7565b5b61394c868287016136f8565b925050604061395d86828701613553565b9150509250925092565b600067ffffffffffffffff821115613982576139816135fb565b5b602082029050602081019050919050565b600080fd5b60006139ab6139a684613967565b61365b565b905080838252602082019050602084028301858111156139ce576139cd613993565b5b835b818110156139f757806139e38882613553565b8452602084019350506020810190506139d0565b5050509392505050565b600082601f830112613a1657613a156135f1565b5b8135613a26848260208601613998565b91505092915050565b60008060408385031215613a4657613a456133b2565b5b600083013567ffffffffffffffff811115613a6457613a636133b7565b5b613a7085828601613a01565b9250506020613a81858286016137c3565b9150509250929050565b60008060408385031215613aa257613aa16133b2565b5b6000613ab08582860161388c565b9250506020613ac1858286016137c3565b9150509250929050565b600080600060608486031215613ae457613ae36133b2565b5b6000613af2868287016137c3565b9350506020613b03868287016137c3565b925050604084013567ffffffffffffffff811115613b2457613b236133b7565b5b613b3086828701613a01565b9150509250925092565b600060208284031215613b5057613b4f6133b2565b5b600082013567ffffffffffffffff811115613b6e57613b6d6133b7565b5b613b7a848285016136f8565b91505092915050565b600081519050919050565b600082825260208201905092915050565b6000819050602082019050919050565b613bb881613532565b82525050565b6000613bca8383613baf565b60208301905092915050565b6000602082019050919050565b6000613bee82613b83565b613bf88185613b8e565b9350613c0383613b9f565b8060005b83811015613c34578151613c1b8882613bbe565b9750613c2683613bd6565b925050600181019050613c07565b5085935050505092915050565b60006020820190508181036000830152613c5b8184613be3565b905092915050565b600060208284031215613c7957613c786133b2565b5b6000613c87848285016137c3565b91505092915050565b600080600060608486031215613ca957613ca86133b2565b5b6000613cb7868287016137c3565b9350506020613cc886828701613553565b9250506040613cd986828701613553565b9150509250925092565b60006040820190508181036000830152613cfd8185613be3565b9050613d0c6020830184613782565b9392505050565b60008060408385031215613d2a57613d296133b2565b5b6000613d388582860161388c565b9250506020613d4985828601613553565b9150509250929050565b60008060008060808587031215613d6d57613d6c6133b2565b5b6000613d7b87828801613553565b945050602085013567ffffffffffffffff811115613d9c57613d9b6133b7565b5b613da8878288016136f8565b9350506040613db987828801613553565b9250506060613dca87828801613553565b91505092959194509250565b613ddf81613441565b8114613dea57600080fd5b50565b600081359050613dfc81613dd6565b92915050565b60008060408385031215613e1957613e186133b2565b5b6000613e27858286016137c3565b9250506020613e3885828601613ded565b9150509250929050565b600067ffffffffffffffff821115613e5d57613e5c6135fb565b5b613e66826134c6565b9050602081019050919050565b6000613e86613e8184613e42565b61365b565b905082815260208101848484011115613ea257613ea16135f6565b5b613ead8482856136a7565b509392505050565b600082601f830112613eca57613ec96135f1565b5b8135613eda848260208601613e73565b91505092915050565b60008060008060808587031215613efd57613efc6133b2565b5b6000613f0b878288016137c3565b9450506020613f1c878288016137c3565b9350506040613f2d87828801613553565b925050606085013567ffffffffffffffff811115613f4e57613f4d6133b7565b5b613f5a87828801613eb5565b91505092959194509250565b600080600060608486031215613f7f57613f7e6133b2565b5b6000613f8d86828701613553565b935050602084013567ffffffffffffffff811115613fae57613fad6133b7565b5b613fba868287016136f8565b925050604084013567ffffffffffffffff811115613fdb57613fda6133b7565b5b613fe786828701613a01565b9150509250925092565b60008060408385031215614008576140076133b2565b5b6000614016858286016137c3565b9250506020614027858286016137c3565b9150509250929050565b7f4e487b7100000000000000000000000000000000000000000000000000000000600052602260045260246000fd5b6000600282049050600182168061407857607f821691505b6020821081141561408c5761408b614031565b5b50919050565b7f4552433732313a20617070726f76656420717565727920666f72206e6f6e657860008201527f697374656e7420746f6b656e0000000000000000000000000000000000000000602082015250565b60006140ee602c83613482565b91506140f982614092565b604082019050919050565b6000602082019050818103600083015261411d816140e1565b9050919050565b7f4552433732313a20617070726f76616c20746f2063757272656e74206f776e6560008201527f7200000000000000000000000000000000000000000000000000000000000000602082015250565b6000614180602183613482565b915061418b82614124565b604082019050919050565b600060208201905081810360008301526141af81614173565b9050919050565b7f4552433732313a20617070726f76652063616c6c6572206973206e6f74206f7760008201527f6e6572206e6f7220617070726f76656420666f7220616c6c0000000000000000602082015250565b6000614212603883613482565b915061421d826141b6565b604082019050919050565b6000602082019050818103600083015261424181614205565b9050919050565b7f4552433732313a207472616e736665722063616c6c6572206973206e6f74206f60008201527f776e6572206e6f7220617070726f766564000000000000000000000000000000602082015250565b60006142a4603183613482565b91506142af82614248565b604082019050919050565b600060208201905081810360008301526142d381614297565b9050919050565b600081905092915050565b7f6174747200000000000000000000000000000000000000000000000000000000600082015250565b600061431b6004836142da565b9150614326826142e5565b600482019050919050565b600061433c8261430e565b9150819050919050565b600060408201905061435b6000830185613782565b818103602083015261436d8184613be3565b90509392505050565b7f455243373231456e756d657261626c653a206f776e657220696e646578206f7560008201527f74206f6620626f756e6473000000000000000000000000000000000000000000602082015250565b60006143d2602b83613482565b91506143dd82614376565b604082019050919050565b60006020820190508181036000830152614401816143c5565b9050919050565b7f416363657373436f6e74726f6c3a2063616e206f6e6c792072656e6f756e636560008201527f20726f6c657320666f722073656c660000000000000000000000000000000000602082015250565b6000614464602f83613482565b915061446f82614408565b604082019050919050565b6000602082019050818103600083015261449381614457565b9050919050565b7f4e487b7100000000000000000000000000000000000000000000000000000000600052603260045260246000fd5b7f4e487b7100000000000000000000000000000000000000000000000000000000600052601160045260246000fd5b600061450382613532565b91507fffffffffffffffffffffffffffffffffffffffffffffffffffffffffffffffff821415614536576145356144c9565b5b600182019050919050565b7f455243373231456e756d657261626c653a20676c6f62616c20696e646578206f60008201527f7574206f6620626f756e64730000000000000000000000000000000000000000602082015250565b600061459d602c83613482565b91506145a882614541565b604082019050919050565b600060208201905081810360008301526145cc81614590565b9050919050565b60006145de82613477565b6145e881856142da565b93506145f8818560208601613493565b80840191505092915050565b600061461082846145d3565b915081905092915050565b7f4552433732313a206f776e657220717565727920666f72206e6f6e657869737460008201527f656e7420746f6b656e0000000000000000000000000000000000000000000000602082015250565b6000614677602983613482565b91506146828261461b565b604082019050919050565b600060208201905081810360008301526146a68161466a565b9050919050565b7f4552433732313a2062616c616e636520717565727920666f7220746865207a6560008201527f726f206164647265737300000000000000000000000000000000000000000000602082015250565b6000614709602a83613482565b9150614714826146ad565b604082019050919050565b60006020820190508181036000830152614738816146fc565b9050919050565b600061474a82613532565b915061475583613532565b925082821015614768576147676144c9565b5b828203905092915050565b600061477e82613532565b915061478983613532565b9250827fffffffffffffffffffffffffffffffffffffffffffffffffffffffffffffffff038211156147be576147bd6144c9565b5b828201905092915050565b6000819050919050565b6147e46147df82613532565b6147c9565b82525050565b60006147f682856147d3565b60208201915061480682846145d3565b91508190509392505050565b7f4e487b7100000000000000000000000000000000000000000000000000000000600052601260045260246000fd5b600061484c82613532565b915061485783613532565b92508261486757614866614812565b5b828206905092915050565b6000604082019050818103600083015261488c81856134d7565b905081810360208301526148a08184613be3565b90509392505050565b7f4552433732314d657461646174613a2055524920717565727920666f72206e6f60008201527f6e6578697374656e7420746f6b656e0000000000000000000000000000000000602082015250565b6000614905602f83613482565b9150614910826148a9565b604082019050919050565b60006020820190508181036000830152614934816148f8565b9050919050565b60008190508160005260206000209050919050565b6000815461495d81614060565b61496781866142da565b945060018216600081146149825760018114614993576149c6565b60ff198316865281860193506149c6565b61499c8561493b565b60005b838110156149be5781548189015260018201915060208101905061499f565b838801955050505b50505092915050565b7f2d00000000000000000000000000000000000000000000000000000000000000600082015250565b6000614a056001836142da565b9150614a10826149cf565b600182019050919050565b6000614a27828a614950565b9150614a3382896145d3565b9150614a3e826149f8565b9150614a4a82886145d3565b9150614a55826149f8565b9150614a6182876145d3565b9150614a6c826149f8565b9150614a7882866145d3565b9150614a83826149f8565b9150614a8f82856145d3565b9150614a9a826149f8565b9150614aa682846145d3565b915081905098975050505050505050565b60006040820190508181036000830152614ad181856134d7565b9050614ae06020830184613782565b9392505050565b7f4552433732313a206f70657261746f7220717565727920666f72206e6f6e657860008201527f697374656e7420746f6b656e0000000000000000000000000000000000000000602082015250565b6000614b43602c83613482565b9150614b4e82614ae7565b604082019050919050565b60006020820190508181036000830152614b7281614b36565b9050919050565b7f4552433732313a207472616e736665722066726f6d20696e636f72726563742060008201527f6f776e6572000000000000000000000000000000000000000000000000000000602082015250565b6000614bd5602583613482565b9150614be082614b79565b604082019050919050565b60006020820190508181036000830152614c0481614bc8565b9050919050565b7f4552433732313a207472616e7366657220746f20746865207a65726f2061646460008201527f7265737300000000000000000000000000000000000000000000000000000000602082015250565b6000614c67602483613482565b9150614c7282614c0b565b604082019050919050565b60006020820190508181036000830152614c9681614c5a565b9050919050565b7f416363657373436f6e74726f6c3a206163636f756e7420000000000000000000600082015250565b6000614cd36017836142da565b9150614cde82614c9d565b601782019050919050565b7f206973206d697373696e6720726f6c6520000000000000000000000000000000600082015250565b6000614d1f6011836142da565b9150614d2a82614ce9565b601182019050919050565b6000614d4082614cc6565b9150614d4c82856145d3565b9150614d5782614d12565b9150614d6382846145d3565b91508190509392505050565b7f4552433732313a20617070726f766520746f2063616c6c657200000000000000600082015250565b6000614da5601983613482565b9150614db082614d6f565b602082019050919050565b60006020820190508181036000830152614dd481614d98565b9050919050565b7f4552433732313a207472616e7366657220746f206e6f6e20455243373231526560008201527f63656976657220696d706c656d656e7465720000000000000000000000000000602082015250565b6000614e37603283613482565b9150614e4282614ddb565b604082019050919050565b60006020820190508181036000830152614e6681614e2a565b9050919050565b6000614e7882613532565b9150614e8383613532565b925082614e9357614e92614812565b5b828204905092915050565b6000614ea982613532565b9150614eb483613532565b9250817fffffffffffffffffffffffffffffffffffffffffffffffffffffffffffffffff0483118215151615614eed57614eec6144c9565b5b828202905092915050565b6000614f0382613532565b91506000821415614f1757614f166144c9565b5b600182039050919050565b7f537472696e67733a20686578206c656e67746820696e73756666696369656e74600082015250565b6000614f58602083613482565b9150614f6382614f22565b602082019050919050565b60006020820190508181036000830152614f8781614f4b565b9050919050565b600081519050919050565b600082825260208201905092915050565b6000614fb582614f8e565b614fbf8185614f99565b9350614fcf818560208601613493565b614fd8816134c6565b840191505092915050565b6000608082019050614ff860008301876135c7565b61500560208301866135c7565b6150126040830185613782565b81810360608301526150248184614faa565b905095945050505050565b60008151905061503e816133e8565b92915050565b60006020828403121561505a576150596133b2565b5b60006150688482850161502f565b91505092915050565b7f4e487b7100000000000000000000000000000000000000000000000000000000600052603160045260246000fd5b7f4552433732313a206d696e7420746f20746865207a65726f2061646472657373600082015250565b60006150d6602083613482565b91506150e1826150a0565b602082019050919050565b60006020820190508181036000830152615105816150c9565b9050919050565b7f4552433732313a20746f6b656e20616c7265616479206d696e74656400000000600082015250565b6000615142601c83613482565b915061514d8261510c565b602082019050919050565b6000602082019050818103600083015261517181615135565b905091905056fea2646970667358221220f65c6e1831f67687c9ce6fdbcc6aefa081224f38987ba21e8f4d107c5cd25f5964736f6c634300080c0033",
  "linkReferences": {},
  "deployedLinkReferences": {}
}