{
  "_format": "hh-sol-artifact-1",
  "contractName": "SB",
  "sourceName": "contracts/token/SB.sol",
  "abi": [
    {
      "inputs": [
        {
          "internalType": "address",
          "name": "manager",
          "type": "address"
        }
      ],
      "stateMutability": "nonpayable",
      "type": "constructor"
    },
    {
      "inputs": [
        {
          "internalType": "address",
          "name": "have",
          "type": "address"
        },
        {
          "internalType": "address",
          "name": "want",
          "type": "address"
        }
      ],
      "name": "OnlyCoordinatorCanFulfill",
      "type": "error"
    },
    {
      "anonymous": false,
      "inputs": [
        {
          "indexed": false,
          "internalType": "uint256",
          "name": "supply",
          "type": "uint256"
        },
        {
          "indexed": false,
          "internalType": "uint256",
          "name": "boxType",
          "type": "uint256"
        }
      ],
      "name": "AddBoxesMaxSupply",
      "type": "event"
    },
    {
      "anonymous": false,
      "inputs": [
        {
          "indexed": false,
          "internalType": "uint256",
          "name": "boxType",
          "type": "uint256"
        },
        {
          "indexed": false,
          "internalType": "address[]",
          "name": "whiteUsers",
          "type": "address[]"
        }
      ],
      "name": "AddWhiteList",
      "type": "event"
    },
    {
      "anonymous": false,
      "inputs": [
        {
          "indexed": true,
          "internalType": "address",
          "name": "owner",
          "type": "address"
        },
        {
          "indexed": true,
          "internalType": "address",
          "name": "approved",
          "type": "address"
        },
        {
          "indexed": true,
          "internalType": "uint256",
          "name": "tokenId",
          "type": "uint256"
        }
      ],
      "name": "Approval",
      "type": "event"
    },
    {
      "anonymous": false,
      "inputs": [
        {
          "indexed": true,
          "internalType": "address",
          "name": "owner",
          "type": "address"
        },
        {
          "indexed": true,
          "internalType": "address",
          "name": "operator",
          "type": "address"
        },
        {
          "indexed": false,
          "internalType": "bool",
          "name": "approved",
          "type": "bool"
        }
      ],
      "name": "ApprovalForAll",
      "type": "event"
    },
    {
      "anonymous": false,
      "inputs": [
        {
          "indexed": true,
          "internalType": "address",
          "name": "user",
          "type": "address"
        },
        {
          "indexed": false,
          "internalType": "uint256",
          "name": "amount",
          "type": "uint256"
        },
        {
          "indexed": false,
          "internalType": "uint256[]",
          "name": "sbIds",
          "type": "uint256[]"
        },
        {
          "indexed": false,
          "internalType": "uint256",
          "name": "boxType",
          "type": "uint256"
        }
      ],
      "name": "BuyBoxes",
      "type": "event"
    },
    {
      "anonymous": false,
      "inputs": [
        {
          "indexed": true,
          "internalType": "address",
          "name": "user",
          "type": "address"
        },
        {
          "indexed": false,
          "internalType": "uint256",
          "name": "amount",
          "type": "uint256"
        },
        {
          "indexed": false,
          "internalType": "uint256[]",
          "name": "sbIds",
          "type": "uint256[]"
        },
        {
          "indexed": false,
          "internalType": "uint256[]",
          "name": "boxTypes",
          "type": "uint256[]"
        }
      ],
      "name": "OpenBoxes",
      "type": "event"
    },
    {
      "anonymous": false,
      "inputs": [
        {
          "indexed": false,
          "internalType": "uint256",
          "name": "boxType",
          "type": "uint256"
        },
        {
          "indexed": false,
          "internalType": "address[]",
          "name": "whiteUsers",
          "type": "address[]"
        }
      ],
      "name": "RemoveWhiteList",
      "type": "event"
    },
    {
      "anonymous": false,
      "inputs": [
        {
          "indexed": true,
          "internalType": "bytes32",
          "name": "role",
          "type": "bytes32"
        },
        {
          "indexed": true,
          "internalType": "bytes32",
          "name": "previousAdminRole",
          "type": "bytes32"
        },
        {
          "indexed": true,
          "internalType": "bytes32",
          "name": "newAdminRole",
          "type": "bytes32"
        }
      ],
      "name": "RoleAdminChanged",
      "type": "event"
    },
    {
      "anonymous": false,
      "inputs": [
        {
          "indexed": true,
          "internalType": "bytes32",
          "name": "role",
          "type": "bytes32"
        },
        {
          "indexed": true,
          "internalType": "address",
          "name": "account",
          "type": "address"
        },
        {
          "indexed": true,
          "internalType": "address",
          "name": "sender",
          "type": "address"
        }
      ],
      "name": "RoleGranted",
      "type": "event"
    },
    {
      "anonymous": false,
      "inputs": [
        {
          "indexed": true,
          "internalType": "bytes32",
          "name": "role",
          "type": "bytes32"
        },
        {
          "indexed": true,
          "internalType": "address",
          "name": "account",
          "type": "address"
        },
        {
          "indexed": true,
          "internalType": "address",
          "name": "sender",
          "type": "address"
        }
      ],
      "name": "RoleRevoked",
      "type": "event"
    },
    {
      "anonymous": false,
      "inputs": [
        {
          "indexed": false,
          "internalType": "address",
          "name": "snAddr",
          "type": "address"
        },
        {
          "indexed": false,
          "internalType": "address",
          "name": "invitingAddr",
          "type": "address"
        }
      ],
      "name": "SetAddrs",
      "type": "event"
    },
    {
      "anonymous": false,
      "inputs": [
        {
          "indexed": false,
          "internalType": "string",
          "name": "uri",
          "type": "string"
        }
      ],
      "name": "SetBaseURI",
      "type": "event"
    },
    {
      "anonymous": false,
      "inputs": [
        {
          "indexed": false,
          "internalType": "uint256",
          "name": "boxType",
          "type": "uint256"
        },
        {
          "indexed": false,
          "internalType": "uint256",
          "name": "boxTokenPrice",
          "type": "uint256"
        },
        {
          "indexed": false,
          "internalType": "address",
          "name": "tokenAddr",
          "type": "address"
        },
        {
          "indexed": false,
          "internalType": "address",
          "name": "receivingAddr",
          "type": "address"
        },
        {
          "indexed": false,
          "internalType": "uint256",
          "name": "hourlyBuylimit",
          "type": "uint256"
        },
        {
          "indexed": false,
          "internalType": "bool",
          "name": "whiteListFlag",
          "type": "bool"
        },
        {
          "indexed": false,
          "internalType": "uint256[]",
          "name": "starsProbability",
          "type": "uint256[]"
        },
        {
          "indexed": false,
          "internalType": "uint256[]",
          "name": "powerProbability",
          "type": "uint256[]"
        },
        {
          "indexed": false,
          "internalType": "uint256[]",
          "name": "partProbability",
          "type": "uint256[]"
        }
      ],
      "name": "SetBoxInfo",
      "type": "event"
    },
    {
      "anonymous": false,
      "inputs": [
        {
          "indexed": false,
          "internalType": "bytes32",
          "name": "keyHash",
          "type": "bytes32"
        },
        {
          "indexed": false,
          "internalType": "uint32",
          "name": "callbackGasLimit",
          "type": "uint32"
        },
        {
          "indexed": false,
          "internalType": "uint16",
          "name": "requestConfirmations",
          "type": "uint16"
        }
      ],
      "name": "SetVrfInfo",
      "type": "event"
    },
    {
      "anonymous": false,
      "inputs": [
        {
          "indexed": true,
          "internalType": "address",
          "name": "user",
          "type": "address"
        },
        {
          "indexed": false,
          "internalType": "uint256",
          "name": "amount",
          "type": "uint256"
        },
        {
          "indexed": false,
          "internalType": "uint256[]",
          "name": "snIds",
          "type": "uint256[]"
        }
      ],
      "name": "SpawnSns",
      "type": "event"
    },
    {
      "anonymous": false,
      "inputs": [
        {
          "indexed": true,
          "internalType": "address",
          "name": "from",
          "type": "address"
        },
        {
          "indexed": true,
          "internalType": "address",
          "name": "to",
          "type": "address"
        },
        {
          "indexed": true,
          "internalType": "uint256",
          "name": "tokenId",
          "type": "uint256"
        }
      ],
      "name": "Transfer",
      "type": "event"
    },
    {
      "inputs": [],
      "name": "COORDINATOR",
      "outputs": [
        {
          "internalType": "contract VRFCoordinatorV2Interface",
          "name": "",
          "type": "address"
        }
      ],
      "stateMutability": "view",
      "type": "function"
    },
    {
      "inputs": [],
      "name": "DEFAULT_ADMIN_ROLE",
      "outputs": [
        {
          "internalType": "bytes32",
          "name": "",
          "type": "bytes32"
        }
      ],
      "stateMutability": "view",
      "type": "function"
    },
    {
      "inputs": [],
      "name": "LINKTOKEN",
      "outputs": [
        {
          "internalType": "contract LinkTokenInterface",
          "name": "",
          "type": "address"
        }
      ],
      "stateMutability": "view",
      "type": "function"
    },
    {
      "inputs": [],
      "name": "MANAGER_ROLE",
      "outputs": [
        {
          "internalType": "bytes32",
          "name": "",
          "type": "bytes32"
        }
      ],
      "stateMutability": "view",
      "type": "function"
    },
    {
      "inputs": [
        {
          "internalType": "uint256",
          "name": "supply",
          "type": "uint256"
        },
        {
          "internalType": "uint256",
          "name": "boxType",
          "type": "uint256"
        }
      ],
      "name": "addBoxesMaxSupply",
      "outputs": [],
      "stateMutability": "nonpayable",
      "type": "function"
    },
    {
      "inputs": [
        {
          "internalType": "uint256",
          "name": "boxType",
          "type": "uint256"
        },
        {
          "internalType": "address[]",
          "name": "whiteUsers",
          "type": "address[]"
        }
      ],
      "name": "addWhiteList",
      "outputs": [],
      "stateMutability": "nonpayable",
      "type": "function"
    },
    {
      "inputs": [
        {
          "internalType": "address",
          "name": "",
          "type": "address"
        },
        {
          "internalType": "address",
          "name": "",
          "type": "address"
        }
      ],
      "name": "affiliateTokenBuyAmount",
      "outputs": [
        {
          "internalType": "uint256",
          "name": "",
          "type": "uint256"
        }
      ],
      "stateMutability": "view",
      "type": "function"
    },
    {
      "inputs": [
        {
          "internalType": "address",
          "name": "to",
          "type": "address"
        },
        {
          "internalType": "uint256",
          "name": "tokenId",
          "type": "uint256"
        }
      ],
      "name": "approve",
      "outputs": [],
      "stateMutability": "nonpayable",
      "type": "function"
    },
    {
      "inputs": [
        {
          "internalType": "address",
          "name": "owner",
          "type": "address"
        }
      ],
      "name": "balanceOf",
      "outputs": [
        {
          "internalType": "uint256",
          "name": "",
          "type": "uint256"
        }
      ],
      "stateMutability": "view",
      "type": "function"
    },
    {
      "inputs": [],
      "name": "baseURI",
      "outputs": [
        {
          "internalType": "string",
          "name": "",
          "type": "string"
        }
      ],
      "stateMutability": "view",
      "type": "function"
    },
    {
      "inputs": [
        {
          "internalType": "uint256",
          "name": "",
          "type": "uint256"
        }
      ],
      "name": "boxTokenPrices",
      "outputs": [
        {
          "internalType": "uint256",
          "name": "",
          "type": "uint256"
        }
      ],
      "stateMutability": "view",
      "type": "function"
    },
    {
      "inputs": [
        {
          "internalType": "uint256",
          "name": "",
          "type": "uint256"
        }
      ],
      "name": "boxesMaxSupply",
      "outputs": [
        {
          "internalType": "uint256",
          "name": "",
          "type": "uint256"
        }
      ],
      "stateMutability": "view",
      "type": "function"
    },
    {
      "inputs": [
        {
          "internalType": "uint256",
          "name": "amount",
          "type": "uint256"
        },
        {
          "internalType": "uint256",
          "name": "boxType",
          "type": "uint256"
        },
        {
          "internalType": "address",
          "name": "inviter",
          "type": "address"
        }
      ],
      "name": "buyBoxes",
      "outputs": [],
      "stateMutability": "payable",
      "type": "function"
    },
    {
      "inputs": [],
      "name": "callbackGasLimit",
      "outputs": [
        {
          "internalType": "uint32",
          "name": "",
          "type": "uint32"
        }
      ],
      "stateMutability": "view",
      "type": "function"
    },
    {
      "inputs": [
        {
          "internalType": "address",
          "name": "receivingWallet",
          "type": "address"
        }
      ],
      "name": "cancelSubscription",
      "outputs": [],
      "stateMutability": "nonpayable",
      "type": "function"
    },
    {
      "inputs": [
        {
          "internalType": "uint256",
          "name": "tokenId",
          "type": "uint256"
        }
      ],
      "name": "getApproved",
      "outputs": [
        {
          "internalType": "address",
          "name": "",
          "type": "address"
        }
      ],
      "stateMutability": "view",
      "type": "function"
    },
    {
      "inputs": [
        {
          "internalType": "uint256",
          "name": "boxType",
          "type": "uint256"
        }
      ],
      "name": "getBoxesLeftSupply",
      "outputs": [
        {
          "internalType": "uint256",
          "name": "",
          "type": "uint256"
        }
      ],
      "stateMutability": "view",
      "type": "function"
    },
    {
      "inputs": [
        {
          "internalType": "uint256[]",
          "name": "array",
          "type": "uint256[]"
        },
        {
          "internalType": "uint256",
          "name": "random",
          "type": "uint256"
        }
      ],
      "name": "getLevel",
      "outputs": [
        {
          "internalType": "uint256",
          "name": "",
          "type": "uint256"
        }
      ],
      "stateMutability": "pure",
      "type": "function"
    },
    {
      "inputs": [
        {
          "internalType": "bytes32",
          "name": "role",
          "type": "bytes32"
        }
      ],
      "name": "getRoleAdmin",
      "outputs": [
        {
          "internalType": "bytes32",
          "name": "",
          "type": "bytes32"
        }
      ],
      "stateMutability": "view",
      "type": "function"
    },
    {
      "inputs": [
        {
          "internalType": "bytes32",
          "name": "role",
          "type": "bytes32"
        },
        {
          "internalType": "uint256",
          "name": "index",
          "type": "uint256"
        }
      ],
      "name": "getRoleMember",
      "outputs": [
        {
          "internalType": "address",
          "name": "",
          "type": "address"
        }
      ],
      "stateMutability": "view",
      "type": "function"
    },
    {
      "inputs": [
        {
          "internalType": "bytes32",
          "name": "role",
          "type": "bytes32"
        }
      ],
      "name": "getRoleMemberCount",
      "outputs": [
        {
          "internalType": "uint256",
          "name": "",
          "type": "uint256"
        }
      ],
      "stateMutability": "view",
      "type": "function"
    },
    {
      "inputs": [
        {
          "internalType": "uint256",
          "name": "boxType",
          "type": "uint256"
        },
        {
          "internalType": "address",
          "name": "user",
          "type": "address"
        },
        {
          "internalType": "uint256",
          "name": "timestamp",
          "type": "uint256"
        }
      ],
      "name": "getUserHourlyBoxesLeftSupply",
      "outputs": [
        {
          "internalType": "uint256",
          "name": "",
          "type": "uint256"
        }
      ],
      "stateMutability": "view",
      "type": "function"
    },
    {
      "inputs": [
        {
          "internalType": "uint256",
          "name": "boxType",
          "type": "uint256"
        },
        {
          "internalType": "address",
          "name": "user",
          "type": "address"
        }
      ],
      "name": "getWhiteListExistence",
      "outputs": [
        {
          "internalType": "bool",
          "name": "",
          "type": "bool"
        }
      ],
      "stateMutability": "view",
      "type": "function"
    },
    {
      "inputs": [
        {
          "internalType": "bytes32",
          "name": "role",
          "type": "bytes32"
        },
        {
          "internalType": "address",
          "name": "account",
          "type": "address"
        }
      ],
      "name": "grantRole",
      "outputs": [],
      "stateMutability": "nonpayable",
      "type": "function"
    },
    {
      "inputs": [
        {
          "internalType": "bytes32",
          "name": "role",
          "type": "bytes32"
        },
        {
          "internalType": "address",
          "name": "account",
          "type": "address"
        }
      ],
      "name": "hasRole",
      "outputs": [
        {
          "internalType": "bool",
          "name": "",
          "type": "bool"
        }
      ],
      "stateMutability": "view",
      "type": "function"
    },
    {
      "inputs": [
        {
          "internalType": "uint256",
          "name": "",
          "type": "uint256"
        }
      ],
      "name": "hourlyBuyLimits",
      "outputs": [
        {
          "internalType": "uint256",
          "name": "",
          "type": "uint256"
        }
      ],
      "stateMutability": "view",
      "type": "function"
    },
    {
      "inputs": [],
      "name": "inviting",
      "outputs": [
        {
          "internalType": "contract IInviting",
          "name": "",
          "type": "address"
        }
      ],
      "stateMutability": "view",
      "type": "function"
    },
    {
      "inputs": [
        {
          "internalType": "address",
          "name": "owner",
          "type": "address"
        },
        {
          "internalType": "address",
          "name": "operator",
          "type": "address"
        }
      ],
      "name": "isApprovedForAll",
      "outputs": [
        {
          "internalType": "bool",
          "name": "",
          "type": "bool"
        }
      ],
      "stateMutability": "view",
      "type": "function"
    },
    {
      "inputs": [],
      "name": "keyHash",
      "outputs": [
        {
          "internalType": "bytes32",
          "name": "",
          "type": "bytes32"
        }
      ],
      "stateMutability": "view",
      "type": "function"
    },
    {
      "inputs": [],
      "name": "link_token_contract",
      "outputs": [
        {
          "internalType": "address",
          "name": "",
          "type": "address"
        }
      ],
      "stateMutability": "view",
      "type": "function"
    },
    {
      "inputs": [],
      "name": "name",
      "outputs": [
        {
          "internalType": "string",
          "name": "",
          "type": "string"
        }
      ],
      "stateMutability": "view",
      "type": "function"
    },
    {
      "inputs": [
        {
          "internalType": "uint256[]",
          "name": "sbIds",
          "type": "uint256[]"
        }
      ],
      "name": "openBoxes",
      "outputs": [],
      "stateMutability": "nonpayable",
      "type": "function"
    },
    {
      "inputs": [
        {
          "internalType": "uint256",
          "name": "tokenId",
          "type": "uint256"
        }
      ],
      "name": "ownerOf",
      "outputs": [
        {
          "internalType": "address",
          "name": "",
          "type": "address"
        }
      ],
      "stateMutability": "view",
      "type": "function"
    },
    {
      "inputs": [
        {
          "internalType": "uint256",
          "name": "",
          "type": "uint256"
        },
        {
          "internalType": "uint256",
          "name": "",
          "type": "uint256"
        }
      ],
      "name": "partProbabilities",
      "outputs": [
        {
          "internalType": "uint256",
          "name": "",
          "type": "uint256"
        }
      ],
      "stateMutability": "view",
      "type": "function"
    },
    {
      "inputs": [
        {
          "internalType": "uint256",
          "name": "",
          "type": "uint256"
        },
        {
          "internalType": "uint256",
          "name": "",
          "type": "uint256"
        }
      ],
      "name": "powerProbabilities",
      "outputs": [
        {
          "internalType": "uint256",
          "name": "",
          "type": "uint256"
        }
      ],
      "stateMutability": "view",
      "type": "function"
    },
    {
      "inputs": [
        {
          "internalType": "uint256",
          "name": "requestId",
          "type": "uint256"
        },
        {
          "internalType": "uint256[]",
          "name": "randomWords",
          "type": "uint256[]"
        }
      ],
      "name": "rawFulfillRandomWords",
      "outputs": [],
      "stateMutability": "nonpayable",
      "type": "function"
    },
    {
      "inputs": [
        {
          "internalType": "uint256",
          "name": "",
          "type": "uint256"
        }
      ],
      "name": "receivingAddrs",
      "outputs": [
        {
          "internalType": "address",
          "name": "",
          "type": "address"
        }
      ],
      "stateMutability": "view",
      "type": "function"
    },
    {
      "inputs": [
        {
          "internalType": "uint256",
          "name": "boxType",
          "type": "uint256"
        },
        {
          "internalType": "address[]",
          "name": "whiteUsers",
          "type": "address[]"
        }
      ],
      "name": "removeWhiteList",
      "outputs": [],
      "stateMutability": "nonpayable",
      "type": "function"
    },
    {
      "inputs": [
        {
          "internalType": "bytes32",
          "name": "role",
          "type": "bytes32"
        },
        {
          "internalType": "address",
          "name": "account",
          "type": "address"
        }
      ],
      "name": "renounceRole",
      "outputs": [],
      "stateMutability": "nonpayable",
      "type": "function"
    },
    {
      "inputs": [],
      "name": "requestConfirmations",
      "outputs": [
        {
          "internalType": "uint16",
          "name": "",
          "type": "uint16"
        }
      ],
      "stateMutability": "view",
      "type": "function"
    },
    {
      "inputs": [
        {
          "internalType": "uint256",
          "name": "",
          "type": "uint256"
        },
        {
          "internalType": "uint256",
          "name": "",
          "type": "uint256"
        }
      ],
      "name": "requestIdToTypes",
      "outputs": [
        {
          "internalType": "uint256",
          "name": "",
          "type": "uint256"
        }
      ],
      "stateMutability": "view",
      "type": "function"
    },
    {
      "inputs": [
        {
          "internalType": "uint256",
          "name": "",
          "type": "uint256"
        }
      ],
      "name": "requestIdToUser",
      "outputs": [
        {
          "internalType": "address",
          "name": "",
          "type": "address"
        }
      ],
      "stateMutability": "view",
      "type": "function"
    },
    {
      "inputs": [
        {
          "internalType": "bytes32",
          "name": "role",
          "type": "bytes32"
        },
        {
          "internalType": "address",
          "name": "account",
          "type": "address"
        }
      ],
      "name": "revokeRole",
      "outputs": [],
      "stateMutability": "nonpayable",
      "type": "function"
    },
    {
      "inputs": [
        {
          "internalType": "address",
          "name": "from",
          "type": "address"
        },
        {
          "internalType": "address",
          "name": "to",
          "type": "address"
        },
        {
          "internalType": "uint256",
          "name": "tokenId",
          "type": "uint256"
        }
      ],
      "name": "safeTransferFrom",
      "outputs": [],
      "stateMutability": "nonpayable",
      "type": "function"
    },
    {
      "inputs": [
        {
          "internalType": "address",
          "name": "from",
          "type": "address"
        },
        {
          "internalType": "address",
          "name": "to",
          "type": "address"
        },
        {
          "internalType": "uint256",
          "name": "tokenId",
          "type": "uint256"
        },
        {
          "internalType": "bytes",
          "name": "_data",
          "type": "bytes"
        }
      ],
      "name": "safeTransferFrom",
      "outputs": [],
      "stateMutability": "nonpayable",
      "type": "function"
    },
    {
      "inputs": [
        {
          "internalType": "address",
          "name": "from",
          "type": "address"
        },
        {
          "internalType": "address",
          "name": "to",
          "type": "address"
        },
        {
          "internalType": "uint256[]",
          "name": "tokenIds",
          "type": "uint256[]"
        }
      ],
      "name": "safeTransferFromBatch",
      "outputs": [],
      "stateMutability": "nonpayable",
      "type": "function"
    },
    {
      "inputs": [
        {
          "internalType": "uint256",
          "name": "",
          "type": "uint256"
        }
      ],
      "name": "sbIdToType",
      "outputs": [
        {
          "internalType": "uint256",
          "name": "",
          "type": "uint256"
        }
      ],
      "stateMutability": "view",
      "type": "function"
    },
    {
      "inputs": [
        {
          "internalType": "address",
          "name": "snAddr",
          "type": "address"
        },
        {
          "internalType": "address",
          "name": "invitingAddr",
          "type": "address"
        }
      ],
      "name": "setAddrs",
      "outputs": [],
      "stateMutability": "nonpayable",
      "type": "function"
    },
    {
      "inputs": [
        {
          "internalType": "address",
          "name": "operator",
          "type": "address"
        },
        {
          "internalType": "bool",
          "name": "approved",
          "type": "bool"
        }
      ],
      "name": "setApprovalForAll",
      "outputs": [],
      "stateMutability": "nonpayable",
      "type": "function"
    },
    {
      "inputs": [
        {
          "internalType": "string",
          "name": "uri",
          "type": "string"
        }
      ],
      "name": "setBaseURI",
      "outputs": [],
      "stateMutability": "nonpayable",
      "type": "function"
    },
    {
      "inputs": [
        {
          "internalType": "uint256",
          "name": "boxType",
          "type": "uint256"
        },
        {
          "internalType": "uint256",
          "name": "boxTokenPrice",
          "type": "uint256"
        },
        {
          "internalType": "address",
          "name": "tokenAddr",
          "type": "address"
        },
        {
          "internalType": "address",
          "name": "receivingAddr",
          "type": "address"
        },
        {
          "internalType": "uint256",
          "name": "hourlyBuyLimit",
          "type": "uint256"
        },
        {
          "internalType": "bool",
          "name": "whiteListFlag",
          "type": "bool"
        },
        {
          "internalType": "uint256[]",
          "name": "starsProbability",
          "type": "uint256[]"
        },
        {
          "internalType": "uint256[]",
          "name": "powerProbability",
          "type": "uint256[]"
        },
        {
          "internalType": "uint256[]",
          "name": "partProbability",
          "type": "uint256[]"
        }
      ],
      "name": "setBoxInfo",
      "outputs": [],
      "stateMutability": "nonpayable",
      "type": "function"
    },
    {
      "inputs": [
        {
          "internalType": "bytes32",
          "name": "_keyHash",
          "type": "bytes32"
        },
        {
          "internalType": "uint32",
          "name": "_callbackGasLimit",
          "type": "uint32"
        },
        {
          "internalType": "uint16",
          "name": "_requestConfirmations",
          "type": "uint16"
        }
      ],
      "name": "setVrfInfo",
      "outputs": [],
      "stateMutability": "nonpayable",
      "type": "function"
    },
    {
      "inputs": [],
      "name": "sn",
      "outputs": [
        {
          "internalType": "contract ISN",
          "name": "",
          "type": "address"
        }
      ],
      "stateMutability": "view",
      "type": "function"
    },
    {
      "inputs": [
        {
          "internalType": "uint256",
          "name": "",
          "type": "uint256"
        },
        {
          "internalType": "uint256",
          "name": "",
          "type": "uint256"
        }
      ],
      "name": "starsProbabilities",
      "outputs": [
        {
          "internalType": "uint256",
          "name": "",
          "type": "uint256"
        }
      ],
      "stateMutability": "view",
      "type": "function"
    },
    {
      "inputs": [],
      "name": "subscriptionId",
      "outputs": [
        {
          "internalType": "uint64",
          "name": "",
          "type": "uint64"
        }
      ],
      "stateMutability": "view",
      "type": "function"
    },
    {
      "inputs": [
        {
          "internalType": "bytes4",
          "name": "interfaceId",
          "type": "bytes4"
        }
      ],
      "name": "supportsInterface",
      "outputs": [
        {
          "internalType": "bool",
          "name": "",
          "type": "bool"
        }
      ],
      "stateMutability": "view",
      "type": "function"
    },
    {
      "inputs": [],
      "name": "symbol",
      "outputs": [
        {
          "internalType": "string",
          "name": "",
          "type": "string"
        }
      ],
      "stateMutability": "view",
      "type": "function"
    },
    {
      "inputs": [
        {
          "internalType": "uint256",
          "name": "",
          "type": "uint256"
        }
      ],
      "name": "tokenAddrs",
      "outputs": [
        {
          "internalType": "address",
          "name": "",
          "type": "address"
        }
      ],
      "stateMutability": "view",
      "type": "function"
    },
    {
      "inputs": [
        {
          "internalType": "uint256",
          "name": "index",
          "type": "uint256"
        }
      ],
      "name": "tokenByIndex",
      "outputs": [
        {
          "internalType": "uint256",
          "name": "",
          "type": "uint256"
        }
      ],
      "stateMutability": "view",
      "type": "function"
    },
    {
      "inputs": [
        {
          "internalType": "address",
          "name": "owner",
          "type": "address"
        },
        {
          "internalType": "uint256",
          "name": "index",
          "type": "uint256"
        }
      ],
      "name": "tokenOfOwnerByIndex",
      "outputs": [
        {
          "internalType": "uint256",
          "name": "",
          "type": "uint256"
        }
      ],
      "stateMutability": "view",
      "type": "function"
    },
    {
      "inputs": [
        {
          "internalType": "uint256",
          "name": "tokenId",
          "type": "uint256"
        }
      ],
      "name": "tokenURI",
      "outputs": [
        {
          "internalType": "string",
          "name": "",
          "type": "string"
        }
      ],
      "stateMutability": "view",
      "type": "function"
    },
    {
      "inputs": [
        {
          "internalType": "address",
          "name": "user",
          "type": "address"
        },
        {
          "internalType": "uint256",
          "name": "cursor",
          "type": "uint256"
        },
        {
          "internalType": "uint256",
          "name": "size",
          "type": "uint256"
        }
      ],
      "name": "tokensOfOwnerBySize",
      "outputs": [
        {
          "internalType": "uint256[]",
          "name": "",
          "type": "uint256[]"
        },
        {
          "internalType": "uint256",
          "name": "",
          "type": "uint256"
        }
      ],
      "stateMutability": "view",
      "type": "function"
    },
    {
      "inputs": [
        {
          "internalType": "uint256",
          "name": "amount",
          "type": "uint256"
        }
      ],
      "name": "topUpSubscription",
      "outputs": [],
      "stateMutability": "nonpayable",
      "type": "function"
    },
    {
      "inputs": [
        {
          "internalType": "uint256",
          "name": "",
          "type": "uint256"
        }
      ],
      "name": "totalBoxesLength",
      "outputs": [
        {
          "internalType": "uint256",
          "name": "",
          "type": "uint256"
        }
      ],
      "stateMutability": "view",
      "type": "function"
    },
    {
      "inputs": [],
      "name": "totalSupply",
      "outputs": [
        {
          "internalType": "uint256",
          "name": "",
          "type": "uint256"
        }
      ],
      "stateMutability": "view",
      "type": "function"
    },
    {
      "inputs": [
        {
          "internalType": "address",
          "name": "from",
          "type": "address"
        },
        {
          "internalType": "address",
          "name": "to",
          "type": "address"
        },
        {
          "internalType": "uint256",
          "name": "tokenId",
          "type": "uint256"
        }
      ],
      "name": "transferFrom",
      "outputs": [],
      "stateMutability": "nonpayable",
      "type": "function"
    },
    {
      "inputs": [
        {
          "internalType": "address",
          "name": "",
          "type": "address"
        },
        {
          "internalType": "uint256",
          "name": "",
          "type": "uint256"
        },
        {
          "internalType": "uint256",
          "name": "",
          "type": "uint256"
        }
      ],
      "name": "userHourlyBoxesLength",
      "outputs": [
        {
          "internalType": "uint256",
          "name": "",
          "type": "uint256"
        }
      ],
      "stateMutability": "view",
      "type": "function"
    },
    {
      "inputs": [
        {
          "internalType": "address",
          "name": "",
          "type": "address"
        },
        {
          "internalType": "address",
          "name": "",
          "type": "address"
        }
      ],
      "name": "userTokenBuyAmount",
      "outputs": [
        {
          "internalType": "uint256",
          "name": "",
          "type": "uint256"
        }
      ],
      "stateMutability": "view",
      "type": "function"
    },
    {
      "inputs": [],
      "name": "vrfCoordinator",
      "outputs": [
        {
          "internalType": "address",
          "name": "",
          "type": "address"
        }
      ],
      "stateMutability": "view",
      "type": "function"
    },
    {
      "inputs": [
        {
          "internalType": "uint256",
          "name": "",
          "type": "uint256"
        }
      ],
      "name": "whiteListFlags",
      "outputs": [
        {
          "internalType": "bool",
          "name": "",
          "type": "bool"
        }
      ],
      "stateMutability": "view",
      "type": "function"
    }
  ],
  "bytecode": "0x60a060405273c587d9053cd1118f25f645f9e08bb98c9712a4ee600f60006101000a81548173ffffffffffffffffffffffffffffffffffffffff021916908373ffffffffffffffffffffffffffffffffffffffff16021790555073404460c6a5ede2d891e8297795264fde62adbb75601060006101000a81548173ffffffffffffffffffffffffffffffffffffffff021916908373ffffffffffffffffffffffffffffffffffffffff1602179055507f114f3da0a805b6a67d6e9cd2ec746f7028f1b7376365af575cfea3550dd1aa0460001b601155622625a0601260006101000a81548163ffffffff021916908363ffffffff1602179055506003601260046101000a81548161ffff021916908361ffff1602179055503480156200012457600080fd5b506040516200945c3803806200945c83398181016040528101906200014a919062000877565b600f60009054906101000a900473ffffffffffffffffffffffffffffffffffffffff166040518060400160405280601081526020017f536163726564205265616c6d20426f78000000000000000000000000000000008152506040518060400160405280600281526020017f53420000000000000000000000000000000000000000000000000000000000008152508160009080519060200190620001f19291906200075d565b5080600190805190602001906200020a9291906200075d565b5050506001600c819055508073ffffffffffffffffffffffffffffffffffffffff1660808173ffffffffffffffffffffffffffffffffffffffff1681525050506200025f6000801b33620004c560201b60201c565b620002917f241ecf16d79d0f8dbfb92cbc07fe17840425976cf0667f022fe9877caa831b0882620004c560201b60201c565b600f60009054906101000a900473ffffffffffffffffffffffffffffffffffffffff16600d60006101000a81548173ffffffffffffffffffffffffffffffffffffffff021916908373ffffffffffffffffffffffffffffffffffffffff160217905550601060009054906101000a900473ffffffffffffffffffffffffffffffffffffffff16600e60006101000a81548173ffffffffffffffffffffffffffffffffffffffff021916908373ffffffffffffffffffffffffffffffffffffffff160217905550600d60009054906101000a900473ffffffffffffffffffffffffffffffffffffffff1673ffffffffffffffffffffffffffffffffffffffff1663a21a23e46040518163ffffffff1660e01b81526004016020604051808303816000875af1158015620003c7573d6000803e3d6000fd5b505050506040513d601f19601f82011682018060405250810190620003ed9190620008ee565b601260066101000a81548167ffffffffffffffff021916908367ffffffffffffffff160217905550600d60009054906101000a900473ffffffffffffffffffffffffffffffffffffffff1673ffffffffffffffffffffffffffffffffffffffff16637341c10c601260069054906101000a900467ffffffffffffffff16306040518363ffffffff1660e01b81526004016200048a92919062000942565b600060405180830381600087803b158015620004a557600080fd5b505af1158015620004ba573d6000803e3d6000fd5b5050505050620009d4565b620004d78282620004db60201b60201c565b5050565b620004f282826200052360201b620038e41760201c565b6200051e81600b60008581526020019081526020016000206200061560201b620039c51790919060201c565b505050565b6200053582826200064d60201b60201c565b62000611576001600a600084815260200190815260200160002060000160008373ffffffffffffffffffffffffffffffffffffffff1673ffffffffffffffffffffffffffffffffffffffff16815260200190815260200160002060006101000a81548160ff021916908315150217905550620005b6620006b860201b60201c565b73ffffffffffffffffffffffffffffffffffffffff168173ffffffffffffffffffffffffffffffffffffffff16837f2f8788117e7eff1d82e926ec794901d17c78024a50270940304540a733656f0d60405160405180910390a45b5050565b600062000645836000018373ffffffffffffffffffffffffffffffffffffffff1660001b620006c060201b60201c565b905092915050565b6000600a600084815260200190815260200160002060000160008373ffffffffffffffffffffffffffffffffffffffff1673ffffffffffffffffffffffffffffffffffffffff16815260200190815260200160002060009054906101000a900460ff16905092915050565b600033905090565b6000620006d483836200073a60201b60201c565b6200072f57826000018290806001815401808255809150506001900390600052602060002001600090919091909150558260000180549050836001016000848152602001908152602001600020819055506001905062000734565b600090505b92915050565b600080836001016000848152602001908152602001600020541415905092915050565b8280546200076b906200099e565b90600052602060002090601f0160209004810192826200078f5760008555620007db565b82601f10620007aa57805160ff1916838001178555620007db565b82800160010185558215620007db579182015b82811115620007da578251825591602001919060010190620007bd565b5b509050620007ea9190620007ee565b5090565b5b8082111562000809576000816000905550600101620007ef565b5090565b600080fd5b600073ffffffffffffffffffffffffffffffffffffffff82169050919050565b60006200083f8262000812565b9050919050565b620008518162000832565b81146200085d57600080fd5b50565b600081519050620008718162000846565b92915050565b60006020828403121562000890576200088f6200080d565b5b6000620008a08482850162000860565b91505092915050565b600067ffffffffffffffff82169050919050565b620008c881620008a9565b8114620008d457600080fd5b50565b600081519050620008e881620008bd565b92915050565b6000602082840312156200090757620009066200080d565b5b60006200091784828501620008d7565b91505092915050565b6200092b81620008a9565b82525050565b6200093c8162000832565b82525050565b600060408201905062000959600083018562000920565b62000968602083018462000931565b9392505050565b7f4e487b7100000000000000000000000000000000000000000000000000000000600052602260045260246000fd5b60006002820490506001821680620009b757607f821691505b60208210811415620009ce57620009cd6200096f565b5b50919050565b608051618a65620009f76000396000818161169401526116e80152618a656000f3fe6080604052600436106104055760003560e01c80636b4a850d11610213578063acfd5eed11610123578063d547741f116100ab578063ecc010db1161007a578063ecc010db146110dd578063f11a25b41461111a578063f608381f14611143578063f872bec014611180578063ffbc933d146111ab57610405565b8063d547741f1461100f578063dc7d73bb14611038578063e985e9c514611075578063ec87621c146110b257610405565b8063be2de8f2116100f2578063be2de8f214610ef2578063bf9d48b514610f2f578063c87b56dd14610f6c578063ca15c87314610fa9578063d37ae01314610fe657610405565b8063acfd5eed14610e24578063b0fb162f14610e61578063b88d4fde14610e8c578063bc952d2e14610eb557610405565b806391d14854116101a6578063a18dd60411610175578063a18dd60414610d2b578063a217fddf14610d68578063a22cb46514610d93578063a3e56fa814610dbc578063a72f3bd414610de757610405565b806391d1485414610c7157806393d81d5814610cae57806395d89b4114610cd75780639718a93b14610d0257610405565b806386850e93116101e257806386850e9314610ba55780638a6a686714610bce5780639010d07c14610bf7578063915044ec14610c3457610405565b80636b4a850d14610ac25780636c0360eb14610aff57806370a0823114610b2a578063854ec1af14610b6757610405565b80632f2ff15d116103195780634b056743116102a157806355380dfb1161027057806355380dfb146109ea57806355f804b314610a1557806361728f3914610a3e5780636352211e14610a695780636aa2bd1e14610aa657610405565b80634b056743146108f65780634baeba27146109335780634d37d731146109705780634f6ccce7146109ad57610405565b806338aa3815116102e857806338aa3815146108135780633b2bcbf11461083c5780633e52d5c6146108675780633f7bab011461089057806342842e0e146108cd57610405565b80632f2ff15d146107595780632f745c59146107825780633633aa75146107bf57806336568abe146107ea57610405565b806318160ddd1161039c5780631fe543e31161036b5780631fe543e31461066257806323b872dd1461068b578063248a9ca3146106b457806324f74697146106f157806327f0c2d11461071c57610405565b806318160ddd146105945780631bbbced7146105bf5780631c42920c146105e85780631e9eca4b1461062557610405565b8063081812fc116103d8578063081812fc146104d8578063095ea7b31461051557806309c1ba2e1461053e5780630c74dcc91461056957610405565b806301ffc9a71461040a57806304886e351461044757806305b1e3be1461048457806306fdde03146104ad575b600080fd5b34801561041657600080fd5b50610431600480360381019061042c9190615da9565b6111e8565b60405161043e9190615df1565b60405180910390f35b34801561045357600080fd5b5061046e60048036038101906104699190615e42565b6111fa565b60405161047b9190615e91565b60405180910390f35b34801561049057600080fd5b506104ab60048036038101906104a69190616063565b61122b565b005b3480156104b957600080fd5b506104c26112fb565b6040516104cf9190616147565b60405180910390f35b3480156104e457600080fd5b506104ff60048036038101906104fa9190616169565b61138d565b60405161050c91906161a5565b60405180910390f35b34801561052157600080fd5b5061053c600480360381019061053791906161c0565b611412565b005b34801561054a57600080fd5b5061055361152a565b6040516105609190616223565b60405180910390f35b34801561057557600080fd5b5061057e611544565b60405161058b919061629d565b60405180910390f35b3480156105a057600080fd5b506105a961156a565b6040516105b69190615e91565b60405180910390f35b3480156105cb57600080fd5b506105e660048036038101906105e19190616063565b611577565b005b3480156105f457600080fd5b5061060f600480360381019061060a9190616169565b611647565b60405161061c9190615e91565b60405180910390f35b34801561063157600080fd5b5061064c60048036038101906106479190616169565b61165f565b60405161065991906161a5565b60405180910390f35b34801561066e57600080fd5b506106896004803603810190610684919061637b565b611692565b005b34801561069757600080fd5b506106b260048036038101906106ad91906163d7565b611752565b005b3480156106c057600080fd5b506106db60048036038101906106d69190616460565b6117b2565b6040516106e8919061649c565b60405180910390f35b3480156106fd57600080fd5b506107066117d2565b60405161071391906164d6565b60405180910390f35b34801561072857600080fd5b50610743600480360381019061073e91906164f1565b6117e8565b6040516107509190615e91565b60405180910390f35b34801561076557600080fd5b50610780600480360381019061077b9190616544565b61181a565b005b34801561078e57600080fd5b506107a960048036038101906107a491906161c0565b611843565b6040516107b69190615e91565b60405180910390f35b3480156107cb57600080fd5b506107d46118e8565b6040516107e191906161a5565b60405180910390f35b3480156107f657600080fd5b50610811600480360381019061080c9190616544565b61190e565b005b34801561081f57600080fd5b5061083a60048036038101906108359190616584565b611991565b005b34801561084857600080fd5b506108516119db565b60405161085e9190616614565b60405180910390f35b34801561087357600080fd5b5061088e6004803603810190610889919061662f565b611a01565b005b34801561089c57600080fd5b506108b760048036038101906108b29190616169565b611d34565b6040516108c49190615e91565b60405180910390f35b3480156108d957600080fd5b506108f460048036038101906108ef91906163d7565b611d6f565b005b34801561090257600080fd5b5061091d60048036038101906109189190616169565b611d8f565b60405161092a9190615e91565b60405180910390f35b34801561093f57600080fd5b5061095a60048036038101906109559190616678565b611da7565b6040516109679190615df1565b60405180910390f35b34801561097c57600080fd5b5061099760048036038101906109929190616169565b611dd6565b6040516109a49190615e91565b60405180910390f35b3480156109b957600080fd5b506109d460048036038101906109cf9190616169565b611dee565b6040516109e19190615e91565b60405180910390f35b3480156109f657600080fd5b506109ff611e5f565b604051610a0c91906166d9565b60405180910390f35b348015610a2157600080fd5b50610a3c6004803603810190610a3791906167a9565b611e85565b005b348015610a4a57600080fd5b50610a53611f09565b604051610a60919061649c565b60405180910390f35b348015610a7557600080fd5b50610a906004803603810190610a8b9190616169565b611f0f565b604051610a9d91906161a5565b60405180910390f35b610ac06004803603810190610abb91906167f2565b611fc1565b005b348015610ace57600080fd5b50610ae96004803603810190610ae49190616845565b6129be565b604051610af69190615e91565b60405180910390f35b348015610b0b57600080fd5b50610b14612a35565b604051610b219190616147565b60405180910390f35b348015610b3657600080fd5b50610b516004803603810190610b4c91906168a1565b612ac3565b604051610b5e9190615e91565b60405180910390f35b348015610b7357600080fd5b50610b8e6004803603810190610b8991906164f1565b612b7b565b604051610b9c92919061698c565b60405180910390f35b348015610bb157600080fd5b50610bcc6004803603810190610bc79190616169565b612c70565b005b348015610bda57600080fd5b50610bf56004803603810190610bf09190615e42565b612da0565b005b348015610c0357600080fd5b50610c1e6004803603810190610c1991906169bc565b612e3a565b604051610c2b91906161a5565b60405180910390f35b348015610c4057600080fd5b50610c5b6004803603810190610c569190616169565b612e69565b604051610c6891906161a5565b60405180910390f35b348015610c7d57600080fd5b50610c986004803603810190610c939190616544565b612e9c565b604051610ca59190615df1565b60405180910390f35b348015610cba57600080fd5b50610cd56004803603810190610cd091906168a1565b612f07565b005b348015610ce357600080fd5b50610cec61300c565b604051610cf99190616147565b60405180910390f35b348015610d0e57600080fd5b50610d296004803603810190610d2491906169fc565b61309e565b005b348015610d3757600080fd5b50610d526004803603810190610d4d91906169fc565b613190565b604051610d5f9190615e91565b60405180910390f35b348015610d7457600080fd5b50610d7d6131b5565b604051610d8a919061649c565b60405180910390f35b348015610d9f57600080fd5b50610dba6004803603810190610db59190616a68565b6131bc565b005b348015610dc857600080fd5b50610dd16131d2565b604051610dde91906161a5565b60405180910390f35b348015610df357600080fd5b50610e0e6004803603810190610e099190616169565b6131f8565b604051610e1b9190615e91565b60405180910390f35b348015610e3057600080fd5b50610e4b6004803603810190610e469190616169565b613210565b604051610e589190615e91565b60405180910390f35b348015610e6d57600080fd5b50610e76613228565b604051610e839190616ac5565b60405180910390f35b348015610e9857600080fd5b50610eb36004803603810190610eae9190616b81565b61323c565b005b348015610ec157600080fd5b50610edc6004803603810190610ed79190615e42565b61329e565b604051610ee99190615e91565b60405180910390f35b348015610efe57600080fd5b50610f196004803603810190610f149190616c04565b6132cf565b604051610f269190615e91565b60405180910390f35b348015610f3b57600080fd5b50610f566004803603810190610f519190615e42565b613367565b604051610f639190615e91565b60405180910390f35b348015610f7857600080fd5b50610f936004803603810190610f8e9190616169565b613397565b604051610fa09190616147565b60405180910390f35b348015610fb557600080fd5b50610fd06004803603810190610fcb9190616460565b61345c565b604051610fdd9190615e91565b60405180910390f35b348015610ff257600080fd5b5061100d60048036038101906110089190616caf565b613480565b005b34801561101b57600080fd5b5061103660048036038101906110319190616544565b613538565b005b34801561104457600080fd5b5061105f600480360381019061105a9190616169565b613561565b60405161106c91906161a5565b60405180910390f35b34801561108157600080fd5b5061109c600480360381019061109791906169fc565b613594565b6040516110a99190615df1565b60405180910390f35b3480156110be57600080fd5b506110c7613628565b6040516110d4919061649c565b60405180910390f35b3480156110e957600080fd5b5061110460048036038101906110ff9190616169565b61364c565b6040516111119190615df1565b60405180910390f35b34801561112657600080fd5b50611141600480360381019061113c9190616d02565b61366c565b005b34801561114f57600080fd5b5061116a60048036038101906111659190615e42565b613868565b6040516111779190615e91565b60405180910390f35b34801561118c57600080fd5b50611195613899565b6040516111a29190616e41565b60405180910390f35b3480156111b757600080fd5b506111d260048036038101906111cd91906169fc565b6138bf565b6040516111df9190615e91565b60405180910390f35b60006111f3826139f5565b9050919050565b601e602052816000526040600020818154811061121657600080fd5b90600052602060002001600091509150505481565b7f241ecf16d79d0f8dbfb92cbc07fe17840425976cf0667f022fe9877caa831b0861125d81611258613a6f565b613a77565b60005b82518110156112bc576112a883828151811061127f5761127e616e5c565b5b6020026020010151602460008781526020019081526020016000206139c590919063ffffffff16565b5080806112b490616eba565b915050611260565b507f65c140369b70af10d0ae5085553f8772643e41f37033fc2dd41441787eb5724683836040516112ee929190616fc1565b60405180910390a1505050565b60606000805461130a90617020565b80601f016020809104026020016040519081016040528092919081815260200182805461133690617020565b80156113835780601f1061135857610100808354040283529160200191611383565b820191906000526020600020905b81548152906001019060200180831161136657829003601f168201915b5050505050905090565b600061139882613b14565b6113d7576040517f08c379a00000000000000000000000000000000000000000000000000000000081526004016113ce906170c4565b60405180910390fd5b6004600083815260200190815260200160002060009054906101000a900473ffffffffffffffffffffffffffffffffffffffff169050919050565b600061141d82611f0f565b90508073ffffffffffffffffffffffffffffffffffffffff168373ffffffffffffffffffffffffffffffffffffffff16141561148e576040517f08c379a000000000000000000000000000000000000000000000000000000000815260040161148590617156565b60405180910390fd5b8073ffffffffffffffffffffffffffffffffffffffff166114ad613a6f565b73ffffffffffffffffffffffffffffffffffffffff1614806114dc57506114db816114d6613a6f565b613594565b5b61151b576040517f08c379a0000000000000000000000000000000000000000000000000000000008152600401611512906171e8565b60405180910390fd5b6115258383613b80565b505050565b601260069054906101000a900467ffffffffffffffff1681565b601660009054906101000a900473ffffffffffffffffffffffffffffffffffffffff1681565b6000600880549050905090565b7f241ecf16d79d0f8dbfb92cbc07fe17840425976cf0667f022fe9877caa831b086115a9816115a4613a6f565b613a77565b60005b8251811015611608576115f48382815181106115cb576115ca616e5c565b5b602002602001015160246000878152602001908152602001600020613c3990919063ffffffff16565b50808061160090616eba565b9150506115ac565b507fd97b1d4cbbbdeb588e5787219a02ccd8844679b3a012e38f28a1b16cc557e834838360405161163a929190616fc1565b60405180910390a1505050565b60216020528060005260406000206000915090505481565b601b6020528060005260406000206000915054906101000a900473ffffffffffffffffffffffffffffffffffffffff1681565b7f000000000000000000000000000000000000000000000000000000000000000073ffffffffffffffffffffffffffffffffffffffff163373ffffffffffffffffffffffffffffffffffffffff161461174457337f00000000000000000000000000000000000000000000000000000000000000006040517f1cf993f400000000000000000000000000000000000000000000000000000000815260040161173b929190617208565b60405180910390fd5b61174e8282613c69565b5050565b61176361175d613a6f565b826142d1565b6117a2576040517f08c379a0000000000000000000000000000000000000000000000000000000008152600401611799906172a3565b60405180910390fd5b6117ad8383836143af565b505050565b6000600a6000838152602001908152602001600020600101549050919050565b601260009054906101000a900463ffffffff1681565b602360205282600052604060002060205281600052604060002060205280600052604060002060009250925050505481565b611823826117b2565b6118348161182f613a6f565b613a77565b61183e8383614616565b505050565b600061184e83612ac3565b821061188f576040517f08c379a000000000000000000000000000000000000000000000000000000000815260040161188690617335565b60405180910390fd5b600660008473ffffffffffffffffffffffffffffffffffffffff1673ffffffffffffffffffffffffffffffffffffffff168152602001908152602001600020600083815260200190815260200160002054905092915050565b601060009054906101000a900473ffffffffffffffffffffffffffffffffffffffff1681565b611916613a6f565b73ffffffffffffffffffffffffffffffffffffffff168173ffffffffffffffffffffffffffffffffffffffff1614611983576040517f08c379a000000000000000000000000000000000000000000000000000000000815260040161197a906173c7565b60405180910390fd5b61198d828261464a565b5050565b60005b81518110156119d5576119c284848484815181106119b5576119b4616e5c565b5b6020026020010151611d6f565b80806119cd90616eba565b915050611994565b50505050565b600d60009054906101000a900473ffffffffffffffffffffffffffffffffffffffff1681565b6002600c541415611a47576040517f08c379a0000000000000000000000000000000000000000000000000000000008152600401611a3e90617433565b60405180910390fd5b6002600c819055506000815111611a93576040517f08c379a0000000000000000000000000000000000000000000000000000000008152600401611a8a9061749f565b60405180910390fd5b6000815167ffffffffffffffff811115611ab057611aaf615ec2565b5b604051908082528060200260200182016040528015611ade5781602001602082028036833780820191505090505b50905060005b8251811015611b745760186000848381518110611b0457611b03616e5c565b5b6020026020010151815260200190815260200160002054828281518110611b2e57611b2d616e5c565b5b602002602001018181525050611b613361dead858481518110611b5457611b53616e5c565b5b6020026020010151611d6f565b8080611b6c90616eba565b915050611ae4565b506000600d60009054906101000a900473ffffffffffffffffffffffffffffffffffffffff1673ffffffffffffffffffffffffffffffffffffffff16635d3b1d30601154601260069054906101000a900467ffffffffffffffff16601260049054906101000a900461ffff16601260009054906101000a900463ffffffff1688516040518663ffffffff1660e01b8152600401611c159594939291906174bf565b6020604051808303816000875af1158015611c34573d6000803e3d6000fd5b505050506040513d601f19601f82011682018060405250810190611c589190617527565b9050336013600083815260200190815260200160002060006101000a81548173ffffffffffffffffffffffffffffffffffffffff021916908373ffffffffffffffffffffffffffffffffffffffff16021790555081601460008381526020019081526020016000209080519060200190611cd3929190615c4d565b503373ffffffffffffffffffffffffffffffffffffffff167f6469f394585fa20516cd29f9195504c0762fa8f7286f2cdb9b502c3c9ee7d43684518585604051611d1f93929190617554565b60405180910390a250506001600c8190555050565b600060226000838152602001908152602001600020546021600084815260200190815260200160002054611d689190617599565b9050919050565b611d8a8383836040518060200160405280600081525061323c565b505050565b60196020528060005260406000206000915090505481565b6000611dce826024600086815260200190815260200160002061467e90919063ffffffff16565b905092915050565b60226020528060005260406000206000915090505481565b6000611df861156a565b8210611e39576040517f08c379a0000000000000000000000000000000000000000000000000000000008152600401611e309061763f565b60405180910390fd5b60088281548110611e4d57611e4c616e5c565b5b90600052602060002001549050919050565b600e60009054906101000a900473ffffffffffffffffffffffffffffffffffffffff1681565b7f241ecf16d79d0f8dbfb92cbc07fe17840425976cf0667f022fe9877caa831b08611eb781611eb2613a6f565b613a77565b8160179080519060200190611ecd929190615c9a565b507f23c8c9488efebfd474e85a7956de6f39b17c7ab88502d42a623db2d8e382bbaa82604051611efd9190616147565b60405180910390a15050565b60115481565b6000806002600084815260200190815260200160002060009054906101000a900473ffffffffffffffffffffffffffffffffffffffff169050600073ffffffffffffffffffffffffffffffffffffffff168173ffffffffffffffffffffffffffffffffffffffff161415611fb8576040517f08c379a0000000000000000000000000000000000000000000000000000000008152600401611faf906176d1565b60405180910390fd5b80915050919050565b6002600c541415612007576040517f08c379a0000000000000000000000000000000000000000000000000000000008152600401611ffe90617433565b60405180910390fd5b6002600c8190555060008311612052576040517f08c379a00000000000000000000000000000000000000000000000000000000081526004016120499061749f565b60405180910390fd5b8261205e8333426132cf565b101561209f576040517f08c379a000000000000000000000000000000000000000000000000000000000815260040161209690617763565b60405180910390fd5b826120a983611d34565b10156120ea576040517f08c379a00000000000000000000000000000000000000000000000000000000081526004016120e1906177cf565b60405180910390fd5b6000601960008481526020019081526020016000205411612140576040517f08c379a000000000000000000000000000000000000000000000000000000000815260040161213790617861565b60405180910390fd5b600073ffffffffffffffffffffffffffffffffffffffff16601b600084815260200190815260200160002060009054906101000a900473ffffffffffffffffffffffffffffffffffffffff1673ffffffffffffffffffffffffffffffffffffffff1614156121e3576040517f08c379a00000000000000000000000000000000000000000000000000000000081526004016121da906178f3565b60405180910390fd5b600b601e6000848152602001908152602001600020805490501461223c576040517f08c379a000000000000000000000000000000000000000000000000000000000815260040161223390617985565b60405180910390fd5b6005601f60008481526020019081526020016000208054905014612295576040517f08c379a000000000000000000000000000000000000000000000000000000000815260040161228c90617a17565b60405180910390fd5b60086020600084815260200190815260200160002080549050146122ee576040517f08c379a00000000000000000000000000000000000000000000000000000000081526004016122e590617aa9565b60405180910390fd5b601d600083815260200190815260200160002060009054906101000a900460ff161561237957612339336024600085815260200190815260200160002061467e90919063ffffffff16565b612378576040517f08c379a000000000000000000000000000000000000000000000000000000000815260040161236f90617b3b565b60405180910390fd5b5b600060196000848152602001908152602001600020548461239a9190617b5b565b9050600073ffffffffffffffffffffffffffffffffffffffff16601a600085815260200190815260200160002060009054906101000a900473ffffffffffffffffffffffffffffffffffffffff1673ffffffffffffffffffffffffffffffffffffffff1614156124c557803414612446576040517f08c379a000000000000000000000000000000000000000000000000000000000815260040161243d90617c01565b60405180910390fd5b601b600084815260200190815260200160002060009054906101000a900473ffffffffffffffffffffffffffffffffffffffff1673ffffffffffffffffffffffffffffffffffffffff166108fc829081150290604051600060405180830381858888f193505050501580156124bf573d6000803e3d6000fd5b5061255f565b6000601a600085815260200190815260200160002060009054906101000a900473ffffffffffffffffffffffffffffffffffffffff16905061255d33601b600087815260200190815260200160002060009054906101000a900473ffffffffffffffffffffffffffffffffffffffff16848473ffffffffffffffffffffffffffffffffffffffff166146ae909392919063ffffffff16565b505b60008467ffffffffffffffff81111561257b5761257a615ec2565b5b6040519080825280602002602001820160405280156125a95781602001602082028036833780820191505090505b50905060005b85811015612647576125bf61156a565b8282815181106125d2576125d1616e5c565b5b60200260200101818152505084601860008484815181106125f6576125f5616e5c565b5b60200260200101518152602001908152602001600020819055506126343383838151811061262757612626616e5c565b5b6020026020010151614737565b808061263f90616eba565b9150506125af565b5084602360003373ffffffffffffffffffffffffffffffffffffffff1673ffffffffffffffffffffffffffffffffffffffff16815260200190815260200160002060008681526020019081526020016000206000610e10426126a99190617c50565b815260200190815260200160002060008282546126c69190617c81565b92505081905550846022600086815260200190815260200160002060008282546126f09190617c81565b9250508190555081602560003373ffffffffffffffffffffffffffffffffffffffff1673ffffffffffffffffffffffffffffffffffffffff1681526020019081526020016000206000601a600088815260200190815260200160002060009054906101000a900473ffffffffffffffffffffffffffffffffffffffff1673ffffffffffffffffffffffffffffffffffffffff1673ffffffffffffffffffffffffffffffffffffffff16815260200190815260200160002060008282546127b69190617c81565b925050819055506000601660009054906101000a900473ffffffffffffffffffffffffffffffffffffffff1673ffffffffffffffffffffffffffffffffffffffff166330e8518f33866040518363ffffffff1660e01b815260040161281c929190617208565b6020604051808303816000875af115801561283b573d6000803e3d6000fd5b505050506040513d601f19601f8201168201806040525081019061285f9190617cec565b9050600073ffffffffffffffffffffffffffffffffffffffff168173ffffffffffffffffffffffffffffffffffffffff161461295c5782602660008373ffffffffffffffffffffffffffffffffffffffff1673ffffffffffffffffffffffffffffffffffffffff1681526020019081526020016000206000601a600089815260200190815260200160002060009054906101000a900473ffffffffffffffffffffffffffffffffffffffff1673ffffffffffffffffffffffffffffffffffffffff1673ffffffffffffffffffffffffffffffffffffffff16815260200190815260200160002060008282546129549190617c81565b925050819055505b3373ffffffffffffffffffffffffffffffffffffffff167f0badb0ca8b7a0f90fdc0e2782b708af448dbede2dfc259e09d8e4f7bc36589c78784886040516129a693929190617d19565b60405180910390a25050506001600c81905550505050565b600080600080600090505b8551811015612a1d578581815181106129e5576129e4616e5c565b5b6020026020010151836129f89190617c81565b925082851015612a0a57809150612a1d565b8080612a1590616eba565b9150506129c9565b50600181612a2b9190617c81565b9250505092915050565b60178054612a4290617020565b80601f0160208091040260200160405190810160405280929190818152602001828054612a6e90617020565b8015612abb5780601f10612a9057610100808354040283529160200191612abb565b820191906000526020600020905b815481529060010190602001808311612a9e57829003601f168201915b505050505081565b60008073ffffffffffffffffffffffffffffffffffffffff168273ffffffffffffffffffffffffffffffffffffffff161415612b34576040517f08c379a0000000000000000000000000000000000000000000000000000000008152600401612b2b90617dc9565b60405180910390fd5b600360008373ffffffffffffffffffffffffffffffffffffffff1673ffffffffffffffffffffffffffffffffffffffff168152602001908152602001600020549050919050565b606060008083905084612b8d87612ac3565b612b979190617599565b811115612bb55784612ba887612ac3565b612bb29190617599565b90505b60008167ffffffffffffffff811115612bd157612bd0615ec2565b5b604051908082528060200260200182016040528015612bff5781602001602082028036833780820191505090505b50905060005b82811015612c5457612c22888289612c1d9190617c81565b611843565b828281518110612c3557612c34616e5c565b5b6020026020010181815250508080612c4c90616eba565b915050612c05565b50808287612c629190617c81565b935093505050935093915050565b7f241ecf16d79d0f8dbfb92cbc07fe17840425976cf0667f022fe9877caa831b08612ca281612c9d613a6f565b613a77565b600e60009054906101000a900473ffffffffffffffffffffffffffffffffffffffff1673ffffffffffffffffffffffffffffffffffffffff16634000aea0600d60009054906101000a900473ffffffffffffffffffffffffffffffffffffffff1684601260069054906101000a900467ffffffffffffffff16604051602001612d2b9190616223565b6040516020818303038152906040526040518463ffffffff1660e01b8152600401612d5893929190617e3e565b6020604051808303816000875af1158015612d77573d6000803e3d6000fd5b505050506040513d601f19601f82011682018060405250810190612d9b9190617e91565b505050565b7f241ecf16d79d0f8dbfb92cbc07fe17840425976cf0667f022fe9877caa831b08612dd281612dcd613a6f565b613a77565b82602160008481526020019081526020016000206000828254612df59190617c81565b925050819055507f5a6366ce46036f9fea2906d9a4ee6e497062c982be021c762e1af1ccc6c373348383604051612e2d929190617ebe565b60405180910390a1505050565b6000612e6182600b600086815260200190815260200160002061475590919063ffffffff16565b905092915050565b601a6020528060005260406000206000915054906101000a900473ffffffffffffffffffffffffffffffffffffffff1681565b6000600a600084815260200190815260200160002060000160008373ffffffffffffffffffffffffffffffffffffffff1673ffffffffffffffffffffffffffffffffffffffff16815260200190815260200160002060009054906101000a900460ff16905092915050565b7f241ecf16d79d0f8dbfb92cbc07fe17840425976cf0667f022fe9877caa831b08612f3981612f34613a6f565b613a77565b600d60009054906101000a900473ffffffffffffffffffffffffffffffffffffffff1673ffffffffffffffffffffffffffffffffffffffff1663d7ae1d30601260069054906101000a900467ffffffffffffffff16846040518363ffffffff1660e01b8152600401612fac929190617ee7565b600060405180830381600087803b158015612fc657600080fd5b505af1158015612fda573d6000803e3d6000fd5b505050506000601260066101000a81548167ffffffffffffffff021916908367ffffffffffffffff1602179055505050565b60606001805461301b90617020565b80601f016020809104026020016040519081016040528092919081815260200182805461304790617020565b80156130945780601f1061306957610100808354040283529160200191613094565b820191906000526020600020905b81548152906001019060200180831161307757829003601f168201915b5050505050905090565b7f241ecf16d79d0f8dbfb92cbc07fe17840425976cf0667f022fe9877caa831b086130d0816130cb613a6f565b613a77565b82601560006101000a81548173ffffffffffffffffffffffffffffffffffffffff021916908373ffffffffffffffffffffffffffffffffffffffff16021790555081601660006101000a81548173ffffffffffffffffffffffffffffffffffffffff021916908373ffffffffffffffffffffffffffffffffffffffff1602179055507f17a210d05f0d83f234a5500d361358d453f15293eff4676364db5ae8e884e36f8383604051613183929190617208565b60405180910390a1505050565b6026602052816000526040600020602052806000526040600020600091509150505481565b6000801b81565b6131ce6131c7613a6f565b838361476f565b5050565b600f60009054906101000a900473ffffffffffffffffffffffffffffffffffffffff1681565b601c6020528060005260406000206000915090505481565b60186020528060005260406000206000915090505481565b601260049054906101000a900461ffff1681565b61324d613247613a6f565b836142d1565b61328c576040517f08c379a0000000000000000000000000000000000000000000000000000000008152600401613283906172a3565b60405180910390fd5b613298848484846148dc565b50505050565b601460205281600052604060002081815481106132ba57600080fd5b90600052602060002001600091509150505481565b6000602360008473ffffffffffffffffffffffffffffffffffffffff1673ffffffffffffffffffffffffffffffffffffffff16815260200190815260200160002060008581526020019081526020016000206000610e10846133319190617c50565b815260200190815260200160002054601c60008681526020019081526020016000205461335e9190617599565b90509392505050565b60208052816000526040600020818154811061338257600080fd5b90600052602060002001600091509150505481565b60606133a282613b14565b6133e1576040517f08c379a00000000000000000000000000000000000000000000000000000000081526004016133d890617f82565b60405180910390fd5b6000601780546133f090617020565b90501161340c5760405180602001604052806000815250613455565b601761341783614938565b6134336018600086815260200190815260200160002054614938565b604051602001613445939291906180be565b6040516020818303038152906040525b9050919050565b6000613479600b6000848152602001908152602001600020614a99565b9050919050565b7f241ecf16d79d0f8dbfb92cbc07fe17840425976cf0667f022fe9877caa831b086134b2816134ad613a6f565b613a77565b8360118190555082601260006101000a81548163ffffffff021916908363ffffffff16021790555081601260046101000a81548161ffff021916908361ffff1602179055507f612ba1742bba3159e8abd185471e4d96f8e0dc2bc8e01b96e2a937cd681a5c4c84848460405161352a939291906180fa565b60405180910390a150505050565b613541826117b2565b6135528161354d613a6f565b613a77565b61355c838361464a565b505050565b60136020528060005260406000206000915054906101000a900473ffffffffffffffffffffffffffffffffffffffff1681565b6000600560008473ffffffffffffffffffffffffffffffffffffffff1673ffffffffffffffffffffffffffffffffffffffff16815260200190815260200160002060008373ffffffffffffffffffffffffffffffffffffffff1673ffffffffffffffffffffffffffffffffffffffff16815260200190815260200160002060009054906101000a900460ff16905092915050565b7f241ecf16d79d0f8dbfb92cbc07fe17840425976cf0667f022fe9877caa831b0881565b601d6020528060005260406000206000915054906101000a900460ff1681565b7f241ecf16d79d0f8dbfb92cbc07fe17840425976cf0667f022fe9877caa831b0861369e81613699613a6f565b613a77565b88601960008c81526020019081526020016000208190555087601a60008c815260200190815260200160002060006101000a81548173ffffffffffffffffffffffffffffffffffffffff021916908373ffffffffffffffffffffffffffffffffffffffff16021790555086601b60008c815260200190815260200160002060006101000a81548173ffffffffffffffffffffffffffffffffffffffff021916908373ffffffffffffffffffffffffffffffffffffffff16021790555085601c60008c81526020019081526020016000208190555084601d60008c815260200190815260200160002060006101000a81548160ff02191690831515021790555083601e60008c815260200190815260200160002090805190602001906137c4929190615c4d565b5082601f60008c815260200190815260200160002090805190602001906137ec929190615c4d565b5081602060008c81526020019081526020016000209080519060200190613814929190615c4d565b507f2d5d88eb0f8f35827e8294fa914e3f7471299f585154fe851e37fc0394f2e2be8a8a8a8a8a8a8a8a8a60405161385499989796959493929190618131565b60405180910390a150505050505050505050565b601f602052816000526040600020818154811061388457600080fd5b90600052602060002001600091509150505481565b601560009054906101000a900473ffffffffffffffffffffffffffffffffffffffff1681565b6025602052816000526040600020602052806000526040600020600091509150505481565b6138ee8282612e9c565b6139c1576001600a600084815260200190815260200160002060000160008373ffffffffffffffffffffffffffffffffffffffff1673ffffffffffffffffffffffffffffffffffffffff16815260200190815260200160002060006101000a81548160ff021916908315150217905550613966613a6f565b73ffffffffffffffffffffffffffffffffffffffff168173ffffffffffffffffffffffffffffffffffffffff16837f2f8788117e7eff1d82e926ec794901d17c78024a50270940304540a733656f0d60405160405180910390a45b5050565b60006139ed836000018373ffffffffffffffffffffffffffffffffffffffff1660001b614aae565b905092915050565b60007f5a05180f000000000000000000000000000000000000000000000000000000007bffffffffffffffffffffffffffffffffffffffffffffffffffffffff1916827bffffffffffffffffffffffffffffffffffffffffffffffffffffffff19161480613a685750613a6782614b1e565b5b9050919050565b600033905090565b613a818282612e9c565b613b1057613aa68173ffffffffffffffffffffffffffffffffffffffff166014614b98565b613ab48360001c6020614b98565b604051602001613ac592919061826b565b6040516020818303038152906040526040517f08c379a0000000000000000000000000000000000000000000000000000000008152600401613b079190616147565b60405180910390fd5b5050565b60008073ffffffffffffffffffffffffffffffffffffffff166002600084815260200190815260200160002060009054906101000a900473ffffffffffffffffffffffffffffffffffffffff1673ffffffffffffffffffffffffffffffffffffffff1614159050919050565b816004600083815260200190815260200160002060006101000a81548173ffffffffffffffffffffffffffffffffffffffff021916908373ffffffffffffffffffffffffffffffffffffffff160217905550808273ffffffffffffffffffffffffffffffffffffffff16613bf383611f0f565b73ffffffffffffffffffffffffffffffffffffffff167f8c5be1e5ebec7d5bd14f71427d1e84f3dd0314c0f7b2291e5b200ac8c7c3b92560405160405180910390a45050565b6000613c61836000018373ffffffffffffffffffffffffffffffffffffffff1660001b614dd4565b905092915050565b6000815167ffffffffffffffff811115613c8657613c85615ec2565b5b604051908082528060200260200182016040528015613cb45781602001602082028036833780820191505090505b5090506000600567ffffffffffffffff811115613cd457613cd3615ec2565b5b604051908082528060200260200182016040528015613d025781602001602082028036833780820191505090505b50905060005b835181101561424657613dd2601e6000601460008981526020019081526020016000208481548110613d3d57613d3c616e5c565b5b90600052602060002001548152602001908152602001600020805480602002602001604051908101604052809291908181526020018280548015613da057602002820191906000526020600020905b815481526020019060010190808311613d8c575b5050505050612710868481518110613dbb57613dba616e5c565b5b6020026020010151613dcd91906182a5565b6129be565b82600081518110613de657613de5616e5c565b5b602002602001018181525050600160146305f5e10064e8d4a51000878581518110613e1457613e13616e5c565b5b6020026020010151613e2691906182a5565b613e309190617c50565b613e3a91906182a5565b613e449190617c81565b60146001613f18601f6000601460008c81526020019081526020016000208781548110613e7457613e73616e5c565b5b90600052602060002001548152602001908152602001600020805480602002602001604051908101604052809291908181526020018280548015613ed757602002820191906000526020600020905b815481526020019060010190808311613ec3575b50505050506127106305f5e1008a8881518110613ef757613ef6616e5c565b5b6020026020010151613f0991906182a5565b613f139190617c50565b6129be565b613f229190617599565b613f2c9190617b5b565b613f369190617c81565b82600181518110613f4a57613f49616e5c565b5b6020026020010181815250506001600464e8d4a51000662386f26fc10000878581518110613f7b57613f7a616e5c565b5b6020026020010151613f8d91906182a5565b613f979190617c50565b613fa191906182a5565b613fab9190617c81565b82600281518110613fbf57613fbe616e5c565b5b6020026020010181815250506140a560206000601460008981526020019081526020016000208481548110613ff757613ff6616e5c565b5b9060005260206000200154815260200190815260200160002080548060200260200160405190810160405280929190818152602001828054801561405a57602002820191906000526020600020905b815481526020019060010190808311614046575b5050505050662386f26fc1000068056bc75e2d6310000087858151811061408457614083616e5c565b5b602002602001015161409691906182a5565b6140a09190617c50565b6129be565b826003815181106140b9576140b8616e5c565b5b6020026020010181815250506001600468056bc75e2d6310000069d3c21bcecceda10000008785815181106140f1576140f0616e5c565b5b602002602001015161410391906182a5565b61410d9190617c50565b61411791906182a5565b6141219190617c81565b8260048151811061413557614134616e5c565b5b602002602001018181525050601560009054906101000a900473ffffffffffffffffffffffffffffffffffffffff1673ffffffffffffffffffffffffffffffffffffffff16632bc00dac836013600089815260200190815260200160002060009054906101000a900473ffffffffffffffffffffffffffffffffffffffff166040518363ffffffff1660e01b81526004016141d19291906182d6565b6020604051808303816000875af11580156141f0573d6000803e3d6000fd5b505050506040513d601f19601f820116820180604052508101906142149190617527565b83828151811061422757614226616e5c565b5b602002602001018181525050808061423e90616eba565b915050613d08565b506013600085815260200190815260200160002060009054906101000a900473ffffffffffffffffffffffffffffffffffffffff1673ffffffffffffffffffffffffffffffffffffffff167f48ee5c588eb376043c294ddb6f3762262d9d23d49d690f0c54cb11fa15c2ed278451846040516142c3929190618306565b60405180910390a250505050565b60006142dc82613b14565b61431b576040517f08c379a0000000000000000000000000000000000000000000000000000000008152600401614312906183a8565b60405180910390fd5b600061432683611f0f565b90508073ffffffffffffffffffffffffffffffffffffffff168473ffffffffffffffffffffffffffffffffffffffff16148061439557508373ffffffffffffffffffffffffffffffffffffffff1661437d8461138d565b73ffffffffffffffffffffffffffffffffffffffff16145b806143a657506143a58185613594565b5b91505092915050565b8273ffffffffffffffffffffffffffffffffffffffff166143cf82611f0f565b73ffffffffffffffffffffffffffffffffffffffff1614614425576040517f08c379a000000000000000000000000000000000000000000000000000000000815260040161441c9061843a565b60405180910390fd5b600073ffffffffffffffffffffffffffffffffffffffff168273ffffffffffffffffffffffffffffffffffffffff161415614495576040517f08c379a000000000000000000000000000000000000000000000000000000000815260040161448c906184cc565b60405180910390fd5b6144a0838383614ee8565b6144ab600082613b80565b6001600360008573ffffffffffffffffffffffffffffffffffffffff1673ffffffffffffffffffffffffffffffffffffffff16815260200190815260200160002060008282546144fb9190617599565b925050819055506001600360008473ffffffffffffffffffffffffffffffffffffffff1673ffffffffffffffffffffffffffffffffffffffff16815260200190815260200160002060008282546145529190617c81565b92505081905550816002600083815260200190815260200160002060006101000a81548173ffffffffffffffffffffffffffffffffffffffff021916908373ffffffffffffffffffffffffffffffffffffffff160217905550808273ffffffffffffffffffffffffffffffffffffffff168473ffffffffffffffffffffffffffffffffffffffff167fddf252ad1be2c89b69c2b068fc378daa952ba7f163c4a11628f55a4df523b3ef60405160405180910390a4614611838383614ffc565b505050565b61462082826138e4565b61464581600b60008581526020019081526020016000206139c590919063ffffffff16565b505050565b6146548282615001565b61467981600b6000858152602001908152602001600020613c3990919063ffffffff16565b505050565b60006146a6836000018373ffffffffffffffffffffffffffffffffffffffff1660001b6150e3565b905092915050565b614731846323b872dd60e01b8585856040516024016146cf939291906184ec565b604051602081830303815290604052907bffffffffffffffffffffffffffffffffffffffffffffffffffffffff19166020820180517bffffffffffffffffffffffffffffffffffffffffffffffffffffffff8381831617835250505050615106565b50505050565b6147518282604051806020016040528060008152506151cd565b5050565b60006147648360000183615228565b60001c905092915050565b8173ffffffffffffffffffffffffffffffffffffffff168373ffffffffffffffffffffffffffffffffffffffff1614156147de576040517f08c379a00000000000000000000000000000000000000000000000000000000081526004016147d59061856f565b60405180910390fd5b80600560008573ffffffffffffffffffffffffffffffffffffffff1673ffffffffffffffffffffffffffffffffffffffff16815260200190815260200160002060008473ffffffffffffffffffffffffffffffffffffffff1673ffffffffffffffffffffffffffffffffffffffff16815260200190815260200160002060006101000a81548160ff0219169083151502179055508173ffffffffffffffffffffffffffffffffffffffff168373ffffffffffffffffffffffffffffffffffffffff167f17307eab39ab6107e8899845ad3d59bd9653f200f220920489ca2b5937696c31836040516148cf9190615df1565b60405180910390a3505050565b6148e78484846143af565b6148f384848484615253565b614932576040517f08c379a000000000000000000000000000000000000000000000000000000000815260040161492990618601565b60405180910390fd5b50505050565b60606000821415614980576040518060400160405280600181526020017f30000000000000000000000000000000000000000000000000000000000000008152509050614a94565b600082905060005b600082146149b257808061499b90616eba565b915050600a826149ab9190617c50565b9150614988565b60008167ffffffffffffffff8111156149ce576149cd615ec2565b5b6040519080825280601f01601f191660200182016040528015614a005781602001600182028036833780820191505090505b5090505b60008514614a8d57600182614a199190617599565b9150600a85614a2891906182a5565b6030614a349190617c81565b60f81b818381518110614a4a57614a49616e5c565b5b60200101907effffffffffffffffffffffffffffffffffffffffffffffffffffffffffffff1916908160001a905350600a85614a869190617c50565b9450614a04565b8093505050505b919050565b6000614aa7826000016153db565b9050919050565b6000614aba83836150e3565b614b13578260000182908060018154018082558091505060019003906000526020600020016000909190919091505582600001805490508360010160008481526020019081526020016000208190555060019050614b18565b600090505b92915050565b60007f7965db0b000000000000000000000000000000000000000000000000000000007bffffffffffffffffffffffffffffffffffffffffffffffffffffffff1916827bffffffffffffffffffffffffffffffffffffffffffffffffffffffff19161480614b915750614b90826153ec565b5b9050919050565b606060006002836002614bab9190617b5b565b614bb59190617c81565b67ffffffffffffffff811115614bce57614bcd615ec2565b5b6040519080825280601f01601f191660200182016040528015614c005781602001600182028036833780820191505090505b5090507f300000000000000000000000000000000000000000000000000000000000000081600081518110614c3857614c37616e5c565b5b60200101907effffffffffffffffffffffffffffffffffffffffffffffffffffffffffffff1916908160001a9053507f780000000000000000000000000000000000000000000000000000000000000081600181518110614c9c57614c9b616e5c565b5b60200101907effffffffffffffffffffffffffffffffffffffffffffffffffffffffffffff1916908160001a90535060006001846002614cdc9190617b5b565b614ce69190617c81565b90505b6001811115614d86577f3031323334353637383961626364656600000000000000000000000000000000600f861660108110614d2857614d27616e5c565b5b1a60f81b828281518110614d3f57614d3e616e5c565b5b60200101907effffffffffffffffffffffffffffffffffffffffffffffffffffffffffffff1916908160001a905350600485901c945080614d7f90618621565b9050614ce9565b5060008414614dca576040517f08c379a0000000000000000000000000000000000000000000000000000000008152600401614dc190618697565b60405180910390fd5b8091505092915050565b60008083600101600084815260200190815260200160002054905060008114614edc576000600182614e069190617599565b9050600060018660000180549050614e1e9190617599565b9050818114614e8d576000866000018281548110614e3f57614e3e616e5c565b5b9060005260206000200154905080876000018481548110614e6357614e62616e5c565b5b90600052602060002001819055508387600101600083815260200190815260200160002081905550505b85600001805480614ea157614ea06186b7565b5b600190038181906000526020600020016000905590558560010160008681526020019081526020016000206000905560019350505050614ee2565b60009150505b92915050565b614ef3838383615466565b600073ffffffffffffffffffffffffffffffffffffffff168373ffffffffffffffffffffffffffffffffffffffff161415614f3657614f318161546b565b614f75565b8173ffffffffffffffffffffffffffffffffffffffff168373ffffffffffffffffffffffffffffffffffffffff1614614f7457614f7383826154b4565b5b5b600073ffffffffffffffffffffffffffffffffffffffff168273ffffffffffffffffffffffffffffffffffffffff161415614fb857614fb381615621565b614ff7565b8273ffffffffffffffffffffffffffffffffffffffff168273ffffffffffffffffffffffffffffffffffffffff1614614ff657614ff582826156f2565b5b5b505050565b505050565b61500b8282612e9c565b156150df576000600a600084815260200190815260200160002060000160008373ffffffffffffffffffffffffffffffffffffffff1673ffffffffffffffffffffffffffffffffffffffff16815260200190815260200160002060006101000a81548160ff021916908315150217905550615084613a6f565b73ffffffffffffffffffffffffffffffffffffffff168173ffffffffffffffffffffffffffffffffffffffff16837ff6391f5c32d9c69d2a47ea670b442974b53935d1edc7fd64eb21e047a839171b60405160405180910390a45b5050565b600080836001016000848152602001908152602001600020541415905092915050565b6000615168826040518060400160405280602081526020017f5361666545524332303a206c6f772d6c6576656c2063616c6c206661696c65648152508573ffffffffffffffffffffffffffffffffffffffff166157719092919063ffffffff16565b90506000815111156151c857808060200190518101906151889190617e91565b6151c7576040517f08c379a00000000000000000000000000000000000000000000000000000000081526004016151be90618758565b60405180910390fd5b5b505050565b6151d78383615789565b6151e46000848484615253565b615223576040517f08c379a000000000000000000000000000000000000000000000000000000000815260040161521a90618601565b60405180910390fd5b505050565b60008260000182815481106152405761523f616e5c565b5b9060005260206000200154905092915050565b60006152748473ffffffffffffffffffffffffffffffffffffffff16615963565b156153ce578373ffffffffffffffffffffffffffffffffffffffff1663150b7a0261529d613a6f565b8786866040518563ffffffff1660e01b81526004016152bf9493929190618778565b6020604051808303816000875af19250505080156152fb57506040513d601f19601f820116820180604052508101906152f891906187d9565b60015b61537e573d806000811461532b576040519150601f19603f3d011682016040523d82523d6000602084013e615330565b606091505b50600081511415615376576040517f08c379a000000000000000000000000000000000000000000000000000000000815260040161536d90618601565b60405180910390fd5b805181602001fd5b63150b7a0260e01b7bffffffffffffffffffffffffffffffffffffffffffffffffffffffff1916817bffffffffffffffffffffffffffffffffffffffffffffffffffffffff1916149150506153d3565b600190505b949350505050565b600081600001805490509050919050565b60007f780e9d63000000000000000000000000000000000000000000000000000000007bffffffffffffffffffffffffffffffffffffffffffffffffffffffff1916827bffffffffffffffffffffffffffffffffffffffffffffffffffffffff1916148061545f575061545e82615986565b5b9050919050565b505050565b6008805490506009600083815260200190815260200160002081905550600881908060018154018082558091505060019003906000526020600020016000909190919091505550565b600060016154c184612ac3565b6154cb9190617599565b90506000600760008481526020019081526020016000205490508181146155b0576000600660008673ffffffffffffffffffffffffffffffffffffffff1673ffffffffffffffffffffffffffffffffffffffff168152602001908152602001600020600084815260200190815260200160002054905080600660008773ffffffffffffffffffffffffffffffffffffffff1673ffffffffffffffffffffffffffffffffffffffff168152602001908152602001600020600084815260200190815260200160002081905550816007600083815260200190815260200160002081905550505b6007600084815260200190815260200160002060009055600660008573ffffffffffffffffffffffffffffffffffffffff1673ffffffffffffffffffffffffffffffffffffffff16815260200190815260200160002060008381526020019081526020016000206000905550505050565b600060016008805490506156359190617599565b905060006009600084815260200190815260200160002054905060006008838154811061566557615664616e5c565b5b90600052602060002001549050806008838154811061568757615686616e5c565b5b9060005260206000200181905550816009600083815260200190815260200160002081905550600960008581526020019081526020016000206000905560088054806156d6576156d56186b7565b5b6001900381819060005260206000200160009055905550505050565b60006156fd83612ac3565b905081600660008573ffffffffffffffffffffffffffffffffffffffff1673ffffffffffffffffffffffffffffffffffffffff168152602001908152602001600020600083815260200190815260200160002081905550806007600084815260200190815260200160002081905550505050565b60606157808484600085615a68565b90509392505050565b600073ffffffffffffffffffffffffffffffffffffffff168273ffffffffffffffffffffffffffffffffffffffff1614156157f9576040517f08c379a00000000000000000000000000000000000000000000000000000000081526004016157f090618852565b60405180910390fd5b61580281613b14565b15615842576040517f08c379a0000000000000000000000000000000000000000000000000000000008152600401615839906188be565b60405180910390fd5b61584e60008383614ee8565b6001600360008473ffffffffffffffffffffffffffffffffffffffff1673ffffffffffffffffffffffffffffffffffffffff168152602001908152602001600020600082825461589e9190617c81565b92505081905550816002600083815260200190815260200160002060006101000a81548173ffffffffffffffffffffffffffffffffffffffff021916908373ffffffffffffffffffffffffffffffffffffffff160217905550808273ffffffffffffffffffffffffffffffffffffffff16600073ffffffffffffffffffffffffffffffffffffffff167fddf252ad1be2c89b69c2b068fc378daa952ba7f163c4a11628f55a4df523b3ef60405160405180910390a461595f60008383614ffc565b5050565b6000808273ffffffffffffffffffffffffffffffffffffffff163b119050919050565b60007f80ac58cd000000000000000000000000000000000000000000000000000000007bffffffffffffffffffffffffffffffffffffffffffffffffffffffff1916827bffffffffffffffffffffffffffffffffffffffffffffffffffffffff19161480615a5157507f5b5e139f000000000000000000000000000000000000000000000000000000007bffffffffffffffffffffffffffffffffffffffffffffffffffffffff1916827bffffffffffffffffffffffffffffffffffffffffffffffffffffffff1916145b80615a615750615a6082615b7c565b5b9050919050565b606082471015615aad576040517f08c379a0000000000000000000000000000000000000000000000000000000008152600401615aa490618950565b60405180910390fd5b615ab685615963565b615af5576040517f08c379a0000000000000000000000000000000000000000000000000000000008152600401615aec906189bc565b60405180910390fd5b6000808673ffffffffffffffffffffffffffffffffffffffff168587604051615b1e9190618a18565b60006040518083038185875af1925050503d8060008114615b5b576040519150601f19603f3d011682016040523d82523d6000602084013e615b60565b606091505b5091509150615b70828286615be6565b92505050949350505050565b60007f01ffc9a7000000000000000000000000000000000000000000000000000000007bffffffffffffffffffffffffffffffffffffffffffffffffffffffff1916827bffffffffffffffffffffffffffffffffffffffffffffffffffffffff1916149050919050565b60608315615bf657829050615c46565b600083511115615c095782518084602001fd5b816040517f08c379a0000000000000000000000000000000000000000000000000000000008152600401615c3d9190616147565b60405180910390fd5b9392505050565b828054828255906000526020600020908101928215615c89579160200282015b82811115615c88578251825591602001919060010190615c6d565b5b509050615c969190615d20565b5090565b828054615ca690617020565b90600052602060002090601f016020900481019282615cc85760008555615d0f565b82601f10615ce157805160ff1916838001178555615d0f565b82800160010185558215615d0f579182015b82811115615d0e578251825591602001919060010190615cf3565b5b509050615d1c9190615d20565b5090565b5b80821115615d39576000816000905550600101615d21565b5090565b6000604051905090565b600080fd5b600080fd5b60007fffffffff0000000000000000000000000000000000000000000000000000000082169050919050565b615d8681615d51565b8114615d9157600080fd5b50565b600081359050615da381615d7d565b92915050565b600060208284031215615dbf57615dbe615d47565b5b6000615dcd84828501615d94565b91505092915050565b60008115159050919050565b615deb81615dd6565b82525050565b6000602082019050615e066000830184615de2565b92915050565b6000819050919050565b615e1f81615e0c565b8114615e2a57600080fd5b50565b600081359050615e3c81615e16565b92915050565b60008060408385031215615e5957615e58615d47565b5b6000615e6785828601615e2d565b9250506020615e7885828601615e2d565b9150509250929050565b615e8b81615e0c565b82525050565b6000602082019050615ea66000830184615e82565b92915050565b600080fd5b6000601f19601f8301169050919050565b7f4e487b7100000000000000000000000000000000000000000000000000000000600052604160045260246000fd5b615efa82615eb1565b810181811067ffffffffffffffff82111715615f1957615f18615ec2565b5b80604052505050565b6000615f2c615d3d565b9050615f388282615ef1565b919050565b600067ffffffffffffffff821115615f5857615f57615ec2565b5b602082029050602081019050919050565b600080fd5b600073ffffffffffffffffffffffffffffffffffffffff82169050919050565b6000615f9982615f6e565b9050919050565b615fa981615f8e565b8114615fb457600080fd5b50565b600081359050615fc681615fa0565b92915050565b6000615fdf615fda84615f3d565b615f22565b9050808382526020820190506020840283018581111561600257616001615f69565b5b835b8181101561602b57806160178882615fb7565b845260208401935050602081019050616004565b5050509392505050565b600082601f83011261604a57616049615eac565b5b813561605a848260208601615fcc565b91505092915050565b6000806040838503121561607a57616079615d47565b5b600061608885828601615e2d565b925050602083013567ffffffffffffffff8111156160a9576160a8615d4c565b5b6160b585828601616035565b9150509250929050565b600081519050919050565b600082825260208201905092915050565b60005b838110156160f95780820151818401526020810190506160de565b83811115616108576000848401525b50505050565b6000616119826160bf565b61612381856160ca565b93506161338185602086016160db565b61613c81615eb1565b840191505092915050565b60006020820190508181036000830152616161818461610e565b905092915050565b60006020828403121561617f5761617e615d47565b5b600061618d84828501615e2d565b91505092915050565b61619f81615f8e565b82525050565b60006020820190506161ba6000830184616196565b92915050565b600080604083850312156161d7576161d6615d47565b5b60006161e585828601615fb7565b92505060206161f685828601615e2d565b9150509250929050565b600067ffffffffffffffff82169050919050565b61621d81616200565b82525050565b60006020820190506162386000830184616214565b92915050565b6000819050919050565b600061626361625e61625984615f6e565b61623e565b615f6e565b9050919050565b600061627582616248565b9050919050565b60006162878261626a565b9050919050565b6162978161627c565b82525050565b60006020820190506162b2600083018461628e565b92915050565b600067ffffffffffffffff8211156162d3576162d2615ec2565b5b602082029050602081019050919050565b60006162f76162f2846162b8565b615f22565b9050808382526020820190506020840283018581111561631a57616319615f69565b5b835b81811015616343578061632f8882615e2d565b84526020840193505060208101905061631c565b5050509392505050565b600082601f83011261636257616361615eac565b5b81356163728482602086016162e4565b91505092915050565b6000806040838503121561639257616391615d47565b5b60006163a085828601615e2d565b925050602083013567ffffffffffffffff8111156163c1576163c0615d4c565b5b6163cd8582860161634d565b9150509250929050565b6000806000606084860312156163f0576163ef615d47565b5b60006163fe86828701615fb7565b935050602061640f86828701615fb7565b925050604061642086828701615e2d565b9150509250925092565b6000819050919050565b61643d8161642a565b811461644857600080fd5b50565b60008135905061645a81616434565b92915050565b60006020828403121561647657616475615d47565b5b60006164848482850161644b565b91505092915050565b6164968161642a565b82525050565b60006020820190506164b1600083018461648d565b92915050565b600063ffffffff82169050919050565b6164d0816164b7565b82525050565b60006020820190506164eb60008301846164c7565b92915050565b60008060006060848603121561650a57616509615d47565b5b600061651886828701615fb7565b935050602061652986828701615e2d565b925050604061653a86828701615e2d565b9150509250925092565b6000806040838503121561655b5761655a615d47565b5b60006165698582860161644b565b925050602061657a85828601615fb7565b9150509250929050565b60008060006060848603121561659d5761659c615d47565b5b60006165ab86828701615fb7565b93505060206165bc86828701615fb7565b925050604084013567ffffffffffffffff8111156165dd576165dc615d4c565b5b6165e98682870161634d565b9150509250925092565b60006165fe8261626a565b9050919050565b61660e816165f3565b82525050565b60006020820190506166296000830184616605565b92915050565b60006020828403121561664557616644615d47565b5b600082013567ffffffffffffffff81111561666357616662615d4c565b5b61666f8482850161634d565b91505092915050565b6000806040838503121561668f5761668e615d47565b5b600061669d85828601615e2d565b92505060206166ae85828601615fb7565b9150509250929050565b60006166c38261626a565b9050919050565b6166d3816166b8565b82525050565b60006020820190506166ee60008301846166ca565b92915050565b600080fd5b600067ffffffffffffffff82111561671457616713615ec2565b5b61671d82615eb1565b9050602081019050919050565b82818337600083830152505050565b600061674c616747846166f9565b615f22565b905082815260208101848484011115616768576167676166f4565b5b61677384828561672a565b509392505050565b600082601f8301126167905761678f615eac565b5b81356167a0848260208601616739565b91505092915050565b6000602082840312156167bf576167be615d47565b5b600082013567ffffffffffffffff8111156167dd576167dc615d4c565b5b6167e98482850161677b565b91505092915050565b60008060006060848603121561680b5761680a615d47565b5b600061681986828701615e2d565b935050602061682a86828701615e2d565b925050604061683b86828701615fb7565b9150509250925092565b6000806040838503121561685c5761685b615d47565b5b600083013567ffffffffffffffff81111561687a57616879615d4c565b5b6168868582860161634d565b925050602061689785828601615e2d565b9150509250929050565b6000602082840312156168b7576168b6615d47565b5b60006168c584828501615fb7565b91505092915050565b600081519050919050565b600082825260208201905092915050565b6000819050602082019050919050565b61690381615e0c565b82525050565b600061691583836168fa565b60208301905092915050565b6000602082019050919050565b6000616939826168ce565b61694381856168d9565b935061694e836168ea565b8060005b8381101561697f5781516169668882616909565b975061697183616921565b925050600181019050616952565b5085935050505092915050565b600060408201905081810360008301526169a6818561692e565b90506169b56020830184615e82565b9392505050565b600080604083850312156169d3576169d2615d47565b5b60006169e18582860161644b565b92505060206169f285828601615e2d565b9150509250929050565b60008060408385031215616a1357616a12615d47565b5b6000616a2185828601615fb7565b9250506020616a3285828601615fb7565b9150509250929050565b616a4581615dd6565b8114616a5057600080fd5b50565b600081359050616a6281616a3c565b92915050565b60008060408385031215616a7f57616a7e615d47565b5b6000616a8d85828601615fb7565b9250506020616a9e85828601616a53565b9150509250929050565b600061ffff82169050919050565b616abf81616aa8565b82525050565b6000602082019050616ada6000830184616ab6565b92915050565b600067ffffffffffffffff821115616afb57616afa615ec2565b5b616b0482615eb1565b9050602081019050919050565b6000616b24616b1f84616ae0565b615f22565b905082815260208101848484011115616b4057616b3f6166f4565b5b616b4b84828561672a565b509392505050565b600082601f830112616b6857616b67615eac565b5b8135616b78848260208601616b11565b91505092915050565b60008060008060808587031215616b9b57616b9a615d47565b5b6000616ba987828801615fb7565b9450506020616bba87828801615fb7565b9350506040616bcb87828801615e2d565b925050606085013567ffffffffffffffff811115616bec57616beb615d4c565b5b616bf887828801616b53565b91505092959194509250565b600080600060608486031215616c1d57616c1c615d47565b5b6000616c2b86828701615e2d565b9350506020616c3c86828701615fb7565b9250506040616c4d86828701615e2d565b9150509250925092565b616c60816164b7565b8114616c6b57600080fd5b50565b600081359050616c7d81616c57565b92915050565b616c8c81616aa8565b8114616c9757600080fd5b50565b600081359050616ca981616c83565b92915050565b600080600060608486031215616cc857616cc7615d47565b5b6000616cd68682870161644b565b9350506020616ce786828701616c6e565b9250506040616cf886828701616c9a565b9150509250925092565b60008060008060008060008060006101208a8c031215616d2557616d24615d47565b5b6000616d338c828d01615e2d565b9950506020616d448c828d01615e2d565b9850506040616d558c828d01615fb7565b9750506060616d668c828d01615fb7565b9650506080616d778c828d01615e2d565b95505060a0616d888c828d01616a53565b94505060c08a013567ffffffffffffffff811115616da957616da8615d4c565b5b616db58c828d0161634d565b93505060e08a013567ffffffffffffffff811115616dd657616dd5615d4c565b5b616de28c828d0161634d565b9250506101008a013567ffffffffffffffff811115616e0457616e03615d4c565b5b616e108c828d0161634d565b9150509295985092959850929598565b6000616e2b8261626a565b9050919050565b616e3b81616e20565b82525050565b6000602082019050616e566000830184616e32565b92915050565b7f4e487b7100000000000000000000000000000000000000000000000000000000600052603260045260246000fd5b7f4e487b7100000000000000000000000000000000000000000000000000000000600052601160045260246000fd5b6000616ec582615e0c565b91507fffffffffffffffffffffffffffffffffffffffffffffffffffffffffffffffff821415616ef857616ef7616e8b565b5b600182019050919050565b600081519050919050565b600082825260208201905092915050565b6000819050602082019050919050565b616f3881615f8e565b82525050565b6000616f4a8383616f2f565b60208301905092915050565b6000602082019050919050565b6000616f6e82616f03565b616f788185616f0e565b9350616f8383616f1f565b8060005b83811015616fb4578151616f9b8882616f3e565b9750616fa683616f56565b925050600181019050616f87565b5085935050505092915050565b6000604082019050616fd66000830185615e82565b8181036020830152616fe88184616f63565b90509392505050565b7f4e487b7100000000000000000000000000000000000000000000000000000000600052602260045260246000fd5b6000600282049050600182168061703857607f821691505b6020821081141561704c5761704b616ff1565b5b50919050565b7f4552433732313a20617070726f76656420717565727920666f72206e6f6e657860008201527f697374656e7420746f6b656e0000000000000000000000000000000000000000602082015250565b60006170ae602c836160ca565b91506170b982617052565b604082019050919050565b600060208201905081810360008301526170dd816170a1565b9050919050565b7f4552433732313a20617070726f76616c20746f2063757272656e74206f776e6560008201527f7200000000000000000000000000000000000000000000000000000000000000602082015250565b60006171406021836160ca565b915061714b826170e4565b604082019050919050565b6000602082019050818103600083015261716f81617133565b9050919050565b7f4552433732313a20617070726f76652063616c6c6572206973206e6f74206f7760008201527f6e6572206e6f7220617070726f76656420666f7220616c6c0000000000000000602082015250565b60006171d26038836160ca565b91506171dd82617176565b604082019050919050565b60006020820190508181036000830152617201816171c5565b9050919050565b600060408201905061721d6000830185616196565b61722a6020830184616196565b9392505050565b7f4552433732313a207472616e736665722063616c6c6572206973206e6f74206f60008201527f776e6572206e6f7220617070726f766564000000000000000000000000000000602082015250565b600061728d6031836160ca565b915061729882617231565b604082019050919050565b600060208201905081810360008301526172bc81617280565b9050919050565b7f455243373231456e756d657261626c653a206f776e657220696e646578206f7560008201527f74206f6620626f756e6473000000000000000000000000000000000000000000602082015250565b600061731f602b836160ca565b915061732a826172c3565b604082019050919050565b6000602082019050818103600083015261734e81617312565b9050919050565b7f416363657373436f6e74726f6c3a2063616e206f6e6c792072656e6f756e636560008201527f20726f6c657320666f722073656c660000000000000000000000000000000000602082015250565b60006173b1602f836160ca565b91506173bc82617355565b604082019050919050565b600060208201905081810360008301526173e0816173a4565b9050919050565b7f5265656e7472616e637947756172643a207265656e7472616e742063616c6c00600082015250565b600061741d601f836160ca565b9150617428826173e7565b602082019050919050565b6000602082019050818103600083015261744c81617410565b9050919050565b7f416d6f756e74206d757374203e20300000000000000000000000000000000000600082015250565b6000617489600f836160ca565b915061749482617453565b602082019050919050565b600060208201905081810360008301526174b88161747c565b9050919050565b600060a0820190506174d4600083018861648d565b6174e16020830187616214565b6174ee6040830186616ab6565b6174fb60608301856164c7565b61750860808301846164c7565b9695505050505050565b60008151905061752181615e16565b92915050565b60006020828403121561753d5761753c615d47565b5b600061754b84828501617512565b91505092915050565b60006060820190506175696000830186615e82565b818103602083015261757b818561692e565b9050818103604083015261758f818461692e565b9050949350505050565b60006175a482615e0c565b91506175af83615e0c565b9250828210156175c2576175c1616e8b565b5b828203905092915050565b7f455243373231456e756d657261626c653a20676c6f62616c20696e646578206f60008201527f7574206f6620626f756e64730000000000000000000000000000000000000000602082015250565b6000617629602c836160ca565b9150617634826175cd565b604082019050919050565b600060208201905081810360008301526176588161761c565b9050919050565b7f4552433732313a206f776e657220717565727920666f72206e6f6e657869737460008201527f656e7420746f6b656e0000000000000000000000000000000000000000000000602082015250565b60006176bb6029836160ca565b91506176c68261765f565b604082019050919050565b600060208201905081810360008301526176ea816176ae565b9050919050565b7f416d6f756e7420657863656564732074686520686f75726c7920627579206c6960008201527f6d69740000000000000000000000000000000000000000000000000000000000602082015250565b600061774d6023836160ca565b9150617758826176f1565b604082019050919050565b6000602082019050818103600083015261777c81617740565b9050919050565b7f4e6f7420656e6f75676820626f78657320737570706c79000000000000000000600082015250565b60006177b96017836160ca565b91506177c482617783565b602082019050919050565b600060208201905081810360008301526177e8816177ac565b9050919050565b7f54686520626f78207072696365206f66207468697320626f7820686173206e6f60008201527f74206265656e2073657400000000000000000000000000000000000000000000602082015250565b600061784b602a836160ca565b9150617856826177ef565b604082019050919050565b6000602082019050818103600083015261787a8161783e565b9050919050565b7f54686520726563656976696e672061646472657373206f66207468697320626f60008201527f7820686173206e6f74206265656e207365740000000000000000000000000000602082015250565b60006178dd6032836160ca565b91506178e882617881565b604082019050919050565b6000602082019050818103600083015261790c816178d0565b9050919050565b7f5468652073746172732070726f626162696c697479206f66207468697320626f60008201527f7820686173206e6f74206265656e207365740000000000000000000000000000602082015250565b600061796f6032836160ca565b915061797a82617913565b604082019050919050565b6000602082019050818103600083015261799e81617962565b9050919050565b7f54686520706f7765722070726f626162696c697479206f66207468697320626f60008201527f7820686173206e6f74206265656e207365740000000000000000000000000000602082015250565b6000617a016032836160ca565b9150617a0c826179a5565b604082019050919050565b60006020820190508181036000830152617a30816179f4565b9050919050565b7f54686520706172742070726f626162696c697479206f66207468697320626f7860008201527f20686173206e6f74206265656e20736574000000000000000000000000000000602082015250565b6000617a936031836160ca565b9150617a9e82617a37565b604082019050919050565b60006020820190508181036000830152617ac281617a86565b9050919050565b7f596f75722061646472657373206d757374206265206f6e20746865207768697460008201527f656c697374000000000000000000000000000000000000000000000000000000602082015250565b6000617b256025836160ca565b9150617b3082617ac9565b604082019050919050565b60006020820190508181036000830152617b5481617b18565b9050919050565b6000617b6682615e0c565b9150617b7183615e0c565b9250817fffffffffffffffffffffffffffffffffffffffffffffffffffffffffffffffff0483118215151615617baa57617ba9616e8b565b5b828202905092915050565b7f5072696365206d69736d61746368000000000000000000000000000000000000600082015250565b6000617beb600e836160ca565b9150617bf682617bb5565b602082019050919050565b60006020820190508181036000830152617c1a81617bde565b9050919050565b7f4e487b7100000000000000000000000000000000000000000000000000000000600052601260045260246000fd5b6000617c5b82615e0c565b9150617c6683615e0c565b925082617c7657617c75617c21565b5b828204905092915050565b6000617c8c82615e0c565b9150617c9783615e0c565b9250827fffffffffffffffffffffffffffffffffffffffffffffffffffffffffffffffff03821115617ccc57617ccb616e8b565b5b828201905092915050565b600081519050617ce681615fa0565b92915050565b600060208284031215617d0257617d01615d47565b5b6000617d1084828501617cd7565b91505092915050565b6000606082019050617d2e6000830186615e82565b8181036020830152617d40818561692e565b9050617d4f6040830184615e82565b949350505050565b7f4552433732313a2062616c616e636520717565727920666f7220746865207a6560008201527f726f206164647265737300000000000000000000000000000000000000000000602082015250565b6000617db3602a836160ca565b9150617dbe82617d57565b604082019050919050565b60006020820190508181036000830152617de281617da6565b9050919050565b600081519050919050565b600082825260208201905092915050565b6000617e1082617de9565b617e1a8185617df4565b9350617e2a8185602086016160db565b617e3381615eb1565b840191505092915050565b6000606082019050617e536000830186616196565b617e606020830185615e82565b8181036040830152617e728184617e05565b9050949350505050565b600081519050617e8b81616a3c565b92915050565b600060208284031215617ea757617ea6615d47565b5b6000617eb584828501617e7c565b91505092915050565b6000604082019050617ed36000830185615e82565b617ee06020830184615e82565b9392505050565b6000604082019050617efc6000830185616214565b617f096020830184616196565b9392505050565b7f4552433732314d657461646174613a2055524920717565727920666f72206e6f60008201527f6e6578697374656e7420746f6b656e0000000000000000000000000000000000602082015250565b6000617f6c602f836160ca565b9150617f7782617f10565b604082019050919050565b60006020820190508181036000830152617f9b81617f5f565b9050919050565b600081905092915050565b60008190508160005260206000209050919050565b60008154617fcf81617020565b617fd98186617fa2565b94506001821660008114617ff4576001811461800557618038565b60ff19831686528186019350618038565b61800e85617fad565b60005b8381101561803057815481890152600182019150602081019050618011565b838801955050505b50505092915050565b600061804c826160bf565b6180568185617fa2565b93506180668185602086016160db565b80840191505092915050565b7f2d00000000000000000000000000000000000000000000000000000000000000600082015250565b60006180a8600183617fa2565b91506180b382618072565b600182019050919050565b60006180ca8286617fc2565b91506180d68285618041565b91506180e18261809b565b91506180ed8284618041565b9150819050949350505050565b600060608201905061810f600083018661648d565b61811c60208301856164c7565b6181296040830184616ab6565b949350505050565b600061012082019050618147600083018c615e82565b618154602083018b615e82565b618161604083018a616196565b61816e6060830189616196565b61817b6080830188615e82565b61818860a0830187615de2565b81810360c083015261819a818661692e565b905081810360e08301526181ae818561692e565b90508181036101008301526181c3818461692e565b90509a9950505050505050505050565b7f416363657373436f6e74726f6c3a206163636f756e7420000000000000000000600082015250565b6000618209601783617fa2565b9150618214826181d3565b601782019050919050565b7f206973206d697373696e6720726f6c6520000000000000000000000000000000600082015250565b6000618255601183617fa2565b91506182608261821f565b601182019050919050565b6000618276826181fc565b91506182828285618041565b915061828d82618248565b91506182998284618041565b91508190509392505050565b60006182b082615e0c565b91506182bb83615e0c565b9250826182cb576182ca617c21565b5b828206905092915050565b600060408201905081810360008301526182f0818561692e565b90506182ff6020830184616196565b9392505050565b600060408201905061831b6000830185615e82565b818103602083015261832d818461692e565b90509392505050565b7f4552433732313a206f70657261746f7220717565727920666f72206e6f6e657860008201527f697374656e7420746f6b656e0000000000000000000000000000000000000000602082015250565b6000618392602c836160ca565b915061839d82618336565b604082019050919050565b600060208201905081810360008301526183c181618385565b9050919050565b7f4552433732313a207472616e736665722066726f6d20696e636f72726563742060008201527f6f776e6572000000000000000000000000000000000000000000000000000000602082015250565b60006184246025836160ca565b915061842f826183c8565b604082019050919050565b6000602082019050818103600083015261845381618417565b9050919050565b7f4552433732313a207472616e7366657220746f20746865207a65726f2061646460008201527f7265737300000000000000000000000000000000000000000000000000000000602082015250565b60006184b66024836160ca565b91506184c18261845a565b604082019050919050565b600060208201905081810360008301526184e5816184a9565b9050919050565b60006060820190506185016000830186616196565b61850e6020830185616196565b61851b6040830184615e82565b949350505050565b7f4552433732313a20617070726f766520746f2063616c6c657200000000000000600082015250565b60006185596019836160ca565b915061856482618523565b602082019050919050565b600060208201905081810360008301526185888161854c565b9050919050565b7f4552433732313a207472616e7366657220746f206e6f6e20455243373231526560008201527f63656976657220696d706c656d656e7465720000000000000000000000000000602082015250565b60006185eb6032836160ca565b91506185f68261858f565b604082019050919050565b6000602082019050818103600083015261861a816185de565b9050919050565b600061862c82615e0c565b915060008214156186405761863f616e8b565b5b600182039050919050565b7f537472696e67733a20686578206c656e67746820696e73756666696369656e74600082015250565b60006186816020836160ca565b915061868c8261864b565b602082019050919050565b600060208201905081810360008301526186b081618674565b9050919050565b7f4e487b7100000000000000000000000000000000000000000000000000000000600052603160045260246000fd5b7f5361666545524332303a204552433230206f7065726174696f6e20646964206e60008201527f6f74207375636365656400000000000000000000000000000000000000000000602082015250565b6000618742602a836160ca565b915061874d826186e6565b604082019050919050565b6000602082019050818103600083015261877181618735565b9050919050565b600060808201905061878d6000830187616196565b61879a6020830186616196565b6187a76040830185615e82565b81810360608301526187b98184617e05565b905095945050505050565b6000815190506187d381615d7d565b92915050565b6000602082840312156187ef576187ee615d47565b5b60006187fd848285016187c4565b91505092915050565b7f4552433732313a206d696e7420746f20746865207a65726f2061646472657373600082015250565b600061883c6020836160ca565b915061884782618806565b602082019050919050565b6000602082019050818103600083015261886b8161882f565b9050919050565b7f4552433732313a20746f6b656e20616c7265616479206d696e74656400000000600082015250565b60006188a8601c836160ca565b91506188b382618872565b602082019050919050565b600060208201905081810360008301526188d78161889b565b9050919050565b7f416464726573733a20696e73756666696369656e742062616c616e636520666f60008201527f722063616c6c0000000000000000000000000000000000000000000000000000602082015250565b600061893a6026836160ca565b9150618945826188de565b604082019050919050565b600060208201905081810360008301526189698161892d565b9050919050565b7f416464726573733a2063616c6c20746f206e6f6e2d636f6e7472616374000000600082015250565b60006189a6601d836160ca565b91506189b182618970565b602082019050919050565b600060208201905081810360008301526189d581618999565b9050919050565b600081905092915050565b60006189f282617de9565b6189fc81856189dc565b9350618a0c8185602086016160db565b80840191505092915050565b6000618a2482846189e7565b91508190509291505056fea264697066735822122063630f95def07114c05afa94ac361337a4f0a7891474bb87df7067fe0d57114b64736f6c634300080c0033",
  "linkReferences": {},
  "deployedLinkReferences": {}
}