{
  "_format": "hh-sol-artifact-1",
  "contractName": "Market",
  "sourceName": "contracts/pool/Market.sol",
  "abi": [
    {
      "inputs": [
        {
          "internalType": "address",
          "name": "manager",
          "type": "address"
        }
      ],
      "stateMutability": "nonpayable",
      "type": "constructor"
    },
    {
      "anonymous": false,
      "inputs": [
        {
          "indexed": true,
          "internalType": "address",
          "name": "buyer",
          "type": "address"
        },
        {
          "indexed": false,
          "internalType": "address[]",
          "name": "sellers",
          "type": "address[]"
        },
        {
          "indexed": false,
          "internalType": "address[]",
          "name": "nfts",
          "type": "address[]"
        },
        {
          "indexed": false,
          "internalType": "uint256[]",
          "name": "nftIds",
          "type": "uint256[]"
        },
        {
          "indexed": false,
          "internalType": "address[]",
          "name": "tokens",
          "type": "address[]"
        },
        {
          "indexed": false,
          "internalType": "uint256[]",
          "name": "prices",
          "type": "uint256[]"
        }
      ],
      "name": "Buy",
      "type": "event"
    },
    {
      "anonymous": false,
      "inputs": [
        {
          "indexed": true,
          "internalType": "address",
          "name": "seller",
          "type": "address"
        },
        {
          "indexed": false,
          "internalType": "address[]",
          "name": "nfts",
          "type": "address[]"
        },
        {
          "indexed": false,
          "internalType": "uint256[]",
          "name": "nftIds",
          "type": "uint256[]"
        }
      ],
      "name": "Cancel",
      "type": "event"
    },
    {
      "anonymous": false,
      "inputs": [
        {
          "indexed": true,
          "internalType": "bytes32",
          "name": "role",
          "type": "bytes32"
        },
        {
          "indexed": true,
          "internalType": "bytes32",
          "name": "previousAdminRole",
          "type": "bytes32"
        },
        {
          "indexed": true,
          "internalType": "bytes32",
          "name": "newAdminRole",
          "type": "bytes32"
        }
      ],
      "name": "RoleAdminChanged",
      "type": "event"
    },
    {
      "anonymous": false,
      "inputs": [
        {
          "indexed": true,
          "internalType": "bytes32",
          "name": "role",
          "type": "bytes32"
        },
        {
          "indexed": true,
          "internalType": "address",
          "name": "account",
          "type": "address"
        },
        {
          "indexed": true,
          "internalType": "address",
          "name": "sender",
          "type": "address"
        }
      ],
      "name": "RoleGranted",
      "type": "event"
    },
    {
      "anonymous": false,
      "inputs": [
        {
          "indexed": true,
          "internalType": "bytes32",
          "name": "role",
          "type": "bytes32"
        },
        {
          "indexed": true,
          "internalType": "address",
          "name": "account",
          "type": "address"
        },
        {
          "indexed": true,
          "internalType": "address",
          "name": "sender",
          "type": "address"
        }
      ],
      "name": "RoleRevoked",
      "type": "event"
    },
    {
      "anonymous": false,
      "inputs": [
        {
          "indexed": true,
          "internalType": "address",
          "name": "seller",
          "type": "address"
        },
        {
          "indexed": false,
          "internalType": "address[]",
          "name": "nfts",
          "type": "address[]"
        },
        {
          "indexed": false,
          "internalType": "uint256[]",
          "name": "nftIds",
          "type": "uint256[]"
        },
        {
          "indexed": false,
          "internalType": "address[]",
          "name": "tokens",
          "type": "address[]"
        },
        {
          "indexed": false,
          "internalType": "uint256[]",
          "name": "prices",
          "type": "uint256[]"
        }
      ],
      "name": "Sell",
      "type": "event"
    },
    {
      "anonymous": false,
      "inputs": [
        {
          "indexed": false,
          "internalType": "address",
          "name": "invitingAddr",
          "type": "address"
        },
        {
          "indexed": false,
          "internalType": "address",
          "name": "treasury",
          "type": "address"
        }
      ],
      "name": "SetAddrs",
      "type": "event"
    },
    {
      "anonymous": false,
      "inputs": [
        {
          "indexed": false,
          "internalType": "uint256",
          "name": "fee",
          "type": "uint256"
        }
      ],
      "name": "SetFee",
      "type": "event"
    },
    {
      "inputs": [],
      "name": "DEFAULT_ADMIN_ROLE",
      "outputs": [
        {
          "internalType": "bytes32",
          "name": "",
          "type": "bytes32"
        }
      ],
      "stateMutability": "view",
      "type": "function"
    },
    {
      "inputs": [],
      "name": "MANAGER_ROLE",
      "outputs": [
        {
          "internalType": "bytes32",
          "name": "",
          "type": "bytes32"
        }
      ],
      "stateMutability": "view",
      "type": "function"
    },
    {
      "inputs": [
        {
          "internalType": "address",
          "name": "",
          "type": "address"
        },
        {
          "internalType": "address",
          "name": "",
          "type": "address"
        }
      ],
      "name": "affiliateTokenBuyAmount",
      "outputs": [
        {
          "internalType": "uint256",
          "name": "",
          "type": "uint256"
        }
      ],
      "stateMutability": "view",
      "type": "function"
    },
    {
      "inputs": [
        {
          "internalType": "address[]",
          "name": "nfts",
          "type": "address[]"
        },
        {
          "internalType": "uint256[]",
          "name": "nftIds",
          "type": "uint256[]"
        },
        {
          "internalType": "address",
          "name": "inviter",
          "type": "address"
        }
      ],
      "name": "buy",
      "outputs": [],
      "stateMutability": "payable",
      "type": "function"
    },
    {
      "inputs": [
        {
          "internalType": "address[]",
          "name": "nfts",
          "type": "address[]"
        },
        {
          "internalType": "uint256[]",
          "name": "nftIds",
          "type": "uint256[]"
        }
      ],
      "name": "cancel",
      "outputs": [],
      "stateMutability": "nonpayable",
      "type": "function"
    },
    {
      "inputs": [],
      "name": "fee",
      "outputs": [
        {
          "internalType": "uint256",
          "name": "",
          "type": "uint256"
        }
      ],
      "stateMutability": "view",
      "type": "function"
    },
    {
      "inputs": [
        {
          "internalType": "bytes32",
          "name": "role",
          "type": "bytes32"
        }
      ],
      "name": "getRoleAdmin",
      "outputs": [
        {
          "internalType": "bytes32",
          "name": "",
          "type": "bytes32"
        }
      ],
      "stateMutability": "view",
      "type": "function"
    },
    {
      "inputs": [
        {
          "internalType": "bytes32",
          "name": "role",
          "type": "bytes32"
        },
        {
          "internalType": "uint256",
          "name": "index",
          "type": "uint256"
        }
      ],
      "name": "getRoleMember",
      "outputs": [
        {
          "internalType": "address",
          "name": "",
          "type": "address"
        }
      ],
      "stateMutability": "view",
      "type": "function"
    },
    {
      "inputs": [
        {
          "internalType": "bytes32",
          "name": "role",
          "type": "bytes32"
        }
      ],
      "name": "getRoleMemberCount",
      "outputs": [
        {
          "internalType": "uint256",
          "name": "",
          "type": "uint256"
        }
      ],
      "stateMutability": "view",
      "type": "function"
    },
    {
      "inputs": [
        {
          "internalType": "bytes32",
          "name": "role",
          "type": "bytes32"
        },
        {
          "internalType": "address",
          "name": "account",
          "type": "address"
        }
      ],
      "name": "grantRole",
      "outputs": [],
      "stateMutability": "nonpayable",
      "type": "function"
    },
    {
      "inputs": [
        {
          "internalType": "bytes32",
          "name": "role",
          "type": "bytes32"
        },
        {
          "internalType": "address",
          "name": "account",
          "type": "address"
        }
      ],
      "name": "hasRole",
      "outputs": [
        {
          "internalType": "bool",
          "name": "",
          "type": "bool"
        }
      ],
      "stateMutability": "view",
      "type": "function"
    },
    {
      "inputs": [],
      "name": "inviting",
      "outputs": [
        {
          "internalType": "contract IInviting",
          "name": "",
          "type": "address"
        }
      ],
      "stateMutability": "view",
      "type": "function"
    },
    {
      "inputs": [
        {
          "internalType": "address",
          "name": "",
          "type": "address"
        },
        {
          "internalType": "address",
          "name": "",
          "type": "address"
        },
        {
          "internalType": "uint256",
          "name": "",
          "type": "uint256"
        },
        {
          "internalType": "bytes",
          "name": "",
          "type": "bytes"
        }
      ],
      "name": "onERC721Received",
      "outputs": [
        {
          "internalType": "bytes4",
          "name": "",
          "type": "bytes4"
        }
      ],
      "stateMutability": "nonpayable",
      "type": "function"
    },
    {
      "inputs": [
        {
          "internalType": "address",
          "name": "",
          "type": "address"
        },
        {
          "internalType": "uint256",
          "name": "",
          "type": "uint256"
        }
      ],
      "name": "price",
      "outputs": [
        {
          "internalType": "uint256",
          "name": "",
          "type": "uint256"
        }
      ],
      "stateMutability": "view",
      "type": "function"
    },
    {
      "inputs": [
        {
          "internalType": "bytes32",
          "name": "role",
          "type": "bytes32"
        },
        {
          "internalType": "address",
          "name": "account",
          "type": "address"
        }
      ],
      "name": "renounceRole",
      "outputs": [],
      "stateMutability": "nonpayable",
      "type": "function"
    },
    {
      "inputs": [
        {
          "internalType": "bytes32",
          "name": "role",
          "type": "bytes32"
        },
        {
          "internalType": "address",
          "name": "account",
          "type": "address"
        }
      ],
      "name": "revokeRole",
      "outputs": [],
      "stateMutability": "nonpayable",
      "type": "function"
    },
    {
      "inputs": [
        {
          "internalType": "address[]",
          "name": "nfts",
          "type": "address[]"
        },
        {
          "internalType": "uint256[]",
          "name": "nftIds",
          "type": "uint256[]"
        },
        {
          "internalType": "address[]",
          "name": "tokens",
          "type": "address[]"
        },
        {
          "internalType": "uint256[]",
          "name": "prices",
          "type": "uint256[]"
        }
      ],
      "name": "sell",
      "outputs": [],
      "stateMutability": "nonpayable",
      "type": "function"
    },
    {
      "inputs": [
        {
          "internalType": "address",
          "name": "",
          "type": "address"
        },
        {
          "internalType": "uint256",
          "name": "",
          "type": "uint256"
        }
      ],
      "name": "seller",
      "outputs": [
        {
          "internalType": "address",
          "name": "",
          "type": "address"
        }
      ],
      "stateMutability": "view",
      "type": "function"
    },
    {
      "inputs": [
        {
          "internalType": "address",
          "name": "invitingAddr",
          "type": "address"
        },
        {
          "internalType": "address",
          "name": "_treasury",
          "type": "address"
        }
      ],
      "name": "setAddrs",
      "outputs": [],
      "stateMutability": "nonpayable",
      "type": "function"
    },
    {
      "inputs": [
        {
          "internalType": "uint256",
          "name": "_fee",
          "type": "uint256"
        }
      ],
      "name": "setFee",
      "outputs": [],
      "stateMutability": "nonpayable",
      "type": "function"
    },
    {
      "inputs": [
        {
          "internalType": "bytes4",
          "name": "interfaceId",
          "type": "bytes4"
        }
      ],
      "name": "supportsInterface",
      "outputs": [
        {
          "internalType": "bool",
          "name": "",
          "type": "bool"
        }
      ],
      "stateMutability": "view",
      "type": "function"
    },
    {
      "inputs": [
        {
          "internalType": "address",
          "name": "",
          "type": "address"
        },
        {
          "internalType": "uint256",
          "name": "",
          "type": "uint256"
        }
      ],
      "name": "token",
      "outputs": [
        {
          "internalType": "address",
          "name": "",
          "type": "address"
        }
      ],
      "stateMutability": "view",
      "type": "function"
    },
    {
      "inputs": [],
      "name": "treasury",
      "outputs": [
        {
          "internalType": "address",
          "name": "",
          "type": "address"
        }
      ],
      "stateMutability": "view",
      "type": "function"
    },
    {
      "inputs": [
        {
          "internalType": "address",
          "name": "",
          "type": "address"
        },
        {
          "internalType": "address",
          "name": "",
          "type": "address"
        }
      ],
      "name": "userTokenBuyAmount",
      "outputs": [
        {
          "internalType": "uint256",
          "name": "",
          "type": "uint256"
        }
      ],
      "stateMutability": "view",
      "type": "function"
    }
  ],
  "bytecode": "0x60806040526101f46005553480156200001757600080fd5b50604051620043393803806200433983398181016040528101906200003d919062000393565b60016002819055506200005a6000801b336200009360201b60201c565b6200008c7f241ecf16d79d0f8dbfb92cbc07fe17840425976cf0667f022fe9877caa831b08826200009360201b60201c565b50620003c5565b620000a58282620000a960201b60201c565b5050565b620000c08282620000f160201b62001ed41760201c565b620000ec8160016000858152602001908152602001600020620001e260201b62001fb41790919060201c565b505050565b6200010382826200021a60201b60201c565b620001de57600160008084815260200190815260200160002060000160008373ffffffffffffffffffffffffffffffffffffffff1673ffffffffffffffffffffffffffffffffffffffff16815260200190815260200160002060006101000a81548160ff021916908315150217905550620001836200028460201b60201c565b73ffffffffffffffffffffffffffffffffffffffff168173ffffffffffffffffffffffffffffffffffffffff16837f2f8788117e7eff1d82e926ec794901d17c78024a50270940304540a733656f0d60405160405180910390a45b5050565b600062000212836000018373ffffffffffffffffffffffffffffffffffffffff1660001b6200028c60201b60201c565b905092915050565b600080600084815260200190815260200160002060000160008373ffffffffffffffffffffffffffffffffffffffff1673ffffffffffffffffffffffffffffffffffffffff16815260200190815260200160002060009054906101000a900460ff16905092915050565b600033905090565b6000620002a083836200030660201b60201c565b620002fb57826000018290806001815401808255809150506001900390600052602060002001600090919091909150558260000180549050836001016000848152602001908152602001600020819055506001905062000300565b600090505b92915050565b600080836001016000848152602001908152602001600020541415905092915050565b600080fd5b600073ffffffffffffffffffffffffffffffffffffffff82169050919050565b60006200035b826200032e565b9050919050565b6200036d816200034e565b81146200037957600080fd5b50565b6000815190506200038d8162000362565b92915050565b600060208284031215620003ac57620003ab62000329565b5b6000620003bc848285016200037c565b91505092915050565b613f6480620003d56000396000f3fe60806040526004361061014b5760003560e01c80639010d07c116100b6578063ca15c8731161006f578063ca15c873146104df578063d547741f1461051c578063ddca3f4314610545578063e38530b414610570578063ec87621c14610599578063ffbc933d146105c45761014b565b80639010d07c1461039757806391d14854146103d45780639718a93b14610411578063a18dd6041461043a578063a217fddf14610477578063ad9b8024146104a25761014b565b806336568abe1161010857806336568abe146102985780633f712cb2146102c157806361d027b3146102dd57806369fe0e2d146103085780636f4576831461033157806372d335821461036e5761014b565b806301ffc9a7146101505780630c74dcc91461018d578063150b7a02146101b8578063248a9ca3146101f55780632a3c559e146102325780632f2ff15d1461026f575b600080fd5b34801561015c57600080fd5b5061017760048036038101906101729190612aa6565b610601565b6040516101849190612aee565b60405180910390f35b34801561019957600080fd5b506101a261067b565b6040516101af9190612b88565b60405180910390f35b3480156101c457600080fd5b506101df60048036038101906101da9190612d5d565b6106a1565b6040516101ec9190612def565b60405180910390f35b34801561020157600080fd5b5061021c60048036038101906102179190612e40565b6106b5565b6040516102299190612e7c565b60405180910390f35b34801561023e57600080fd5b5061025960048036038101906102549190612e97565b6106d4565b6040516102669190612ee6565b60405180910390f35b34801561027b57600080fd5b5061029660048036038101906102919190612f01565b610716565b005b3480156102a457600080fd5b506102bf60048036038101906102ba9190612f01565b61073f565b005b6102db60048036038101906102d691906130cc565b6107c2565b005b3480156102e957600080fd5b506102f2611335565b6040516102ff9190612ee6565b60405180910390f35b34801561031457600080fd5b5061032f600480360381019061032a9190613157565b61135b565b005b34801561033d57600080fd5b5061035860048036038101906103539190612e97565b611413565b6040516103659190612ee6565b60405180910390f35b34801561037a57600080fd5b5061039560048036038101906103909190613184565b611455565b005b3480156103a357600080fd5b506103be60048036038101906103b991906131fc565b6118a8565b6040516103cb9190612ee6565b60405180910390f35b3480156103e057600080fd5b506103fb60048036038101906103f69190612f01565b6118d7565b6040516104089190612aee565b60405180910390f35b34801561041d57600080fd5b506104386004803603810190610433919061323c565b611941565b005b34801561044657600080fd5b50610461600480360381019061045c919061323c565b611a33565b60405161046e919061328b565b60405180910390f35b34801561048357600080fd5b5061048c611a58565b6040516104999190612e7c565b60405180910390f35b3480156104ae57600080fd5b506104c960048036038101906104c49190612e97565b611a5f565b6040516104d6919061328b565b60405180910390f35b3480156104eb57600080fd5b5061050660048036038101906105019190612e40565b611a84565b604051610513919061328b565b60405180910390f35b34801561052857600080fd5b50610543600480360381019061053e9190612f01565b611aa8565b005b34801561055157600080fd5b5061055a611ad1565b604051610567919061328b565b60405180910390f35b34801561057c57600080fd5b50610597600480360381019061059291906132a6565b611ad7565b005b3480156105a557600080fd5b506105ae611e8b565b6040516105bb9190612e7c565b60405180910390f35b3480156105d057600080fd5b506105eb60048036038101906105e6919061323c565b611eaf565b6040516105f8919061328b565b60405180910390f35b60007f5a05180f000000000000000000000000000000000000000000000000000000007bffffffffffffffffffffffffffffffffffffffffffffffffffffffff1916827bffffffffffffffffffffffffffffffffffffffffffffffffffffffff19161480610674575061067382611fe4565b5b9050919050565b600360009054906101000a900473ffffffffffffffffffffffffffffffffffffffff1681565b600063150b7a0260e01b9050949350505050565b6000806000838152602001908152602001600020600101549050919050565b60086020528160005260406000206020528060005260406000206000915091509054906101000a900473ffffffffffffffffffffffffffffffffffffffff1681565b61071f826106b5565b6107308161072b61205e565b612066565b61073a8383612103565b505050565b61074761205e565b73ffffffffffffffffffffffffffffffffffffffff168173ffffffffffffffffffffffffffffffffffffffff16146107b4576040517f08c379a00000000000000000000000000000000000000000000000000000000081526004016107ab90613400565b60405180910390fd5b6107be8282612137565b5050565b600280541415610807576040517f08c379a00000000000000000000000000000000000000000000000000000000081526004016107fe9061346c565b60405180910390fd5b600280819055506000825167ffffffffffffffff81111561082b5761082a612c32565b5b6040519080825280602002602001820160405280156108595781602001602082028036833780820191505090505b5090506000835167ffffffffffffffff81111561087957610878612c32565b5b6040519080825280602002602001820160405280156108a75781602001602082028036833780820191505090505b5090506000845167ffffffffffffffff8111156108c7576108c6612c32565b5b6040519080825280602002602001820160405280156108f55781602001602082028036833780820191505090505b5090506000600360009054906101000a900473ffffffffffffffffffffffffffffffffffffffff1673ffffffffffffffffffffffffffffffffffffffff166330e8518f33876040518363ffffffff1660e01b815260040161095792919061348c565b6020604051808303816000875af1158015610976573d6000803e3d6000fd5b505050506040513d601f19601f8201168201806040525081019061099a91906134ca565b905060005b86518110156112cd57600660008983815181106109bf576109be6134f7565b5b602002602001015173ffffffffffffffffffffffffffffffffffffffff1673ffffffffffffffffffffffffffffffffffffffff1681526020019081526020016000206000888381518110610a1657610a156134f7565b5b6020026020010151815260200190815260200160002060009054906101000a900473ffffffffffffffffffffffffffffffffffffffff16858281518110610a6057610a5f6134f7565b5b602002602001019073ffffffffffffffffffffffffffffffffffffffff16908173ffffffffffffffffffffffffffffffffffffffff168152505060076000898381518110610ab157610ab06134f7565b5b602002602001015173ffffffffffffffffffffffffffffffffffffffff1673ffffffffffffffffffffffffffffffffffffffff1681526020019081526020016000206000888381518110610b0857610b076134f7565b5b6020026020010151815260200190815260200160002054848281518110610b3257610b316134f7565b5b60200260200101818152505060086000898381518110610b5557610b546134f7565b5b602002602001015173ffffffffffffffffffffffffffffffffffffffff1673ffffffffffffffffffffffffffffffffffffffff1681526020019081526020016000206000888381518110610bac57610bab6134f7565b5b6020026020010151815260200190815260200160002060009054906101000a900473ffffffffffffffffffffffffffffffffffffffff16838281518110610bf657610bf56134f7565b5b602002602001019073ffffffffffffffffffffffffffffffffffffffff16908173ffffffffffffffffffffffffffffffffffffffff168152505060066000898381518110610c4757610c466134f7565b5b602002602001015173ffffffffffffffffffffffffffffffffffffffff1673ffffffffffffffffffffffffffffffffffffffff1681526020019081526020016000206000888381518110610c9e57610c9d6134f7565b5b6020026020010151815260200190815260200160002060006101000a81549073ffffffffffffffffffffffffffffffffffffffff021916905560076000898381518110610cee57610ced6134f7565b5b602002602001015173ffffffffffffffffffffffffffffffffffffffff1673ffffffffffffffffffffffffffffffffffffffff1681526020019081526020016000206000888381518110610d4557610d446134f7565b5b602002602001015181526020019081526020016000206000905560086000898381518110610d7657610d756134f7565b5b602002602001015173ffffffffffffffffffffffffffffffffffffffff1673ffffffffffffffffffffffffffffffffffffffff1681526020019081526020016000206000888381518110610dcd57610dcc6134f7565b5b6020026020010151815260200190815260200160002060006101000a81549073ffffffffffffffffffffffffffffffffffffffff02191690556000612710600554868481518110610e2157610e206134f7565b5b6020026020010151610e339190613555565b610e3d91906135de565b9050600081868481518110610e5557610e546134f7565b5b6020026020010151610e67919061360f565b9050600073ffffffffffffffffffffffffffffffffffffffff16878481518110610e9457610e936134f7565b5b602002602001015173ffffffffffffffffffffffffffffffffffffffff161415610f8757600460009054906101000a900473ffffffffffffffffffffffffffffffffffffffff1673ffffffffffffffffffffffffffffffffffffffff166108fc839081150290604051600060405180830381858888f19350505050158015610f20573d6000803e3d6000fd5b50848381518110610f3457610f336134f7565b5b602002602001015173ffffffffffffffffffffffffffffffffffffffff166108fc829081150290604051600060405180830381858888f19350505050158015610f81573d6000803e3d6000fd5b50611052565b610ff033600460009054906101000a900473ffffffffffffffffffffffffffffffffffffffff16848a8781518110610fc257610fc16134f7565b5b602002602001015173ffffffffffffffffffffffffffffffffffffffff1661216b909392919063ffffffff16565b61105133868581518110611007576110066134f7565b5b6020026020010151838a8781518110611023576110226134f7565b5b602002602001015173ffffffffffffffffffffffffffffffffffffffff1661216b909392919063ffffffff16565b5b898381518110611065576110646134f7565b5b602002602001015173ffffffffffffffffffffffffffffffffffffffff166342842e0e30338c878151811061109d5761109c6134f7565b5b60200260200101516040518463ffffffff1660e01b81526004016110c393929190613643565b600060405180830381600087803b1580156110dd57600080fd5b505af11580156110f1573d6000803e3d6000fd5b50505050858381518110611108576111076134f7565b5b6020026020010151600960003373ffffffffffffffffffffffffffffffffffffffff1673ffffffffffffffffffffffffffffffffffffffff1681526020019081526020016000206000898681518110611164576111636134f7565b5b602002602001015173ffffffffffffffffffffffffffffffffffffffff1673ffffffffffffffffffffffffffffffffffffffff16815260200190815260200160002060008282546111b5919061367a565b92505081905550600073ffffffffffffffffffffffffffffffffffffffff168473ffffffffffffffffffffffffffffffffffffffff16146112b857858381518110611203576112026134f7565b5b6020026020010151600a60008673ffffffffffffffffffffffffffffffffffffffff1673ffffffffffffffffffffffffffffffffffffffff168152602001908152602001600020600089868151811061125f5761125e6134f7565b5b602002602001015173ffffffffffffffffffffffffffffffffffffffff1673ffffffffffffffffffffffffffffffffffffffff16815260200190815260200160002060008282546112b0919061367a565b925050819055505b505080806112c5906136d0565b91505061099f565b503373ffffffffffffffffffffffffffffffffffffffff167f8efd03d19bc88f8ada8c3c7f3c1f06fbfffdeaab6f6d6c061f6333b179da75a3838989888860405161131c959493929190613895565b60405180910390a2505050506001600281905550505050565b600460009054906101000a900473ffffffffffffffffffffffffffffffffffffffff1681565b7f241ecf16d79d0f8dbfb92cbc07fe17840425976cf0667f022fe9877caa831b0861138d8161138861205e565b612066565b6113888211156113d2576040517f08c379a00000000000000000000000000000000000000000000000000000000081526004016113c990613957565b60405180910390fd5b816005819055507e172ddfc5ae88d08b3de01a5a187667c37a5a53989e8c175055cb6c993792a782604051611407919061328b565b60405180910390a15050565b60066020528160005260406000206020528060005260406000206000915091509054906101000a900473ffffffffffffffffffffffffffffffffffffffff1681565b60028054141561149a576040517f08c379a00000000000000000000000000000000000000000000000000000000081526004016114919061346c565b60405180910390fd5b6002808190555060005b815181101561184b573373ffffffffffffffffffffffffffffffffffffffff16600860008584815181106114db576114da6134f7565b5b602002602001015173ffffffffffffffffffffffffffffffffffffffff1673ffffffffffffffffffffffffffffffffffffffff1681526020019081526020016000206000848481518110611532576115316134f7565b5b6020026020010151815260200190815260200160002060009054906101000a900473ffffffffffffffffffffffffffffffffffffffff1673ffffffffffffffffffffffffffffffffffffffff16146115bf576040517f08c379a00000000000000000000000000000000000000000000000000000000081526004016115b6906139c3565b60405180910390fd5b600660008483815181106115d6576115d56134f7565b5b602002602001015173ffffffffffffffffffffffffffffffffffffffff1673ffffffffffffffffffffffffffffffffffffffff168152602001908152602001600020600083838151811061162d5761162c6134f7565b5b6020026020010151815260200190815260200160002060006101000a81549073ffffffffffffffffffffffffffffffffffffffff02191690556007600084838151811061167d5761167c6134f7565b5b602002602001015173ffffffffffffffffffffffffffffffffffffffff1673ffffffffffffffffffffffffffffffffffffffff16815260200190815260200160002060008383815181106116d4576116d36134f7565b5b602002602001015181526020019081526020016000206000905560086000848381518110611705576117046134f7565b5b602002602001015173ffffffffffffffffffffffffffffffffffffffff1673ffffffffffffffffffffffffffffffffffffffff168152602001908152602001600020600083838151811061175c5761175b6134f7565b5b6020026020010151815260200190815260200160002060006101000a81549073ffffffffffffffffffffffffffffffffffffffff02191690558281815181106117a8576117a76134f7565b5b602002602001015173ffffffffffffffffffffffffffffffffffffffff166342842e0e30338585815181106117e0576117df6134f7565b5b60200260200101516040518463ffffffff1660e01b815260040161180693929190613643565b600060405180830381600087803b15801561182057600080fd5b505af1158015611834573d6000803e3d6000fd5b505050508080611843906136d0565b9150506114a4565b503373ffffffffffffffffffffffffffffffffffffffff167fcd6162b6b3c4e9f12a0fdf582a65be1140c518ad7cbd81a498b3c4f8054a6f0e83836040516118949291906139e3565b60405180910390a260016002819055505050565b60006118cf82600160008681526020019081526020016000206121f490919063ffffffff16565b905092915050565b600080600084815260200190815260200160002060000160008373ffffffffffffffffffffffffffffffffffffffff1673ffffffffffffffffffffffffffffffffffffffff16815260200190815260200160002060009054906101000a900460ff16905092915050565b7f241ecf16d79d0f8dbfb92cbc07fe17840425976cf0667f022fe9877caa831b086119738161196e61205e565b612066565b82600360006101000a81548173ffffffffffffffffffffffffffffffffffffffff021916908373ffffffffffffffffffffffffffffffffffffffff16021790555081600460006101000a81548173ffffffffffffffffffffffffffffffffffffffff021916908373ffffffffffffffffffffffffffffffffffffffff1602179055507f17a210d05f0d83f234a5500d361358d453f15293eff4676364db5ae8e884e36f8383604051611a2692919061348c565b60405180910390a1505050565b600a602052816000526040600020602052806000526040600020600091509150505481565b6000801b81565b6007602052816000526040600020602052806000526040600020600091509150505481565b6000611aa16001600084815260200190815260200160002061220e565b9050919050565b611ab1826106b5565b611ac281611abd61205e565b612066565b611acc8383612137565b505050565b60055481565b600280541415611b1c576040517f08c379a0000000000000000000000000000000000000000000000000000000008152600401611b139061346c565b60405180910390fd5b6002808190555060005b8351811015611e2857848181518110611b4257611b416134f7565b5b602002602001015173ffffffffffffffffffffffffffffffffffffffff166342842e0e3330878581518110611b7a57611b796134f7565b5b60200260200101516040518463ffffffff1660e01b8152600401611ba093929190613643565b600060405180830381600087803b158015611bba57600080fd5b505af1158015611bce573d6000803e3d6000fd5b50505050828181518110611be557611be46134f7565b5b602002602001015160066000878481518110611c0457611c036134f7565b5b602002602001015173ffffffffffffffffffffffffffffffffffffffff1673ffffffffffffffffffffffffffffffffffffffff1681526020019081526020016000206000868481518110611c5b57611c5a6134f7565b5b6020026020010151815260200190815260200160002060006101000a81548173ffffffffffffffffffffffffffffffffffffffff021916908373ffffffffffffffffffffffffffffffffffffffff160217905550818181518110611cc257611cc16134f7565b5b602002602001015160076000878481518110611ce157611ce06134f7565b5b602002602001015173ffffffffffffffffffffffffffffffffffffffff1673ffffffffffffffffffffffffffffffffffffffff1681526020019081526020016000206000868481518110611d3857611d376134f7565b5b60200260200101518152602001908152602001600020819055503360086000878481518110611d6a57611d696134f7565b5b602002602001015173ffffffffffffffffffffffffffffffffffffffff1673ffffffffffffffffffffffffffffffffffffffff1681526020019081526020016000206000868481518110611dc157611dc06134f7565b5b6020026020010151815260200190815260200160002060006101000a81548173ffffffffffffffffffffffffffffffffffffffff021916908373ffffffffffffffffffffffffffffffffffffffff1602179055508080611e20906136d0565b915050611b26565b503373ffffffffffffffffffffffffffffffffffffffff167f6d4ca48181500311dec148987bf8bdd2084c4d03e6c8c48df33997e9e191ef0e85858585604051611e759493929190613a1a565b60405180910390a2600160028190555050505050565b7f241ecf16d79d0f8dbfb92cbc07fe17840425976cf0667f022fe9877caa831b0881565b6009602052816000526040600020602052806000526040600020600091509150505481565b611ede82826118d7565b611fb057600160008084815260200190815260200160002060000160008373ffffffffffffffffffffffffffffffffffffffff1673ffffffffffffffffffffffffffffffffffffffff16815260200190815260200160002060006101000a81548160ff021916908315150217905550611f5561205e565b73ffffffffffffffffffffffffffffffffffffffff168173ffffffffffffffffffffffffffffffffffffffff16837f2f8788117e7eff1d82e926ec794901d17c78024a50270940304540a733656f0d60405160405180910390a45b5050565b6000611fdc836000018373ffffffffffffffffffffffffffffffffffffffff1660001b612223565b905092915050565b60007f7965db0b000000000000000000000000000000000000000000000000000000007bffffffffffffffffffffffffffffffffffffffffffffffffffffffff1916827bffffffffffffffffffffffffffffffffffffffffffffffffffffffff19161480612057575061205682612293565b5b9050919050565b600033905090565b61207082826118d7565b6120ff576120958173ffffffffffffffffffffffffffffffffffffffff1660146122fd565b6120a38360001c60206122fd565b6040516020016120b4929190613b8d565b6040516020818303038152906040526040517f08c379a00000000000000000000000000000000000000000000000000000000081526004016120f69190613c00565b60405180910390fd5b5050565b61210d8282611ed4565b6121328160016000858152602001908152602001600020611fb490919063ffffffff16565b505050565b6121418282612539565b612166816001600085815260200190815260200160002061261a90919063ffffffff16565b505050565b6121ee846323b872dd60e01b85858560405160240161218c93929190613643565b604051602081830303815290604052907bffffffffffffffffffffffffffffffffffffffffffffffffffffffff19166020820180517bffffffffffffffffffffffffffffffffffffffffffffffffffffffff838183161783525050505061264a565b50505050565b60006122038360000183612711565b60001c905092915050565b600061221c8260000161273c565b9050919050565b600061222f838361274d565b61228857826000018290806001815401808255809150506001900390600052602060002001600090919091909150558260000180549050836001016000848152602001908152602001600020819055506001905061228d565b600090505b92915050565b60007f01ffc9a7000000000000000000000000000000000000000000000000000000007bffffffffffffffffffffffffffffffffffffffffffffffffffffffff1916827bffffffffffffffffffffffffffffffffffffffffffffffffffffffff1916149050919050565b6060600060028360026123109190613555565b61231a919061367a565b67ffffffffffffffff81111561233357612332612c32565b5b6040519080825280601f01601f1916602001820160405280156123655781602001600182028036833780820191505090505b5090507f30000000000000000000000000000000000000000000000000000000000000008160008151811061239d5761239c6134f7565b5b60200101907effffffffffffffffffffffffffffffffffffffffffffffffffffffffffffff1916908160001a9053507f780000000000000000000000000000000000000000000000000000000000000081600181518110612401576124006134f7565b5b60200101907effffffffffffffffffffffffffffffffffffffffffffffffffffffffffffff1916908160001a905350600060018460026124419190613555565b61244b919061367a565b90505b60018111156124eb577f3031323334353637383961626364656600000000000000000000000000000000600f86166010811061248d5761248c6134f7565b5b1a60f81b8282815181106124a4576124a36134f7565b5b60200101907effffffffffffffffffffffffffffffffffffffffffffffffffffffffffffff1916908160001a905350600485901c9450806124e490613c22565b905061244e565b506000841461252f576040517f08c379a000000000000000000000000000000000000000000000000000000000815260040161252690613c98565b60405180910390fd5b8091505092915050565b61254382826118d7565b1561261657600080600084815260200190815260200160002060000160008373ffffffffffffffffffffffffffffffffffffffff1673ffffffffffffffffffffffffffffffffffffffff16815260200190815260200160002060006101000a81548160ff0219169083151502179055506125bb61205e565b73ffffffffffffffffffffffffffffffffffffffff168173ffffffffffffffffffffffffffffffffffffffff16837ff6391f5c32d9c69d2a47ea670b442974b53935d1edc7fd64eb21e047a839171b60405160405180910390a45b5050565b6000612642836000018373ffffffffffffffffffffffffffffffffffffffff1660001b612770565b905092915050565b60006126ac826040518060400160405280602081526020017f5361666545524332303a206c6f772d6c6576656c2063616c6c206661696c65648152508573ffffffffffffffffffffffffffffffffffffffff166128849092919063ffffffff16565b905060008151111561270c57808060200190518101906126cc9190613ce4565b61270b576040517f08c379a000000000000000000000000000000000000000000000000000000000815260040161270290613d83565b60405180910390fd5b5b505050565b6000826000018281548110612729576127286134f7565b5b9060005260206000200154905092915050565b600081600001805490509050919050565b600080836001016000848152602001908152602001600020541415905092915050565b600080836001016000848152602001908152602001600020549050600081146128785760006001826127a2919061360f565b90506000600186600001805490506127ba919061360f565b90508181146128295760008660000182815481106127db576127da6134f7565b5b90600052602060002001549050808760000184815481106127ff576127fe6134f7565b5b90600052602060002001819055508387600101600083815260200190815260200160002081905550505b8560000180548061283d5761283c613da3565b5b60019003818190600052602060002001600090559055856001016000868152602001908152602001600020600090556001935050505061287e565b60009150505b92915050565b6060612893848460008561289c565b90509392505050565b6060824710156128e1576040517f08c379a00000000000000000000000000000000000000000000000000000000081526004016128d890613e44565b60405180910390fd5b6128ea856129b0565b612929576040517f08c379a000000000000000000000000000000000000000000000000000000000815260040161292090613eb0565b60405180910390fd5b6000808673ffffffffffffffffffffffffffffffffffffffff1685876040516129529190613f17565b60006040518083038185875af1925050503d806000811461298f576040519150601f19603f3d011682016040523d82523d6000602084013e612994565b606091505b50915091506129a48282866129d3565b92505050949350505050565b6000808273ffffffffffffffffffffffffffffffffffffffff163b119050919050565b606083156129e357829050612a33565b6000835111156129f65782518084602001fd5b816040517f08c379a0000000000000000000000000000000000000000000000000000000008152600401612a2a9190613c00565b60405180910390fd5b9392505050565b6000604051905090565b600080fd5b600080fd5b60007fffffffff0000000000000000000000000000000000000000000000000000000082169050919050565b612a8381612a4e565b8114612a8e57600080fd5b50565b600081359050612aa081612a7a565b92915050565b600060208284031215612abc57612abb612a44565b5b6000612aca84828501612a91565b91505092915050565b60008115159050919050565b612ae881612ad3565b82525050565b6000602082019050612b036000830184612adf565b92915050565b600073ffffffffffffffffffffffffffffffffffffffff82169050919050565b6000819050919050565b6000612b4e612b49612b4484612b09565b612b29565b612b09565b9050919050565b6000612b6082612b33565b9050919050565b6000612b7282612b55565b9050919050565b612b8281612b67565b82525050565b6000602082019050612b9d6000830184612b79565b92915050565b6000612bae82612b09565b9050919050565b612bbe81612ba3565b8114612bc957600080fd5b50565b600081359050612bdb81612bb5565b92915050565b6000819050919050565b612bf481612be1565b8114612bff57600080fd5b50565b600081359050612c1181612beb565b92915050565b600080fd5b600080fd5b6000601f19601f8301169050919050565b7f4e487b7100000000000000000000000000000000000000000000000000000000600052604160045260246000fd5b612c6a82612c21565b810181811067ffffffffffffffff82111715612c8957612c88612c32565b5b80604052505050565b6000612c9c612a3a565b9050612ca88282612c61565b919050565b600067ffffffffffffffff821115612cc857612cc7612c32565b5b612cd182612c21565b9050602081019050919050565b82818337600083830152505050565b6000612d00612cfb84612cad565b612c92565b905082815260208101848484011115612d1c57612d1b612c1c565b5b612d27848285612cde565b509392505050565b600082601f830112612d4457612d43612c17565b5b8135612d54848260208601612ced565b91505092915050565b60008060008060808587031215612d7757612d76612a44565b5b6000612d8587828801612bcc565b9450506020612d9687828801612bcc565b9350506040612da787828801612c02565b925050606085013567ffffffffffffffff811115612dc857612dc7612a49565b5b612dd487828801612d2f565b91505092959194509250565b612de981612a4e565b82525050565b6000602082019050612e046000830184612de0565b92915050565b6000819050919050565b612e1d81612e0a565b8114612e2857600080fd5b50565b600081359050612e3a81612e14565b92915050565b600060208284031215612e5657612e55612a44565b5b6000612e6484828501612e2b565b91505092915050565b612e7681612e0a565b82525050565b6000602082019050612e916000830184612e6d565b92915050565b60008060408385031215612eae57612ead612a44565b5b6000612ebc85828601612bcc565b9250506020612ecd85828601612c02565b9150509250929050565b612ee081612ba3565b82525050565b6000602082019050612efb6000830184612ed7565b92915050565b60008060408385031215612f1857612f17612a44565b5b6000612f2685828601612e2b565b9250506020612f3785828601612bcc565b9150509250929050565b600067ffffffffffffffff821115612f5c57612f5b612c32565b5b602082029050602081019050919050565b600080fd5b6000612f85612f8084612f41565b612c92565b90508083825260208201905060208402830185811115612fa857612fa7612f6d565b5b835b81811015612fd15780612fbd8882612bcc565b845260208401935050602081019050612faa565b5050509392505050565b600082601f830112612ff057612fef612c17565b5b8135613000848260208601612f72565b91505092915050565b600067ffffffffffffffff82111561302457613023612c32565b5b602082029050602081019050919050565b600061304861304384613009565b612c92565b9050808382526020820190506020840283018581111561306b5761306a612f6d565b5b835b8181101561309457806130808882612c02565b84526020840193505060208101905061306d565b5050509392505050565b600082601f8301126130b3576130b2612c17565b5b81356130c3848260208601613035565b91505092915050565b6000806000606084860312156130e5576130e4612a44565b5b600084013567ffffffffffffffff81111561310357613102612a49565b5b61310f86828701612fdb565b935050602084013567ffffffffffffffff8111156131305761312f612a49565b5b61313c8682870161309e565b925050604061314d86828701612bcc565b9150509250925092565b60006020828403121561316d5761316c612a44565b5b600061317b84828501612c02565b91505092915050565b6000806040838503121561319b5761319a612a44565b5b600083013567ffffffffffffffff8111156131b9576131b8612a49565b5b6131c585828601612fdb565b925050602083013567ffffffffffffffff8111156131e6576131e5612a49565b5b6131f28582860161309e565b9150509250929050565b6000806040838503121561321357613212612a44565b5b600061322185828601612e2b565b925050602061323285828601612c02565b9150509250929050565b6000806040838503121561325357613252612a44565b5b600061326185828601612bcc565b925050602061327285828601612bcc565b9150509250929050565b61328581612be1565b82525050565b60006020820190506132a0600083018461327c565b92915050565b600080600080608085870312156132c0576132bf612a44565b5b600085013567ffffffffffffffff8111156132de576132dd612a49565b5b6132ea87828801612fdb565b945050602085013567ffffffffffffffff81111561330b5761330a612a49565b5b6133178782880161309e565b935050604085013567ffffffffffffffff81111561333857613337612a49565b5b61334487828801612fdb565b925050606085013567ffffffffffffffff81111561336557613364612a49565b5b6133718782880161309e565b91505092959194509250565b600082825260208201905092915050565b7f416363657373436f6e74726f6c3a2063616e206f6e6c792072656e6f756e636560008201527f20726f6c657320666f722073656c660000000000000000000000000000000000602082015250565b60006133ea602f8361337d565b91506133f58261338e565b604082019050919050565b60006020820190508181036000830152613419816133dd565b9050919050565b7f5265656e7472616e637947756172643a207265656e7472616e742063616c6c00600082015250565b6000613456601f8361337d565b915061346182613420565b602082019050919050565b6000602082019050818103600083015261348581613449565b9050919050565b60006040820190506134a16000830185612ed7565b6134ae6020830184612ed7565b9392505050565b6000815190506134c481612bb5565b92915050565b6000602082840312156134e0576134df612a44565b5b60006134ee848285016134b5565b91505092915050565b7f4e487b7100000000000000000000000000000000000000000000000000000000600052603260045260246000fd5b7f4e487b7100000000000000000000000000000000000000000000000000000000600052601160045260246000fd5b600061356082612be1565b915061356b83612be1565b9250817fffffffffffffffffffffffffffffffffffffffffffffffffffffffffffffffff04831182151516156135a4576135a3613526565b5b828202905092915050565b7f4e487b7100000000000000000000000000000000000000000000000000000000600052601260045260246000fd5b60006135e982612be1565b91506135f483612be1565b925082613604576136036135af565b5b828204905092915050565b600061361a82612be1565b915061362583612be1565b92508282101561363857613637613526565b5b828203905092915050565b60006060820190506136586000830186612ed7565b6136656020830185612ed7565b613672604083018461327c565b949350505050565b600061368582612be1565b915061369083612be1565b9250827fffffffffffffffffffffffffffffffffffffffffffffffffffffffffffffffff038211156136c5576136c4613526565b5b828201905092915050565b60006136db82612be1565b91507fffffffffffffffffffffffffffffffffffffffffffffffffffffffffffffffff82141561370e5761370d613526565b5b600182019050919050565b600081519050919050565b600082825260208201905092915050565b6000819050602082019050919050565b61374e81612ba3565b82525050565b60006137608383613745565b60208301905092915050565b6000602082019050919050565b600061378482613719565b61378e8185613724565b935061379983613735565b8060005b838110156137ca5781516137b18882613754565b97506137bc8361376c565b92505060018101905061379d565b5085935050505092915050565b600081519050919050565b600082825260208201905092915050565b6000819050602082019050919050565b61380c81612be1565b82525050565b600061381e8383613803565b60208301905092915050565b6000602082019050919050565b6000613842826137d7565b61384c81856137e2565b9350613857836137f3565b8060005b8381101561388857815161386f8882613812565b975061387a8361382a565b92505060018101905061385b565b5085935050505092915050565b600060a08201905081810360008301526138af8188613779565b905081810360208301526138c38187613779565b905081810360408301526138d78186613837565b905081810360608301526138eb8185613779565b905081810360808301526138ff8184613837565b90509695505050505050565b7f5468652066656520726174696f2063616e6e6f74206578636565642035302500600082015250565b6000613941601f8361337d565b915061394c8261390b565b602082019050919050565b6000602082019050818103600083015261397081613934565b9050919050565b7f54686973204e4654206973206e6f74206f776e00000000000000000000000000600082015250565b60006139ad60138361337d565b91506139b882613977565b602082019050919050565b600060208201905081810360008301526139dc816139a0565b9050919050565b600060408201905081810360008301526139fd8185613779565b90508181036020830152613a118184613837565b90509392505050565b60006080820190508181036000830152613a348187613779565b90508181036020830152613a488186613837565b90508181036040830152613a5c8185613779565b90508181036060830152613a708184613837565b905095945050505050565b600081905092915050565b7f416363657373436f6e74726f6c3a206163636f756e7420000000000000000000600082015250565b6000613abc601783613a7b565b9150613ac782613a86565b601782019050919050565b600081519050919050565b60005b83811015613afb578082015181840152602081019050613ae0565b83811115613b0a576000848401525b50505050565b6000613b1b82613ad2565b613b258185613a7b565b9350613b35818560208601613add565b80840191505092915050565b7f206973206d697373696e6720726f6c6520000000000000000000000000000000600082015250565b6000613b77601183613a7b565b9150613b8282613b41565b601182019050919050565b6000613b9882613aaf565b9150613ba48285613b10565b9150613baf82613b6a565b9150613bbb8284613b10565b91508190509392505050565b6000613bd282613ad2565b613bdc818561337d565b9350613bec818560208601613add565b613bf581612c21565b840191505092915050565b60006020820190508181036000830152613c1a8184613bc7565b905092915050565b6000613c2d82612be1565b91506000821415613c4157613c40613526565b5b600182039050919050565b7f537472696e67733a20686578206c656e67746820696e73756666696369656e74600082015250565b6000613c8260208361337d565b9150613c8d82613c4c565b602082019050919050565b60006020820190508181036000830152613cb181613c75565b9050919050565b613cc181612ad3565b8114613ccc57600080fd5b50565b600081519050613cde81613cb8565b92915050565b600060208284031215613cfa57613cf9612a44565b5b6000613d0884828501613ccf565b91505092915050565b7f5361666545524332303a204552433230206f7065726174696f6e20646964206e60008201527f6f74207375636365656400000000000000000000000000000000000000000000602082015250565b6000613d6d602a8361337d565b9150613d7882613d11565b604082019050919050565b60006020820190508181036000830152613d9c81613d60565b9050919050565b7f4e487b7100000000000000000000000000000000000000000000000000000000600052603160045260246000fd5b7f416464726573733a20696e73756666696369656e742062616c616e636520666f60008201527f722063616c6c0000000000000000000000000000000000000000000000000000602082015250565b6000613e2e60268361337d565b9150613e3982613dd2565b604082019050919050565b60006020820190508181036000830152613e5d81613e21565b9050919050565b7f416464726573733a2063616c6c20746f206e6f6e2d636f6e7472616374000000600082015250565b6000613e9a601d8361337d565b9150613ea582613e64565b602082019050919050565b60006020820190508181036000830152613ec981613e8d565b9050919050565b600081519050919050565b600081905092915050565b6000613ef182613ed0565b613efb8185613edb565b9350613f0b818560208601613add565b80840191505092915050565b6000613f238284613ee6565b91508190509291505056fea2646970667358221220ff09a5943b9380953677cfc50d72c759f2ffe905190f5b9c2ff0f02d52d4301d64736f6c634300080c0033",
  "linkReferences": {},
  "deployedLinkReferences": {}
}